:020000040800F2
:100000001005002005010008250900082109000845
:100010002309000877080008D10D0008000000003F
:10002000000000000000000000000000590A000865
:1000300079080008000000008D0900082D0B000859
:100040001F0100081F0100081F0100081F01000810
:100050001F0100081F0100081F0100081F01000800
:100060001F0100081F0100081F0100081F010008F0
:100070001F0100081F0100081F0100081F010008E0
:100080001F0100081F010008590800081F0100088F
:100090001F0100081F0100081F0100081F010008C0
:1000A0001F0100081F0100081F0100081F010008B0
:1000B0001F0100081F0100081F0100081F010008A0
:1000C0001F0100081F0100081F0100081F01000890
:1000D0001F010008810B00081F010008E90B000840
:1000E0001F0100081F0100081F010008DFF810D0E1
:1000F00000F03CFB004800479D1D0008AFF3008066
:10010000100500200648804706480047FEE7FEE746
:10011000FEE7FEE7FEE7FEE7FEE7FEE7FEE7FEE7B7
:10012000310B0008ED00000880EA010210B502F072
:100130000043400022D04A001FD0010E01EB1261A3
:10014000C0F35600C2F3560240F4000042F400022D
:10015000A0FB022000047F39140400D0401C50EAA8
:10016000124001D44000491EC2B20C0604EBD0106C
:10017000401C4008802A02D003E0002010BD20F07F
:100180000100002900DA0020184310BD420005D00C
:10019000C0F3C7525242914201DC0020704700EB8D
:1001A000C15070472DE9FE4F804681EA0300C00F21
:1001B0000C46009021F0004123F00045B8EB02000E
:1001C000A94105D24046214690461C460B460246B0
:1001D00023F00040104347D0270DC7F30A00C3F3B4
:1001E0000A510290401A019040286BDAC3F31300C1
:1001F00040F4801B0098924620B10023D2EB030A02
:1002000063EB0B0B01985946C0F14002504600F0D9
:10021000E6F806460D4650465946019A00F0EEF8BB
:1002200010EB08006141002487EA115284EAE77369
:100230001A4340D0009A62B3019A012A4FEA07524A
:1002400015DC001B61EB02014FF0004202EA07528D
:10025000CDE90042001C41F5801132462B4600F0EA
:1002600025F903B0BDE8F08F40462146F9E7001BB1
:1002700061EB0201001C41F5801300185B4120185E
:10028000A2F5001747EB030140EAD570B6196D419E
:1002900011E06D084FEA360645EAC0754FEA07528D
:1002A000001B61EB0201001C41F5801149084FEA77
:1002B00030000019514132462B4603B0BDE8F04FE3
:1002C00000F0E5B80098012240000023D0EB0202C4
:1002D00063EBE073009821464FEAE074B8EB00004E
:1002E00061EB0401E9E783F000435BE781F0004143
:1002F00058E700F0004230F000400AD0C10D01F58F
:100300006071C0F3160042EA0151C2084007114370
:10031000704700200146704701F0004330B421F0DF
:10032000004150EA010206D00A0DA2F56072C1F345
:100330001301002A02DC30BC00207047440F44EA5D
:10034000C104C100E01830BC00EBC25000F068B836
:1003500030B50B46014600202022012409E021FA95
:1003600002F59D4205D303FA02F5491B04FA02F592
:100370002844151EA2F10102F1DC30BD2DE9F05F29
:100380000546002092469B46884606468146402404
:100390001BE0284641464746224600F0F9F95346FD
:1003A0005A46C01A914110D311461846224600F011
:1003B00016F82D1A67EB01084F462246012000214E
:1003C00000F00DF817EB00094E41201EA4F10104C6
:1003D000DFDC484631462A464346BDE8F09F202AE6
:1003E00004DB203A00FA02F1002070479140C2F18C
:1003F000200320FA03F3194390407047202A06DBBC
:10040000CB17203A41FA02F043EAE07306E041FAE2
:1004100002F3D040C2F120029140084319467047D0
:100420000029A8BF7047401C490008BF20F0010008
:10043000704710B4B0FA80FC00FA0CF050EA0104E6
:1004400004BF10BC704749B1CCF1200421FA04F478
:1004500011FA0CF118BF012121430843A3EB0C0151
:10046000CB1D4FEA00614FEA102042BF002010BCB4
:10047000704700EBC35010440029A4BF10BC704764
:10048000401C490008BF20F0010010BC704710B5A7
:10049000141E73F1000408DA401C41F100019218A7
:1004A0005B411A4301D120F0010010BD2DE9F04D50
:1004B00092469B4611B1B1FA81F202E0B0FA80F2A5
:1004C00020329046FFF78BFF04460F4640EA0A00B1
:1004D00041EA0B0153465A46084313D0114653EAEA
:1004E000010019D0C8F14002504600F051F905460C
:1004F0000E46504659464246FFF771FF084305D065
:10050000012004E020463946BDE8F08D0020054377
:1005100046EAE0762C4337430A986305E40AA0EBE9
:1005200008000022FD0A44EA47540A3002D50020A0
:100530000146E9E7010510196941DDE9084500199F
:100540006941BDE8F04DA2E72DE9FE4F81EA0304C1
:1005500004F0004421F0004100944FF0000B23F020
:10056000004350EA01045ED052EA03045BD0C3F3B7
:100570000A54C1F30A552C44A4F2F3340194A0FBAD
:100580000254C1F3130141F48011C3F3130343F484
:10059000801301FB024400FB034E840A970A44EADD
:1005A000815447EA8357A4FB076802958D0A05FB2F
:1005B00007854FEA932C04FB0C542705029D4FEA54
:1005C000065847EA1637B5EB08056EEB070C870EA1
:1005D000920E47EA811742EA8312A7FB0201B6EBAB
:1005E0000B0164EB00042B0D43EA0C335E1844EB63
:1005F0001C50DA465146E7FB0201C5F313044FEAEB
:100600000B3343EA14534FEA0432019C43EA0603D6
:10061000A4F10C040294009CCDE900B4FFF746FF5E
:1006200003B0BDE8F08F00200146F9E72DE9F04D59
:1006300081EA030404F0004B21F0004514464FF01A
:10064000000A23F0004150EA050220D054EA0102DA
:100650001DD0C5F30A570246C5F31303C1F31300B7
:10066000C1F30A5640F4801543F48013A7EB060843
:10067000101BD64608F2FD3873EB050002D308F1D3
:10068000010801E092185B41B8F1000F03DA002085
:100690000146BDE8F08D00204FF4801106468446E7
:1006A0000EE0171B73EB050705D3121B63EB050365
:1006B00006434CEA010C49084FEA300092185B41AE
:1006C00050EA0107EDD152EA030012D082EA040099
:1006D00083EA0501084305D0101BAB4106D2012275
:1006E000002306E000224FF0004302E06FF0010219
:1006F00053101AEB06004CEB085110EB0A0041EBCB
:100700000B01BDE8F04DFFF7C2BEC1F30A52C1F3C1
:10071000130140F2FF3341F480119A4202DA0020C3
:100720000146704740F233439A42A2F2334202DC60
:10073000524200F02DB8FFF752BE000030B5041E43
:1007400071F1000404DB4FF00044404264EB01010E
:10075000141E73F1000405DB1C464FF000435242A7
:1007600063EB0403994208BF904230BD064C074D2D
:1007700006E0E06840F0010394E807009847103471
:10078000AC42F6D3FFF7B6FCA8200008C82000084A
:10079000202A04DB203A21FA02F00021704721FAD6
:1007A00002F3D040C2F1200291400843194670473D
:1007B00070B521F0004303430CD0C1F30A55002467
:1007C000D5EB040564EB0403D617AD1AB34102DB85
:1007D0000020014670BD201841EB025170BD0EB5DE
:1007E000C10F80EAE0700844CA07002140F2334399
:1007F0008DE80E000A460B46FFF758FE03B000BD19
:100800000EB540F2334102910021CDE900110A46B4
:100810000B46FFF74BFE03B000BD70B5C1F30A52A3
:1008200001F000450024C1F3130140F2FF3341F40D
:1008300080119A4201DA002070BD40F233439A429F
:10084000A2F2334203DC5242FFF7A2FF00E09040E5
:100850002C43F1D0404270BD10B5034800F008F8B9
:100860000249088010BD000000280140000000205F
:10087000C06C80B27047FEE770472DE9F04100225E
:10088000CC7804F00F03E40601D58C7823430C7870
:100890004FF00F0714F0FF0F4FF0010C1CD005684C
:1008A0000CFA02F40E882640A64211D1960007FAEF
:1008B00006F825EA080503FA06F848EA0505CE78A1
:1008C000282E02D0482E02D002E0446100E00461EC
:1008D000521C082AE4D305600A88FF2A1ED94568FD
:1008E000002202F108060CFA06F40E882640A64201
:1008F00010D1960007FA06F825EA080503FA06F86B
:1009000048EA0505CE78282E00D14461CE78482EDD
:1009100000D10461521C082AE3D34560BDE8F08190
:10092000FEE7FEE77047000070B50F23C27801268E
:100930000178002A1ED0144A126802F4E062C2F55F
:10094000E062120AC2F10404D3404578A5408278DF
:100950001A402A43120101F1E02181F800240078B5
:1009600000F01F018E404009800000F1E020C0F837
:10097000006170BD01F01F0086404809800000F151
:10098000E020C0F8806170BD0CED00E07047000011
:10099000054A002903D0916901439161704791692B
:1009A00081439161704700000010024010B5264A53
:1009B000516801F00C01254B002927D0042927D0CC
:1009C000082927D00360516801F0F0010909204B84
:1009D0005C5C0168E1404160546804F4E064240A0E
:1009E0001C5D21FA04F48460546804F46054E40A41
:1009F0001B5DD940C160526802F44042920B144B17
:100A00001B1F9A5CB1FBF2F1016110BD0360DAE7D4
:100A10000360D8E7516801F47011536803F4803320
:100A2000022404EB914133B153689B0307D5094B72
:100A300059430160C7E7074B59430160C3E7034BC4
:100A400059430160BFE700000010024000127A0025
:100A50001C00002000093D00704700F001B80000B4
:100A60000CB50022019200922748016841F48031C0
:100A700001604FF4A063016801F400310091019915
:100A8000491C0191009911B901999942F3D101686A
:100A9000890302D50121009100E00092009901290B
:100AA00030D11A490A6842F010020A600A6822F03E
:100AB00007020A600A6842F002020A604168416067
:100AC00041684160416841F480614160416821F4BE
:100AD0007C114160416841F4A8114160016841F016
:100AE0008071016001688901FCD5416821F0030132
:100AF0004160416841F0020141604168C1F38101F8
:100B00000229FAD10CBD0000001002400020024072
:100B10004FF0E021042804D0086920F004000861A7
:100B20007047086940F00400086170477047000092
:100B300010B50F48016841F00101016041680D4A9C
:100B40001140416001680C4A11400160016821F4C4
:100B500080210160416821F4FE0141604FF41F01D2
:100B60008160FFF77AFF05494FF00060086010BD13
:100B7000001002400000FFF8FFFFF6FE08ED00E065
:100B800070B5164C40F22551204600F083F800283D
:100B90000ED0204600F018F9C1B2114A9088030423
:100BA00006D444044FF0000307D50A2901D09380EE
:100BB00070BD40F40040908070BD0D290AD0094DF1
:100BC000C0F30D042955401C80B29080C728F3D98A
:100BD000938070BD40F48040908070BD003801402B
:100BE000300000204800002070B51E4D40F2255610
:100BF0003146284600F04EF8012831D1284600F051
:100C0000E3F8C2B2184C00200121237833B1012B44
:100C100009D0022B0ED0032B18D01BE0FF2A19D1CC
:100C20002170607016E0FE2A01D0207012E00220D0
:100C300020700FE00C486378801DC2545B1CDAB250
:100C40006270062A06D30320207003E0FE2A01D139
:100C50002070A17031462846BDE8704000F006B80B
:100C600070BD0000004800403000002040F66A12CD
:100C70000A0A01219140C94301807047002904D02C
:100C8000818941F4005181817047818921F40051AB
:100C90008181704770B5002440F66A12C1F3421397
:100CA00001F01F05012606FA05F2012B0CD0022BDC
:100CB0000DD0838A1340090A8E40008830400BB162
:100CC00000B10124204670BD83891340F3E7038AF5
:100CD0001340F0E710B540F66A13C1F3421301F078
:100CE0001F040121A140012B07D0022B07D0143093
:100CF0003AB102680A43026010BD0C30F8E71030C8
:100D0000F6E702688A43026010BD000030B585B086
:100D100004460D46208A4CF6FF710840E9880143DD
:100D20002182A0894EF6F3110840A9882A8911432F
:100D30006A8902431143A181A08A4FF6FF4108400E
:100D4000A9890143A1826846FFF730FE1D4884420D
:100D500001D1039800E00298A189090408D500EBAD
:100D6000C00101EB001029684900B0FBF1F007E079
:100D700000EBC00101EB001029688900B0FBF1F025
:100D80006422B0FBF2F109010B096FF018056B4307
:100D900000EB8300A3891D044FF0320307D503EB5A
:100DA000C000B0FBF2F000F00700084306E003EBE0
:100DB0000010B0FBF2F000F00F000843208105B0F6
:100DC00030BD0000003801408088C0F30800704743
:100DD000FEE700000FB4054B10B503A9044A0298C2
:100DE00000F014FC10BC5DF814FB0000851D000829
:100DF00040000020490050EAC12018BF04204A0DDD
:100E000018BF40F0010040F2FF72B2EB515F08BF23
:100E100040F00200012808BF052070472DE9F74F78
:100E2000144694B00021C4E902111599079121F0EC
:100E30000045C9498D4206DC1599C4E9000117B087
:100E40000020BDE8F08FC549DFF814A3A9423CDDBE
:100E50000799C44E0029C44FC44A1599534619DD59
:100E6000FFF741FA554506D0C14AC24BFFF73BFA9E
:100E7000C4E900010AE04FF0D352BE4BFFF733FA4A
:100E800032463B46FFF72FFAC4E9000117B00120B4
:100E9000BDE8F08FFFF786F9554506D0B44AB54B4B
:100EA000FFF780F9C4E900010AE04FF0D352B14BDB
:100EB000FFF778F932463B46FFF774F9C4E90001C1
:100EC00017B04FF0FF30BDE8F08FAB49A94215993C
:100ED00078DB21F0004183468846A84AA84BFFF7FB
:100EE00033FB0022A74BFFF75DF9FFF796FC099053
:100EF000FFF775FC06460F469C4A5346FFF724FB56
:100F000043465A46FFF7F2F980468A46984A994B7B
:100F100030463946FFF718FB2A0D01250B92424651
:100F20005346FFF7E3F9032DC4E9000139D00B98CC
:100F3000C1F30A51401A05EB45111139814230DAEB
:100F40009148C346784400EB0510CDF80CA00C90F6
:100F5000D0E9002330463946FFF7F6FA02460B4641
:100F60000491069058460399FFF7BDF980468A46DA
:100F700002460B4658460399FFF7B5F9049B069ABB
:100F8000FFF7B1F983460C9803913946D0E9022363
:100F90003046FFF7D9FA5A46039BFFF7A4F96D1CB8
:100FA000BDE707980028A2BF099817B0BDE8F08FE9
:100FB000616881F000416160099817B04042BDE866
:100FC000F08FFFE784461598C1F31301C0F30A5070
:100FD000A0F2F5304FEA601800F01F06C6F12000BD
:100FE000139000200690079041F4801E05206D4666
:100FF00076B1664A08EB00017A4452F8213002EBE0
:101000008101B3404A68139922FA01F1194305E0BE
:101010005F4908EB0002794451F82210A1FB0E272A
:10102000A1FB0C131A449A4234BF0123002303EBA3
:10103000070A05EB8003D3E901B70F448F4234BFA1
:101040000121002193448B4411B1934502D903E05F
:10105000934501D2012100E00021C3E901B75144C9
:1010600045F82010011EA0F10100C1DC0298059F87
:1010700000F10050800F12900298DDE903568000C5
:10108000FFF7ADFB834628460D91FFF7B9FB6FF0E4
:101090001D02FFF78DFBCDE90E013046FFF7B0FBD7
:1010A0006FF03D02FFF784FB80468A463846FFF723
:1010B000A7FB6FF05D02FFF77BFB074642465346F6
:1010C0001191FFF76FF8DDE90E23FFF76BF85A4631
:1010D0000D9BFFF767F800250E465A4628460D9BE4
:1010E000FFF701F9DDE90E23FFF7FDF8424653460D
:1010F000FFF7F9F83A46119BFFF7F8F8DFF898A0E8
:10110000244A5346FFF720FA07468846234A244BD1
:1011100031462846FFF718FA3A464346FFF742F8A9
:10112000074688464FF0A842534631462846FFF707
:101130000BFA3A464346FFF735F8159A12F0004F7E
:1011400004D0129A81F0004152421292C4E9000187
:10115000129817B0BDE8F08FFB21E93F7CD902401F
:10116000FB21F93F7370032E8A19A33B0000405402
:101170003163621A61B4D03DFB21394183C8C96D26
:10118000305FE43F0000E03F70100000EC0F000013
:10119000CE0F0000182D4454FB21F93D3326A61133
:1011A000460B113C2DE9FF4D21F0004807460C4647
:1011B000B8F1795F08DAFFF730FB002801BF0020A3
:1011C000324904B0BDE8F08D3A4623461046194630
:1011D000FFF7BAF9054602462D480E460B46062192
:1011E000784400F05DF82A463346FFF7ADF9DDE9B3
:1011F000022382468B4638462146FFF7A5F904466E
:101200000F4652465B4628463146FFF79DF9224677
:101210003B46FFF768F807468A464FF0FF322846FC
:101220003146FFF7C5FA1B4A90450ADA3A4653465B
:10123000FFF759F804B00022BDE8F04D134BFFF75B
:1012400055B8154A4245A8BFA8F500154FF000044F
:10125000B8BF124D22462B46FFF745F80646884692
:1012600022462B4600200949FFF73DF804460D466B
:101270003A46534630464146FFF735F804B0224619
:101280002B46BDE8F04DFFF731B800000000F03FFD
:10129000A40D00003333D33F0000E93F0000D23FEC
:1012A0002DE9F0414F1E00EBC7010446D1E90001D2
:1012B00015461E4637F006020DD02A463346FFF784
:1012C00043F97F1E04EBC703D3E90023FEF76AFF4F
:1012D00037F00602F1D1022F25D0042F13D0062FAC
:1012E00018BFBDE8F0812A463346FFF72DF9D4E94F
:1012F0000A23FEF757FF2A463346FFF725F9D4E9BC
:101300000823FEF74FFF2A463346FFF71DF9D4E9BD
:101310000623FEF747FF2A463346FFF715F9D4E9BF
:101320000423FEF73FFF2A463346FFF70DF9D4E9C1
:101330000223FEF737FF2A463346FFF705F9D4E9C3
:101340000023BDE8F041FEF72DBF00002DE9FF4D61
:10135000054621F0004084B00C46B0F1795F0BDA0D
:101360002846FFF747FD042808BF00F06FF828461D
:1013700008B02146BDE8F08D2A460B461046FFF71F
:10138000E3F806460F462A462346FFF7DDF8804677
:1013900026488A4632463B4605217844FFF780FFBF
:1013A00083461098029160B3214A224B4046514631
:1013B000FFF7CAF8CDE900015A4640465146029B64
:1013C000FFF7C2F882468846DDE906014FF0FF329A
:1013D000FFF7EEF952464346FEF785FF32463B469D
:1013E000FFF7B2F8DDE90623FEF77DFFDDE9002314
:1013F000FEF779FF08B02A462346BDE8F04DFEF718
:1014000075BF0B465A4630463946FFF79DF8084AE5
:10141000084BFEF7C7FE42465346FFF795F808B063
:101420002A462346BDE8F04DFEF7BCBEE20C0000A4
:10143000495555555555C5BF0122FFF7B9B9002289
:10144000134610461146FFF7F1B80000024A00208B
:101450001107FFF7ADB9000001FDFFFF02E008C86A
:10146000121F08C1002AFAD170477047002001E01E
:1014700001C1121F002AFBD170470000014908601A
:1014800070470000440000202DE9FF5F82B000217A
:10149000DDE90430020DDDF840B0034318D044F616
:1014A0001050A2F2FF3242431514119801281FD0A8
:1014B000A5EB0B00401C5FEA000A4FF000064E4F00
:1014C000DFF83891B046504615D5CAF1000413E054
:1014D000119801244AA3012801D16FEA0B01029857
:1014E000119AC0E90031C0E9024206B0BDE8F09FA0
:1014F000CBF10000DFE704460021404A491842EBE7
:101500000450CDE9001012E0E00707D032463B4618
:1015100040464946FFF718F88046894632463B4622
:1015200010461946FFF710F806460F466410002CC7
:10153000EAD1DDE90401DDE90023BAF1000F06DAA2
:10154000FFF702F842464B46FEF7FEFF05E0FFF7C5
:101550006DF842464B46FFF769F804460E460022F6
:10156000284BFFF7EBF803D84FF0FF30014607E0B8
:101570000022254B20463146FEF714FEFFF7C5F842
:10158000102409E0002C0ADB0A220023FEF7F6FEF5
:10159000039B30321A55641E50EA0102F2D1641CDA
:1015A000039AC4F111031444119A012A03D00122B1
:1015B00008430DD10AE0084304D000204FF0110B7E
:1015C000119072E7A3EB0B056D1E0DE05B4504DD8A
:1015D0004FF0000205F1010504E003DA4FF00002CC
:1015E000A5F10105002AECD002981199C0E9023159
:1015F000C0E9004579E70000000014400000F03F1A
:10160000300000000000F0430000E03F2DE9FF4FF4
:1016100095B09A46884606460025EEE1252877D102
:1016200000242746F94A0121039400E0044316F8F8
:10163000013F203B01FA03F01042F7D130782A280D
:1016400011D06FF02F033078A0F13002092A16D89C
:10165000039A44F0020402EB820203EB42021044BC
:10166000761C0390EFE758F8042B0392002A03DA64
:10167000504244F40054039044F00204761C307845
:101680002E2816D116F8010F44F004042A280DD094
:101690006FF02F023078A0F13003092B09D807EB47
:1016A000870302EB4303C718761CF3E758F8047B63
:1016B000761C30786C280FD006DC4C2817D06828B0
:1016C0000DD06A2814D104E0742810D07A280FD1E4
:1016D0000DE044F400140AE044F4801401E044F402
:1016E00040147278824202D104F58014761C761C74
:1016F000307866280BD013DC582877D009DC002816
:1017000075D04528F6D04628F4D047281AD193E161
:1017100018E0632835D0642879D0652812D18BE190
:10172000702873D008DC6728F1D069286FD06E2844
:101730000DD06F2806D1ACE073282CD0752874D05A
:10174000782853D05246179990476D1C54E1C4F342
:101750000250022809D003280DD0D8F80010042820
:101760000DD00D6008F1040846E1D8F80010EA1722
:10177000C1E90052F6E7D8F800100D80F2E70D70CD
:10178000F0E718F8041B8DF8001000208DF8010018
:10179000EB46012003E058F804BB4FF0FF3061072F
:1017A0004FF0000102D40DE009F101018946B94270
:1017B0000FDA8145F8DB1BF809100029F4D108E0A5
:1017C00009F1010189468142FADB1BF80910002961
:1017D000F6D103985346A0EB090721463846179ADD
:1017E00000F080FA284400EB090507E044E008E136
:1017F0000DE01BF8010B524617999047B9F101090A
:10180000F7D2534621463846179AF2E039E00A21CA
:10181000C4F302524FF0000B0091022A06D058F890
:10182000040BC117032A09D00AE023E008F10700DE
:1018300020F00702F2E80201904605E000B2C1176D
:10184000042A01D140B2C117002906DA0A46002154
:10185000404261EB02012D2202E0220504D52B2239
:101860008DF80420012203E0E20701D02022F7E7EF
:10187000914657E00A2100E010214FF0000B009143
:101880000BE010214FF0000B44F0040408270091F6
:1018900003E008204FF0000B0090C4F30252022A2C
:1018A00005D058F8040B0021032A08D008E008F1FD
:1018B000070020F00702F2E80201904603E080B240
:1018C000042A00D1C0B24FF0000922072AD532788D
:1018D000702A07D0DDF800C08CF0100C5CEA0B0C0D
:1018E00005D00EE040228DF80420012208E050EAE5
:1018F000010306D030238DF804308DF80520022234
:101900009146009B83F0080353EA0B030AD150EA87
:10191000010201D1620705D530228DF804204FF075
:1019200001097F1E3278582A04D039A20C920CAAE1
:1019300002920BE03BA2F9E75B46009AFEF71EFD20
:101940000C9B9B5C029A521E0292137050EA010299
:10195000F2D1029804A9081A00F1200B600702D501
:1019600024F4803400E001275F4502DDA7EB0B0083
:1019700000E0002000EB0B01009003984944401A5E
:101980000390E00306D453462146179A039800F0CB
:10199000A9F90544002706E001A85246C05D179941
:1019A00090476D1C7F1C4F45F6DBE0030CD553467A
:1019B0002146179A039800F095F9054404E0302079
:1019C0005246179990476D1C0099481E00900029B7
:1019D000F5DC08E00298029952460078491C029111
:1019E000179990476D1CBBF10001ABF1010BF1DCC5
:1019F0005BE100F065F90544761C307800287FF43F
:101A00000DAE19B02846BDE8F08F0000092801008E
:101A10003031323334353637383961626364656664
:101A20000000000030313233343536373839414226
:101A30004344454600000000600700D4062708F133
:101A4000070020F00700F0E80223804603F0004C76
:101A50005FEA0C0001D097A009E0200501D596A00F
:101A600005E0E00701D095A001E0AFF24C00139033
:101A7000307823F0004365280CD006DC452809D0D7
:101A800046281DD047287FD13BE0662818D067281C
:101A90007AD136E00021112F01DB112000E0781C03
:101AA000CDE9000104A90CA8FFF7EEFCDDE90D016A
:101AB0000C9A4FF0000B07F10109109200914EE0D3
:101AC0004FF000400097CDE9011004A90CA8FFF7E2
:101AD000DBFCDDE90D020C9B0F994FF0000B9146EA
:101AE0001093009211B9791C00EB0109B7EB0900C2
:101AF00003D4C0F1FF3B07F10109A9EB07000190F6
:101B000042E0012F00DA01270021112F01DD112011
:101B100000E03846CDE9000104A90CA8FFF7B4FCA9
:101B2000DDE90D010C9A00914FF0000BB9461092BF
:101B300021070FD4009A4A4503DA914601E0A9F142
:101B40000109B9F1010F05DD109AA9F10101515CFC
:101B50003029F4D0B84202DA10F1040F03DA01217F
:101B6000CDE9011010E0002803DC8344A9EB00015B
:101B700002E0411C494500DD8946A0EB0B00401CFA
:101B800001904FF000400290200705D4019848458D
:101B900002DB4FF0FF30019000208DF84B000298DF
:101BA0000DF14B07B0F1004F25D002200C902B20F7
:101BB0000D90029800280CDA404202902D200D90E2
:101BC00007E00A210298FEF7C3FB3031029007F8C4
:101BD000011D0C99481E0C900029F2DC0298002887
:101BE000EFD1791E0D980870307800F0200040F099
:101BF000450007F8020D11A8C01BC01D02901398E4
:101C0000007800B1012000EB0901019801EBE071BF
:101C1000029801440398401A401E0390E00306D442
:101C200053462146179A039800F05CF80544139830
:101C3000007818B15246179990476D1CE00323D5E0
:101C400053462146179A039800F04CF805441BE0D0
:101C5000BBF1000F07DB0098584504DD1098179979
:101C600010F80B0001E01799302052469047019878
:101C70000BF1010B401E05F10105019004D12E204E
:101C80005246179990476D1CB9F10001A9F101095D
:101C9000DEDC05E017F8010B5246179990476D1CE2
:101CA0000299481E02900029F4DC53462146179AF7
:101CB00003989EE62D0000002B000000200000008D
:101CC0002DE9F041044600251E461746880404D439
:101CD00005E039462020B0476D1C641EF9D5284622
:101CE000BDE8F0812DE9F041044600251E469046EE
:101CF000C80301D5302700E02027880404D505E07B
:101D000041463846B0476D1C641EF9D52846BDE8EB
:101D1000F081000010B56FF00400FEF7F9FE0948ED
:101D200009490068B0FBF1F00849C0B2087000EB47
:101D30004002C2EBC0104FF6FF7202EAC0004880BA
:101D400010BD00000400002000127A002C000020CA
:101D50000B49498848434FF0E021486100238B61DB
:101D6000086940F0010008610869C20701D0C0039A
:101D7000FAD5086920F0010008618B617047000006
:101D80002C00002004490A885206FCD5024AC1B240
:101D9000121D1180704700000038014086B04FF4DA
:101DA000165000F0A1F8FFF7B5FFDFF87CB0504601
:101DB000FEF79FFA5A461D4BFEF7F4F9FEF7ACFA10
:101DC000824602215046FEF7E1F9FEF792FA00F052
:101DD0003BF804460D4616495046FEF7A5F9FEF7B6
:101DE00088FA00F031F806460F4601215046FEF70A
:101DF000CDF9FEF77EFA00F027F880468946504676
:101E0000FEF777FA00F020F80246CDE900890B468C
:101E100008A0CDE90267CDE90445FEF7DBFF0A2003
:101E2000FFF796FFC3E700009A9999999999B93FEE
:101E30000000404064656D6F3A25662C25662C25B0
:101E4000662C25660A00000000B5254B21F00042F3
:101E500087B09A4203DC0022134600922BE0214B0C
:101E60009A4208D140B94FF00100FFF707FBFFF796
:101E7000E6FA07B000BD03DBFFF7DEFA07B000BDEE
:101E800002AAFEF7CBFF10F003014FF001000DD0C6
:101E9000012914D002291AD00DF1080C9CE80F007A
:101EA000FFF780F907B081F0004100BD0DF1080C8B
:101EB00000909CE80F00FFF749FA07B000BD0DF154
:101EC000080C9CE80F00FFF76DF907B000BD0DF19D
:101ED000080C00909CE80F00FFF738FAE2E70000DA
:101EE000FB21E93F0000F07F70B586B00546012177
:101EF00044F20400FEF74CFD4FF40070ADF81400FE
:101F000003248DF8164018218DF817101C4E05A9D2
:101F10003046FEF7B2FC3115ADF8141004218DF8EF
:101F2000171005A93046FEF7A8FC25208DF8000003
:101F30008DF801408DF8024001208DF803006846BD
:101F4000FEF7F2FC01950020ADF80800ADF80A009C
:101F5000ADF80C00ADF810000C20ADF80E00094CE7
:101F600001A92046FEF7D2FE012240F2255120466B
:101F7000FEF7B0FE01212046FEF780FE06B070BDE0
:101F800000080140003801404C5555555555A53FB6
:101F90007751C1166CC156BF9015CB19A001FA3EFE
:101FA000AD529C804F7E92BEC4B1B4BD9EEE213E28
:101FB000D43888BEE9FAA8BD00004054FB21F93F9F
:101FC0003163621A61B4D03D0000601A61B4D03D43
:101FD0007370032E8A19A33B0000002E8A19A33BBD
:101FE000C14920259A837B390000000000000000D1
:101FF0006E83F9A22915444ED15727FCC0DD34F574
:10200000999562DB4190433CAB6351FE61C5BBDEF9
:102010003A6E24B7E0D24D42EA2E49061C92D1090D
:102020001CEB1DFE3EA729B1F53582E88444BB2E8A
:1020300026709CE9417E5FB439D69139F4395383D7
:102040008B5F849C3B28F9BDFF97F81F0F9805DE36
:102050008B112FEF1F6D0A5ACF7E366DB709CB2734
:10206000663F464F2DEA5F9EC7BA27757BF1E5EBC9
:10207000F739073DEA92528AB15FFB6B085D8D1F0D
:10208000A6F810111111813FD561C119A0012ABF15
:102090007DFEB157E31DC73EEB9C2B8AE6E55ABE99
:1020A0007CD5CF5A3AD9E53DC82000080000002071
:1020B000480000005C1400081021000848000020BF
:1020C000C80400006C14000800000000007E5603E5
:1020D00000000000000000000102030406070809D8
:1020E00002040608000000000102030401020304C8
:1020F00006070809000000000000000000000000C2
:1021000000000000000000000000000000000000CF
:04000005080000ED02
:00000001FF
