:020000040800F2
:100000009005002005010008F10D0008970B00087D
:10001000B50D0008930900082D1B00080000000022
:100020000000000000000000000000005511000862
:100030009509000800000000590E00082912000868
:100040001F0100081F0100081F0100081F01000810
:100050001F0100081F0100081F0100081F01000800
:100060001F0100081F0100081F0100081F010008F0
:100070001F0100081F0100081F0100081F010008E0
:100080001F0100081F010008750900081F01000872
:100090001F0100081F0100081F0100081F010008C0
:1000A0001F0100081F0100081F0100081F010008B0
:1000B0000115000835150008591500081F01000832
:1000C0001F0100081F0100081F0100081F01000890
:1000D0001F010008DD1800081F010008451900086D
:1000E0001F0100081F0100081F010008DFF810D0E1
:1000F00000F0CCFB004800477D2E0008AFF30080E5
:10010000900500200648804706480047FEE7FEE7C6
:10011000FEE7FEE7FEE7FEE7FEE7FEE7FEE7FEE7B7
:100120002D120008ED000008F0B480EA0102D40F9F
:100130004200B2EB410F02D20246084611464A0085
:1001400042D0C30DDDB2C1F3C752AD1A202D35DA4E
:10015000C1F3160141F4000204B15242C5F1200678
:1001600002FA06F12A411044B3EBD05F23D0C4B1A8
:10017000012DA0EBC35009DCF0BC4FF0004202EAB5
:10018000C352DBB200F5000000F026BA400000F1D7
:10019000807000EBC350A0F1807040EAD17049003C
:1001A00009E0490841EAC071A0EBC35000F5000026
:1001B000400800EBC350F0BC00F005BA61420122D8
:1001C00002EB4101001BF6E7F0BC704781F00041F3
:1001D000AAE780F00040A7E780EA010210B502F02C
:1001E0000043400022D04A001FD0010E01EB1261F3
:1001F000C0F35600C2F3560240F4000042F400027D
:10020000A0FB022000047F39140400D0401C50EAF7
:10021000124001D44000491EC2B20C0604EBD010BB
:10022000401C4008802A02D003E0002010BD20F0CE
:100230000100002900DA0020184310BD420005D05B
:10024000C0F3C7525242914201DC0020704700EBDC
:10025000C15070472DE9FE4F804681EA0300C00F70
:100260000C46009021F0004123F00045B8EB02005D
:10027000A94105D24046214690461C460B460246FF
:1002800023F00040104347D0270DC7F30A00C3F303
:100290000A510290401A019040286BDAC3F3130010
:1002A00040F4801B0098924620B10023D2EB030A51
:1002B00063EB0B0B01985946C0F14002504600F029
:1002C00061F906460D4650465946019A00F069F913
:1002D00010EB08006141002487EA115284EAE773B9
:1002E0001A4340D0009A62B3019A012A4FEA07529A
:1002F00015DC001B61EB02014FF0004202EA0752DD
:10030000CDE90042001C41F5801132462B4600F039
:10031000A0F903B0BDE8F08F40462146F9E7001B85
:1003200061EB0201001C41F5801300185B412018AD
:10033000A2F5001747EB030140EAD570B6196D41ED
:1003400011E06D084FEA360645EAC0754FEA0752DC
:10035000001B61EB0201001C41F5801149084FEAC6
:1003600030000019514132462B4603B0BDE8F04F32
:1003700000F060B90098012240000023D0EB020297
:1003800063EBE073009821464FEAE074B8EB00009D
:1003900061EB0401E9E783F000435BE781F0004192
:1003A00058E72DE9FE4F81EA030404F0004421F0F0
:1003B000004100944FF0000B23F0004350EA010489
:1003C0005ED052EA03045BD0C3F30A54C1F30A556A
:1003D0002C44A4F2F3340194A0FB0254C1F31301A2
:1003E00041F48011C3F3130343F4801301FB02446F
:1003F00000FB034E840A970A44EA815447EA835774
:10040000A4FB076802958D0A05FB07854FEA932C2C
:1004100004FB0C542705029D4FEA065847EA16379D
:10042000B5EB08056EEB070C870E920E47EA8117B5
:1004300042EA8312A7FB0201B6EB0B0164EB000456
:100440002B0D43EA0C335E1844EB1C50DA46514640
:10045000E7FB0201C5F313044FEA0B3343EA1453DD
:100460004FEA0432019C43EA0603A4F10C0402940F
:10047000009CCDE900B400F0ECF803B0BDE8F08FCB
:1004800000200146F9E7C10F80EAE0700844CA077E
:100490009623002100F0A0B800F0004230F00040A8
:1004A0000AD0C10D01F56071C0F3160042EA015196
:1004B000C20840071143704700200146704701F011
:1004C000004330B421F0004150EA010206D00A0D89
:1004D000A2F56072C1F31301002A02DC30BC0020D7
:1004E0007047440F44EAC104C100E01830BC00EB7F
:1004F000C25000F068B830B50B46014600202022FB
:10050000012409E021FA02F59D4205D303FA02F520
:10051000491B04FA02F52844151EA2F10102F1DC80
:1005200030BD2DE9F05F0546002092469B46884687
:100530000646814640241BE028464146474622465F
:1005400000F0B6F953465A46C01A914110D31146ED
:100550001846224600F016F82D1A67EB01084F46A0
:1005600022460120002100F00DF817EB00094E4152
:10057000201EA4F10104DFDC484631462A464346EA
:10058000BDE8F09F202A04DB203A00FA02F10020A7
:1005900070479140C2F1200320FA03F319439040C1
:1005A0007047202A06DBCB17203A41FA02F043EAD3
:1005B000E07306E041FA02F3D040C2F1200291401C
:1005C0000843194670470029A8BF7047401C4900DE
:1005D00008BF20F00100704710B4B0FA80FC00FAA8
:1005E0000CF050EA010404BF10BC704749B1CCF1D3
:1005F000200421FA04F411FA0CF118BF012121435F
:100600000843A3EB0C01CB1D4FEA00614FEA102019
:1006100042BF002010BC704700EBC35010440029BB
:10062000A4BF10BC7047401C490008BF20F0010067
:1006300010BC704710B5141E73F1000408DA401C9A
:1006400041F1000192185B411A4301D120F00100F1
:1006500010BD2DE9F04D92469B4611B1B1FA81F2E1
:1006600002E0B0FA80F220329046FFF78BFF04469A
:100670000F4640EA0A0041EA0B0153465A46084336
:1006800013D0114653EA010019D0C8F14002504678
:1006900000F00EF905460E46504659464246FFF711
:1006A00071FF084305D0012004E020463946BDE82B
:1006B000F08D0020054346EAE0762C4337430A9844
:1006C0006305E40AA0EB08000022FD0A44EA47544F
:1006D0000A3002D500200146E9E7010510196941F9
:1006E000DDE9084500196941BDE8F04DA2E72DE9B3
:1006F000F04D81EA030404F0004B21F0004514465C
:100700004FF0000A23F0004150EA050220D054EADD
:1007100001021DD0C5F30A570246C5F31303C1F306
:100720001300C1F30A5640F4801543F48013A7EB7D
:100730000608101BD64608F2FD3873EB050002D3FD
:1007400008F1010801E092185B41B8F1000F03DAEB
:1007500000200146BDE8F08D00204FF480110646D0
:1007600084460EE0171B73EB050705D3121B63EBE2
:10077000050306434CEA010C49084FEA3000921881
:100780005B4150EA0107EDD152EA030012D082EA40
:10079000040083EA0501084305D0101BAB4106D2D3
:1007A0000122002306E000224FF0004302E06FF038
:1007B000010253101AEB06004CEB085110EB0A0033
:1007C00041EB0B01BDE8F04DFFF734BF70B521F0F0
:1007D000004303430CD0C1F30A550024D5EB0405B4
:1007E00064EB0403D617AD1AB34102DB00200146C7
:1007F00070BD201841EB025170BDC1F30A52C1F324
:10080000130140F2FF3341F480119A4202DA0020D2
:100810000146704740F233439A42A2F2334202DC6F
:10082000524200F045B8FFF7ADBE000030B5041EDF
:1008300071F1000404DB4FF00044404264EB01011D
:10084000141E73F1000405DB1C464FF000435242B6
:1008500063EB04038B4208BF824230BD30B5041EF7
:1008600071F1000404DB4FF00044404264EB0101ED
:10087000141E73F1000405DB1C464FF00043524286
:1008800063EB0403994208BF904230BD064C074D0C
:1008900006E0E06840F0010394E807009847103450
:1008A000AC42F6D3FFF726FC683300088833000813
:1008B000202A04DB203A21FA02F00021704721FAB5
:1008C00002F3D040C2F1200291400843194670471C
:1008D0002DE9F04D00231A461B1A8A4103DB002044
:1008E0000146BDE8F08DC1F30A52C1F3130141F492
:1008F00080154FF0000BD10702D100186D41521E38
:100900000027044640F2FF11384601EB620A3E46DA
:100910008046024600204FF48011FFF7C9FFC2193C
:100920007141BB1846EB0100B4EB030C75EB000CF6
:1009300004D3E41A65EB000517460E46241908F1A6
:1009400001006D4180463428E3DDF91946EB0600CD
:10095000091BA84103D24FF0FF32134601E00022E9
:1009600013461BEB070046EB0A51BDE8F04DFFF7BD
:1009700061BE000010B5034800F008F80249088085
:1009800010BD00000028014014000020C06C80B29F
:100990007047FEE7704710B500F004F8BDE810405E
:1009A00000F054B810B588B00121022000F056FACA
:1009B0000121042000F060FAC020ADF804000420FA
:1009C0008DF8070001A91F4800F08EF805A800F077
:1009D0007BFF0020ADF814004FF6FF71ADF8181042
:1009E000ADF81A00ADF81600174C05A9204600F026
:1009F0001DFF00231A460321204600F0DFFD02A858
:100A000000F04AFE0A21ADF8101002A9204600F0BD
:100A1000FDFD0121204600F0B1FD012211462046D6
:100A200000F042FE0021204600F0D5FE064A47F6BF
:100A3000FF71243211800121204600F0A5FD08B08D
:100A400010BD0000000801400004004010B588B04F
:100A50000121042000F002FA0121082000F00CFA24
:100A6000C020ADF8040004208DF8070001A91C483F
:100A700000F03AF805A800F027FF0020ADF81400B8
:100A80004FF6FF71ADF81810ADF81A00ADF816006A
:100A9000144C05A9204600F0C9FE00231A46032184
:100AA000204600F08BFD02A800F0F6FD0A21ADF80B
:100AB000101002A9204600F0A9FD0121204600F0F7
:100AC0005DFD01221146204600F0EEFD002120468A
:100AD00000F081FE0121204600F056FD08B010BD57
:100AE000000C0140000800402DE9F0410022CC78C4
:100AF00004F00F03E40601D58C7823430C784FF003
:100B00000F0714F0FF0F4FF0010C1CD005680CFA12
:100B100002F40E882640A64211D1960007FA06F884
:100B200025EA080503FA06F848EA0505CE78282ED6
:100B300002D0482E02D002E0446100E00461521C61
:100B4000082AE4D305600A88FF2A1ED945680022D6
:100B500002F108060CFA06F40E882640A64210D1CF
:100B6000960007FA06F825EA080503FA06F848EAA7
:100B70000505CE78282E00D14461CE78482E00D1CC
:100B80000461521C082AE3D34560BDE8F08141614D
:100B9000704701617047FEE770B50A4C002525607B
:100BA0000948016821F070410160016841F040513D
:100BB0000160656000F00AF80120206000F006F88E
:100BC000256070BD98812142000C0140022002F096
:100BD00003B8000070B50A4C00252560094801687B
:100BE00021F070410160016841F04051016001262F
:100BF0006660FFF7EBFF2660FFF7E8FF256070BD3A
:100C000098812142000C01402DE9F04781460024E3
:100C10001548016821F070410160016841F0004110
:100C200001600025114E00274FF00108C6F89871A9
:100C3000FFF7CCFFC6F898816006040ED6F81C01B9
:100C400008B1641CE4B2FFF7C1FF6D1CEDB2082DC2
:100C5000ECD3B9F1000F04D0FFF79EFF2046BDE8AA
:100C6000F087FFF7B7FFF9E7000C01400080214251
:100C70002DE9F04105461448016821F070410160FA
:100C8000016841F040510160104E4FF00008C6F875
:100C9000988100240127280602D5C6F89C7101E03E
:100CA000C6F89C816806050EFFF790FFC6F898719C
:100CB000FFF78CFFC6F89881FFF788FF641CE4B249
:100CC000082CE8D3BDE8F081000C014000802142EF
:100CD00070B51248016821F070410160016841F06F
:100CE000405101600E4C0120C4F89C01D4F81C1145
:100CF00000290BD0C4F89801FFF768FF0025C4F85D
:100D00009C51D4F81C0118B1002070BD002070BDAA
:100D1000FFF75CFFC4F89851012070BD000C014042
:100D20000080214210B50B48016821F0704101603C
:100D3000016841F040510160074C00202060606074
:100D4000FFF744FF012020606060BDE81040FFF71E
:100D50003DBF0000000C01409881214270B5002485
:100D60001248016821F070410160016841F00041C2
:100D700001600F4D0126C5F89C61FFF727FFC5F8FC
:100D80009861FFF723FF09E0641CE4B2642C03D9E7
:100D9000FFF7C8FF002070BDFFF718FFD5F81C0152
:100DA0000028F1D1C5F89801012070BD000C014068
:100DB00000802142FEE7000008B5002141F61F40F7
:100DC00000F04EFB0121082000F056F84FF470406F
:100DD000ADF8000010208DF8030003208DF802000C
:100DE00069460248FFF780FE08BD0000000C014084
:100DF0007047000070B50F23C27801260178002AE1
:100E00001ED0144A126802F4E062C2F5E062120ACF
:100E1000C2F10404D3404578A54082781A402A43A1
:100E2000120101F1E02181F80024007800F01F0197
:100E30008E404009800000F1E020C0F8006170BDE4
:100E400001F01F0086404809800000F1E020C0F852
:100E5000806170BD0CED00E070470000054A00297C
:100E600003D0D1690143D1617047D1698143D16118
:100E70007047000000100240054A002903D0916924
:100E8000014391617047916981439161704700000E
:100E90000010024010B5264A516801F00C01254BA4
:100EA000002927D0042927D0082927D003605168BA
:100EB00001F0F0010909204B5C5C0168E1404160F0
:100EC000546804F4E064240A1C5D21FA04F484608C
:100ED000546804F46054E40A1B5DD940C160526850
:100EE00002F44042920B144B1B1F9A5CB1FBF2F1CF
:100EF000016110BD0360DAE70360D8E7516801F4CF
:100F00007011536803F48033022404EB914133B130
:100F100053689B0307D5094B59430160C7E7074B4B
:100F200059430160C3E7034B59430160BFE7000029
:100F30000010024000127A003000002000093D003D
:100F40002DE9F74F8AB005468946DFF8C08107A82A
:100F5000CDE9008008F11A0108AB03AA881F01F04F
:100F600055FEB8F80000C0057ED50398FFF78BFA50
:100F70006FF01D073946FFF761F90446C8F8040011
:100F80000498FFF780FA3946FFF758F90646C8F883
:100F900008000598FFF777FA3946FFF74FF98246C0
:100FA000C8F80C000698FFF76EFA3946FFF746F9C5
:100FB0000746C8F8100001212046FFF73FF95146C7
:100FC000FFF70AF982464FF0404421463046FFF7CA
:100FD00003F93946FFF700F95146FFF7A5F8FFF787
:100FE0005BFA01F08DFA4A4F4FF0663632463B46C7
:100FF000FFF7D7F9FFF763FA2860D8F80C00012152
:101000000546FFF71BF982462946FFF7E5F8054636
:10101000D8F8080021468346FFF7DEF85946FFF767
:10102000DBF82946FFF7D2F84FF07E51FFF77CF846
:10103000FFF732FA04460D460121D8F80400FFF705
:10104000FDF85946FFF7C8F883465046D8F8101007
:10105000FFF7C2F85946FFF767F8FFF71DFA224677
:101060002B4601F095FC00E04CE032463B46FFF792
:1010700098F9FFF724FAC9F80000D8F8101089464B
:101080004846FFF7A9F8D8F80C100446084609911D
:10109000FFF7A2F8D8F8081005468A465046FFF731
:1010A0009BF8D8F80410834688464046FFF794F82A
:1010B0005946FFF739F82946FFF788F82146FFF728
:1010C00085F8FFF7E9F904460D4649464046FFF723
:1010D00083F8804650460999FFF77EF84146FFF7AE
:1010E00023F80121FFF7AAF8FFF7D6F922462B468D
:1010F00001F04EFC32463B46FFF753F9FFF7DFF9AC
:101100000C9908600DB0BDE8F08F0000840000204D
:1011100066A64C4070B5032804D004280CD00024E7
:10112000204670BD094D284600F061FA04B2002146
:10113000284600F050FBF3E7054D284600F057FA2B
:1011400004B20021284600F046FBE9E70004004015
:1011500000080040704700F001B800000CB5002204
:10116000019200922748016841F4803101604FF4F8
:10117000A063016801F4003100910199491C0191BB
:10118000009911B901999942F3D10168890302D5F7
:101190000121009100E000920099012930D11A4903
:1011A0000A6842F010020A600A6822F007020A6028
:1011B0000A6842F002020A60416841604168416089
:1011C000416841F480614160416821F47C114160D3
:1011D000416841F4A8114160016841F080710160EB
:1011E00001688901FCD5416821F003014160416833
:1011F00041F0020141604168C1F381010229FAD145
:101200000CBD000000100240002002404FF0E02121
:10121000042804D0086920F00400086170470869B8
:1012200040F00400086170477047000010B50F4897
:10123000016841F00101016041680D4A11404160BF
:1012400001680C4A11400160016821F480210160AD
:10125000416821F4FE0141604FF41F018160FFF7F6
:101260007AFF05494FF00060086010BD0010024091
:101270000000FFF8FFFFF6FE08ED00E070B5048CFB
:1012800024F001040484058B048C25F0F3054FF64B
:10129000FF7606EA031313432B43104A90420ED005
:1012A0000F4A90420BD0B0F1804F08D00D4A9042C7
:1012B00005D00D4A904202D00C4A904205D124F04C
:1012C00002020A4342F0010104E024F00A020A4348
:1012D00042F001010383018470BD0000002C014035
:1012E000003401400004004000080040000C0040B1
:1012F000F0B5048C24F010040484068B048C4FF6A3
:10130000FF7505EA011726F4734605EA03333343F4
:1013100005EA02221A43104B98420ED00F4B984216
:101320000BD0B0F1804F08D00D4B984205D00D4B3B
:10133000984202D00C4B984205D124F02001394349
:1013400041F0100104E024F0A0030B4343F010012E
:1013500002830184F0BD0000002C014000340140F4
:101360000004004000080040000C0040F0B5048C70
:1013700024F480740484858B048C4FF6FF7707EA8D
:10138000012625F0F30507EA031313432B43104A04
:1013900090420ED00F4A90420BD0B0F1804F08D04F
:1013A0000D4A904205D00D4A904202D00C4A90421C
:1013B00005D124F40071314341F4807104E024F438
:1013C00020620A4342F4807183830184F0BD0000EF
:1013D000002C01400034014000040040000800409F
:1013E000000C0040F0B5048C24F480540484868BF7
:1013F000048C4FF6FF7505EA013726F4734605EABB
:101400000222324305EA03331343104A90420ED0BE
:101410000F4A90420BD0B0F1804F08D00D4A904255
:1014200005D00D4A904202D00C4A904205D124F4D6
:101430000051394341F4805104E024F402420A434C
:1014400042F4805183830184F0BD0000002C0140F0
:10145000003401400004004000080040000C00403F
:1014600030B589B004460D460121C802FFF704FDDE
:1014700001210520FFF700FD18228DF807204FF409
:101480001062ADF8042003228DF8062001A91A4845
:10149000FFF72AFBADF81C40ADF818500024ADF85A
:1014A0001E40ADF81A40154D06A9284600F0BEF9B9
:1014B0006021ADF808100121ADF80A10ADF8104018
:1014C000ADF80E4002A9284600F0F8F802A9284617
:1014D00000F03EF90821284600F034F9082128469A
:1014E00000F06AF90121284600F04EF80121284653
:1014F00000F056F809B030BD00080140002C014052
:1015000010B501218C07204600F073F8012804D1A2
:10151000054A06490648FFF713FD2046BDE810407E
:10152000012100F02EB80000080000200400002077
:101530000000002010B5074C0121204600F059F8AA
:10154000012805D12046BDE81040012100F019B85E
:1015500010BD00000004004010B5074C01212046DA
:1015600000F047F8012805D12046BDE810400121D0
:1015700000F007B810BD000000080040C943018218
:101580007047C94301827047002904D0018841F0A7
:10159000010101807047018821F00101018070473D
:1015A000002905D030F8441F41F400410180704704
:1015B00030F8441FC1F30E010180704770B50589F2
:1015C000048B068C25F007050D434FF6FC410C40BB
:1015D00040F201110C4326F022064FF6FF7101EA9A
:1015E00003111143314305810483018470BD808C54
:1015F000704702460020138A0B4092890A40002B54
:1016000002D0002A00D001207047000070B50546C6
:101610000C461D48854209D01C48854206D0B5F1CC
:10162000804F03D01A48854200D01A48208861882C
:10163000A288238960B1042813D008281AD028462C
:10164000FFF7D0FEE1882846BDE8704000F0E1B821
:101650002846FFF713FEE1882846BDE8704000F0F9
:10166000BCB82846FFF744FEE1882846BDE8704034
:1016700000F0BBB82846FFF779FEE1882846BDE8B0
:10168000704000F0BEB80000002C01400034014062
:101690000004004000080040002101804180012238
:1016A0008280C18001817047002A03D082890A4369
:1016B0008281704782898A438281704730B5028C6B
:1016C00022F001020284028C8388048B24F07004CF
:1016D00024F003050C882C4322F002020D891543E7
:1016E0004A882A43124DA8420BD0124DA84208D076
:1016F000114DA84205D0114DA84202D0104DA8426C
:101700000FD122F008054A892A4322F004058A886D
:101710002A4323F4807323F400738D891D43CB89FE
:101720002B4383800483C9888186028430BD0000F6
:10173000002C0140003401400040014000440140C1
:1017400000480140028B22F008020A4302837047DE
:1017500070B5028C22F480520284058C8288838BBF
:1017600023F4E04323F440760C884FF6FF7303EA3A
:101770000424344325F400550E8903EA06362E432B
:101780004D8803EA05353543094EB04202D0094E73
:10179000B04205D122F480468A8903EA821232439C
:1017A00082808483C988A0F84010058470BD000041
:1017B000002C014000340140828B22F400624FF67D
:1017C000FF7303EA012111438183704781867047CB
:1017D000A0F84010704781847047028B22F00C0201
:1017E0000283028B0A4302837047028B22F4406219
:1017F0000283028B4FF6FF7303EA01210A4302833F
:101800007047828B22F00C028283828B0A43828390
:101810007047828B22F440628283828B4FF6FF7383
:1018200003EA01210A4382837047000030B5028831
:101830001B4C1C4DA0420DD0A8420BD0B0F1804FE4
:1018400008D0194B984205D0184B984202D0184B3B
:10185000984203D122F070034A881A43154B9842EC
:1018600006D0154B984203D022F44073CA881A431D
:1018700002808A8882850A880285A0420AD0A8420E
:1018800008D00E4A904205D00D4A904202D00D4A2F
:10189000904201D1097A01860121818230BD000088
:1018A000002C0140003401400004004000080040CA
:1018B000000C0040001000400014004000400140B7
:1018C00000440140004801404FF6FF718180002133
:1018D0000180C180418001727047000070B5164CD4
:1018E00040F22551204600F083F800280ED0204613
:1018F00000F018F9C1B2114A9088030406D44404D8
:101900004FF0000307D50A2901D0938070BD40F441
:101910000040908070BD0D290AD0094DC0F30D0420
:101920002955401C80B29080C728F3D9938070BDA0
:1019300040F48040908070BD003801404400002099
:10194000B400002070B51E4D40F2255631462846A1
:1019500000F04EF8012831D1284600F0E3F8C2B279
:10196000184C00200121237833B1012B09D0022B20
:101970000ED0032B18D01BE0FF2A19D12170607004
:1019800016E0FE2A01D0207012E0022020700FE045
:101990000C486378801DC2545B1CDAB26270062A60
:1019A00006D30320207003E0FE2A01D12070A1702D
:1019B00031462846BDE8704000F006B870BD000012
:1019C000004800404400002040F66A120A0A012143
:1019D0009140C94301807047002904D0818941F4B6
:1019E000005181817047818921F4005181817047C4
:1019F00070B5002440F66A12C1F3421301F01F05CE
:101A0000012606FA05F2012B0CD0022B0DD0838A99
:101A10001340090A8E40008830400BB100B1012408
:101A2000204670BD83891340F3E7038A1340F0E733
:101A300010B540F66A13C1F3421301F01F040121EF
:101A4000A140012B07D0022B07D014303AB1026815
:101A50000A43026010BD0C30F8E71030F6E7026868
:101A60008A43026010BD000030B585B004460D46C3
:101A7000208A4CF6FF710840E98801432182A08941
:101A80004EF6F3110840A9882A8911436A89024356
:101A90001143A181A08A4FF6FF410840A989014363
:101AA000A1826846FFF7F6F91D48844201D10398E8
:101AB00000E00298A189090408D500EBC00101EB00
:101AC000001029684900B0FBF1F007E000EBC0010D
:101AD00001EB001029688900B0FBF1F06422B0FB33
:101AE000F2F109010B096FF018056B4300EB83005D
:101AF000A3891D044FF0320307D503EBC000B0FBF0
:101B0000F2F000F00700084306E003EB0010B0FB22
:101B1000F2F000F00F000843208105B030BD000056
:101B2000003801408088C0F308007047FEE70000DD
:101B30000FB4054B10B503A9044A029800F05CF9F4
:101B400010BC5DF814FB0000912D0008540000202B
:101B5000490050EAC12018BF04204A0D18BF40F0C8
:101B6000010040F2FF72B2EB515F08BF40F002008B
:101B7000012808BF052070472DE9F0414F1E00EBFA
:101B8000C7010446D1E9000115461E4637F006029A
:101B90000DD02A463346FEF704FC7F1E04EBC70334
:101BA000D3E90023FEF756FB37F00602F1D1022FEE
:101BB00025D0042F13D0062F18BFBDE8F0812A4688
:101BC0003346FEF7EEFBD4E90A23FEF743FB2A4631
:101BD0003346FEF7E6FBD4E90823FEF73BFB2A4633
:101BE0003346FEF7DEFBD4E90623FEF733FB2A4635
:101BF0003346FEF7D6FBD4E90423FEF72BFB2A4637
:101C00003346FEF7CEFBD4E90223FEF723FB2A4638
:101C10003346FEF7C6FBD4E90023BDE8F041FEF7EA
:101C200019BB0122FEF7D2BDFEF714BB00221346FA
:101C300010461146FEF75BBD024A00201107FEF771
:101C4000C5BD000001FDFFFF02E008C8121F08C16A
:101C5000002AFAD170477047002001E001C1121F2D
:101C6000002AFBD17047000001490860704700005E
:101C7000B00000202DE9FF5F82B00021DDE90430D3
:101C8000020DDDF840B0034318D044F61050A2F224
:101C9000FF3242431514119801281FD0A5EB0B0009
:101CA000401C5FEA000A4FF000064E4FDFF8389103
:101CB000B046504615D5CAF1000413E0119801242E
:101CC0004AA3012801D16FEA0B010298119AC0E9D9
:101CD0000031C0E9024206B0BDE8F09FCBF1000040
:101CE000DFE704460021404A491842EB0450CDE9A1
:101CF000001012E0E00707D032463B464046494616
:101D0000FEF74FFB8046894632463B461046194651
:101D1000FEF747FB06460F466410002CEAD1DDE9CA
:101D20000401DDE90023BAF1000F06DAFEF739FB02
:101D300042464B46FEF735FB05E0FEF7D8FC42462F
:101D40004B46FEF7D4FC04460E460022284BFEF715
:101D500085FD03D84FF0FF30014607E00022254BF8
:101D600020463146FEF776FAFEF747FD102409E0DB
:101D7000002C0ADB0A220023FEF7D3FB039B303240
:101D80001A55641E50EA0102F2D1641C039AC4F190
:101D900011031444119A012A03D0012208430DD1E2
:101DA0000AE0084304D000204FF0110B119072E7B5
:101DB000A3EB0B056D1E0DE05B4504DD4FF000024B
:101DC00005F1010504E003DA4FF00002A5F1010579
:101DD000002AECD002981199C0E90231C0E900450F
:101DE00079E70000000014400000F03F30000000E0
:101DF0000000F0430000E03F2DE9FF4F95B09A4608
:101E0000884606460025EEE1252877D1002427469E
:101E1000F94A0121039400E0044316F8013F203BF6
:101E200001FA03F01042F7D130782A2811D06FF070
:101E30002F033078A0F13002092A16D8039A44F013
:101E4000020402EB820203EB42021044761C039070
:101E5000EFE758F8042B0392002A03DA504244F4C7
:101E60000054039044F00204761C30782E2816D1DA
:101E700016F8010F44F004042A280DD06FF02F0249
:101E80003078A0F13003092B09D807EB870302EB68
:101E90004303C718761CF3E758F8047B761C3078A8
:101EA0006C280FD006DC4C2817D068280DD06A2883
:101EB00014D104E0742810D07A280FD10DE044F436
:101EC00000140AE044F4801401E044F440147278F1
:101ED000824202D104F58014761C761C3078662884
:101EE0000BD013DC582877D009DC002875D04528A2
:101EF000F6D04628F4D047281AD193E118E0632899
:101F000035D0642879D0652812D18BE1702873D040
:101F100008DC6728F1D069286FD06E280DD06F28B3
:101F200006D1ACE073282CD0752874D0782853D013
:101F30005246179990476D1C54E1C4F30250022891
:101F400009D003280DD0D8F8001004280DD00D605A
:101F500008F1040846E1D8F80010EA17C1E9005278
:101F6000F6E7D8F800100D80F2E70D70F0E718F8EA
:101F7000041B8DF8001000208DF80100EB460120B5
:101F800003E058F804BB4FF0FF3061074FF0000149
:101F900002D40DE009F101018946B9420FDA814509
:101FA000F8DB1BF809100029F4D108E009F1010160
:101FB00089468142FADB1BF809100029F6D1039803
:101FC0005346A0EB090721463846179A00F080FADD
:101FD000284400EB090507E044E008E10DE01BF8A8
:101FE000010B524617999047B9F10109F7D25346B0
:101FF00021463846179AF2E039E00A21C4F302522A
:102000004FF0000B0091022A06D058F8040BC117BC
:10201000032A09D00AE023E008F1070020F00702B4
:10202000F2E80201904605E000B2C117042A01D18E
:1020300040B2C117002906DA0A460021404261EB8E
:1020400002012D2202E0220504D52B228DF8042066
:10205000012203E0E20701D02022F7E7914657E092
:102060000A2100E010214FF0000B00910BE010213D
:102070004FF0000B44F004040827009103E008200F
:102080004FF0000B0090C4F30252022A05D058F81A
:10209000040B0021032A08D008E008F1070020F013
:1020A0000702F2E80201904603E080B2042A00D160
:1020B000C0B24FF0000922072AD53278702A07D023
:1020C000DDF800C08CF0100C5CEA0B0C05D00EE0C3
:1020D00040228DF80420012208E050EA010306D0D6
:1020E00030238DF804308DF8052002229146009BA4
:1020F00083F0080353EA0B030AD150EA010201D12D
:10210000620705D530228DF804204FF001097F1EAB
:102110003278582A04D039A20C920CAA02920BE011
:102120003BA2F9E75B46009AFEF7FBF90C9B9B5C30
:10213000029A521E0292137050EA0102F2D10298E2
:1021400004A9081A00F1200B600702D524F480349A
:1021500000E001275F4502DDA7EB0B0000E0002057
:1021600000EB0B01009003984944401A0390E003F0
:1021700006D453462146179A039800F0A9F905445E
:10218000002706E001A85246C05D179990476D1CD4
:102190007F1C4F45F6DBE0030CD553462146179ACA
:1021A000039800F095F9054404E030205246179951
:1021B00090476D1C0099481E00900029F5DC08E04E
:1021C0000298029952460078491C0291179990474B
:1021D0006D1CBBF10001ABF1010BF1DC5BE100F028
:1021E00065F90544761C307800287FF40DAE19B0EF
:1021F0002846BDE8F08F0000092801003031323355
:102200003435363738396162636465660000000032
:10221000303132333435363738394142434445461C
:1022200000000000600700D4062708F1070020F036
:102230000700F0E80223804603F0004C5FEA0C0040
:1022400001D097A009E0200501D596A005E0E007A0
:1022500001D095A001E0AFF24C001390307823F04C
:10226000004365280CD006DC452809D046281DD03F
:1022700047287FD13BE0662818D067287AD136E01E
:102280000021112F01DB112000E0781CCDE90001B5
:1022900004A90CA8FFF7EEFCDDE90D010C9A4FF044
:1022A000000B07F10109109200914EE04FF0004041
:1022B0000097CDE9011004A90CA8FFF7DBFCDDE9CC
:1022C0000D020C9B0F994FF0000B9146109300925A
:1022D00011B9791C00EB0109B7EB090003D4C0F177
:1022E000FF3B07F10109A9EB0700019042E0012F34
:1022F00000DA01270021112F01DD112000E038460E
:10230000CDE9000104A90CA8FFF7B4FCDDE90D013B
:102310000C9A00914FF0000BB946109221070FD490
:10232000009A4A4503DA914601E0A9F10109B9F1A1
:10233000010F05DD109AA9F10101515C3029F4D09B
:10234000B84202DA10F1040F03DA0121CDE90110DD
:1023500010E0002803DC8344A9EB000102E0411CEB
:10236000494500DD8946A0EB0B00401C01904FF071
:1023700000400290200705D40198484502DB4FF049
:10238000FF30019000208DF84B0002980DF14B07B3
:10239000B0F1004F25D002200C902B200D90029818
:1023A00000280CDA404202902D200D9007E00A210F
:1023B0000298FEF7A0F83031029007F8011D0C9941
:1023C000481E0C900029F2DC02980028EFD1791EFB
:1023D0000D980870307800F0200040F0450007F8B4
:1023E000020D11A8C01BC01D02901398007800B107
:1023F000012000EB0901019801EBE0710298014412
:102400000398401A401E0390E00306D45346214629
:10241000179A039800F05CF805441398007818B1F7
:102420005246179990476D1CE00323D55346214629
:10243000179A039800F04CF805441BE0BBF1000F1D
:1024400007DB0098584504DD1098179910F80B0029
:1024500001E0179930205246904701980BF1010B8B
:10246000401E05F10105019004D12E205246179916
:1024700090476D1CB9F10001A9F10109DEDC05E00E
:1024800017F8010B5246179990476D1C0299481E88
:1024900002900029F4DC53462146179A03989EE6E1
:1024A0002D0000002B000000200000002DE9F0416D
:1024B000044600251E461746880404D405E0394624
:1024C0002020B0476D1C641EF9D52846BDE8F08178
:1024D0002DE9F041044600251E469046C80301D56B
:1024E000302700E02027880404D505E0414638461F
:1024F000B0476D1C641EF9D52846BDE8F081000088
:102500002DE9F04D8D4F21F0004A86B005460C466E
:10251000BA452ADBAAEB070028430AD0884882453F
:1025200001DC1AD1CDB106B02846BDE8F04DFFF769
:1025300078BB844A844B2846FDF733FF07460E4696
:10254000824A834B28462146FDF72BFF06B03A46C8
:102550003346BDE8F04DFDF77DBE0120FFF784FB5B
:1025600006B0BDE8F04DFFF761BB7A48824542DA1C
:10257000BAF1795F0BDA2846FFF7EAFA042808BFB8
:10258000FFF75AFB284606B02146BDE8F08D2A46E3
:102590000B461046FDF705FF834602466E480E4681
:1025A0000B4606217844FFF7E7FA5A463346FDF713
:1025B000F8FE804669488A465A46334604217844E4
:1025C000FFF7DAFA5A463346FDF7EBFE00223B46A8
:1025D000FDF740FE02460B4640465146FEF787F89F
:1025E0002A462346FDF7DDFE06B02A462346BDE80F
:1025F000F04DFDF72FBE284624F0004100223D4655
:102600003B46FDF7CBFE4FF0FF32FEF7DFF8064604
:10261000024653480F460B4606217844FFF7ACFAB2
:1026200032463B46FDF7BDFECDE900014D4832463E
:102630003B4604217844FFF79FFA32463B46FDF7BC
:10264000B0FE00222B46FDF705FE83460291304680
:10265000394600F072FD804643480D46504517DC70
:10266000DDE900015A46029BFEF741F842462B463F
:10267000FDF797FE42462B46FDF7ECFD0122FEF7E3
:10268000A5F8304A304BFDF786FE304A304B4CE01F
:102690004FF0000A52460B464046FDF7DBFDCDE900
:1026A000031052462B4610461946FDF77AFE324675
:1026B0003B46FDF773FEDDE90332FEF718F80646E8
:1026C0000F46DDE900015A46029BFEF710F88346EB
:1026D0000091012230463946FEF778F8194A1A4B24
:1026E000FDF75CFE06460F46012240462946FEF7EE
:1026F0006DF85A46009BFDF754FE32463B46FDF707
:102700004AFE06460F46012250462946FEF75EF86D
:102710000E4DDFF858802A464346FDF73FFE32460D
:102720003B46FDF73BFE2A464346FDF737FE002CAD
:10273000D8BF81F0004106B0BDE8F08D0000F03F49
:102740000000F07F075C143326A6913C182D4454FA
:10275000FB21F93F0000E03FD00C0000E60C000038
:102760005A0C0000700C00003333EF3FFB21E93FAF
:102770002DE9F84F04460D4621F0004000917349C1
:10278000814211DC7249884201DC06D12CB120461D
:102790002946BDE8F84FFFF744BA6E48002DCCBF7C
:1027A0006D496E49BDE8F88F6D49814211DD6D4973
:1027B0008142D8BF4FF0FF366DDD20462946FFF736
:1027C000C7F9042808BFFFF737FA20462946BDE8B5
:1027D000F88F6549654F25F00045814233DD644936
:1027E000814219DD002632464FF0804320462946BB
:1027F000FDF730FD80468A46012220462946FDF736
:10280000E5FF00223B46FDF7C6FD42465346FDF775
:102810006EFF04460D463EE001260022BA463B46C6
:1028200020462946FDF716FD80460F4600225346F6
:1028300020462946FDF7AFFD42463B46FDF757FFD0
:1028400004460D4627E04B4981421BDDDFF828A1F5
:1028500002260022534620462946FDF7A2FD00220B
:102860003B46FDF7F7FC80460F46002253462046C4
:102870002946FDF790FD42463B46FDF738FF0446EA
:102880000D4608E0032622462B4600203B49FDF773
:102890002EFF04460D4622462B4610461946FDF7EC
:1028A00080FD8B46824602460B46FDF77AFD0746C1
:1028B0000246334888460B4606217844FFF75CF908
:1028C00052465B46FDF76DFD82462E488B463A46E2
:1028D000434605217844FFF74FF93A464346FDF752
:1028E00060FD02460B46002E504659460CDAFDF7B5
:1028F000B1FC22462B46FDF754FD01B022462B4683
:10290000BDE8F04FFDF74ABDFDF7A4FC22462B467B
:10291000FDF747FD1C4A7A4402EBC603D3E90023C6
:10292000FDF739FD22462B46FDF735FD174A7A445F
:1029300002EBC603D3E90023FDF730FD009A002A1D
:10294000B8BF81F00041BDE8F88F000000001044DE
:102950000000F07F182D4454FB21F93FFB21F9BF03
:102960000000DC3F0000203E0000F33F0000F03F8D
:102970000000E63F008003400000F83F0000F0BF89
:10298000720A0000300A0000CE090000960900001B
:102990002DE9F04D9446CCF1000423F000464CEABA
:1029A0000404594F46EAD4749A46884621F00042FE
:1029B000BC4206D8454240EA050442EAD474BC420F
:1029C00004D9BDE8F04D6246FFF72EB9AAF1405593
:1029D000A5F17F6555EA0C040BD0022404EAAA7421
:1029E0004A4DDFF82CE144EAD87452EA000B04D0D7
:1029F0000CE0BDE8F04DFFF7BBBE002C14BF012C6E
:102A0000BDE8F08D022C30D0032C32D056EA0C0BEE
:102A10000AD0BE4220D1BA4209D126F0804622F027
:102A200080423346114617E000291ADB25E0DFF823
:102A3000E4B0FB44002C04BFDBE90001BDE8F08DED
:102A4000012C02BFDBE9000181F00041BDE8F08DFF
:102A5000022C0AD0032C0CD0BA4212D1B8F1000FCC
:102A60000BDA2A482C49BDE8F08D28462B49BDE8F1
:102A7000F08D28467146BDE8F08D24482849BDE810
:102A8000F08D921B12153C2AC4BF204F244E10DC3F
:102A9000BAF1000FBEBF12F13C0F00273E4608DB23
:102AA0006246FDF724FE21F00041FFF761FE074674
:102AB0000E4694B1012C08BF86F000460DD0194A8D
:102AC000194B022C3846314615D0FDF764FC2A46D6
:102AD000BDE8F04D114BFDF75EBC002213463846B1
:102AE0003146FDF7A3FE04BF0220FFF7BDF83846CC
:102AF0003146BDE8F08DFDF74EFC2A46BDE8F04DAD
:102B0000064BFDF74BBC00000000F07F182D44542D
:102B1000FB2109C02A090000FB21F9BFFB21094064
:102B2000FB21F93F075C143326A6A13C70B504468F
:102B3000E07800F0C00500F03F006178094EC90759
:102B400007D0C30800F00701491C32680AB11846D3
:102B500090476078000703D5716809B1A8098847D4
:102B6000002070BD7C01002010B56FF00400FEF75E
:102B70004DFB094809490068B0FBF1F00849C0B2B3
:102B8000087000EB4002C2EBC0104FF6FF7202EA81
:102B9000C000488010BD00001800002000127A001C
:102BA000400000200B49498848434FF0E02148612C
:102BB00000238B61086940F0010008610869C207C1
:102BC00001D0C003FAD5086920F0010008618B61CB
:102BD00070470000400000200B49097848434FF03F
:102BE000E021486100238B61086940F00100086121
:102BF0000869C20701D0C003FAD5086920F00100B6
:102C000008618B6170470000400000202DE9FF4FF4
:102C10008DB01646DDE91A52074688460024A146C3
:102C2000A5F80090DFF864B105A99BF80E0000F04C
:102C30007DF94FF0FF3A18B1504611B0BDE8F08F62
:102C4000BBF80A3013F0140F61D09DF817009DF8FF
:102C500014109DF8162040EA01609DF81510090433
:102C600041EA0221084330609DF81B109DF81820AE
:102C70009DF81A4041EA02619DF81920120442EAC7
:102C80000422114371609DF81F209DF81C409DF89F
:102C90001EC042EA04629DF81D40240444EA0C244C
:102CA0002243B2609DF823409DF820C09DF822B0D9
:102CB00044EA0C6C9DF82140240444EA0B244CEABD
:102CC000040CC6F80CC010240014019008140290E3
:102CD000101403904FEA2C4004900198029940434D
:102CE00001FB01010398049A404302FB02000844DF
:102CF000A0F17060B0F1007F05D900F06DF9A5F882
:102D00000090504699E7288840F480702880590642
:102D100005A818D50219065D517841EA0621A8F8E0
:102D20000010D178967841EA0621A8F8021051796E
:102D3000127941EA0221A8F80410A41DE4B22988FE
:102D400041F00801298013F4C07F15D00119065DF8
:102D50004A7842EA06223A80CA788E7842EA062207
:102D60007A804A79097942EA0121B980A41DE4B246
:102D7000298841F070012980990702D02044FFF78B
:102D8000D5FE109800F0D8F9002056E77C0100200D
:102D900004490A885206FCD5024AC1B2121D1180AC
:102DA00070470000003801402DE9F04106460F460B
:102DB00014461D46FDF78CFFB0B17006000EFDF7FE
:102DC00057FFFDF7CBFF90B13846FDF751FFFDF7F8
:102DD000C5FFFDF77DFF012000EB4600C0B2FDF707
:102DE00047FFFDF7BBFF0FE00120BDE8F081FDF7D5
:102DF00099FF0120F9E7012C0CD00120FDF704FF19
:102E000028706D1C641EE4B2002CF4D1FDF78AFF1B
:102E10000020EAE70020FDF7F7FE2870F1E72DE932
:102E2000F04104460F4616461D46FDF751FF68B1B6
:102E30006006000EFDF71CFFFDF790FF48B1384615
:102E4000FDF716FFFDF78AFF00240DE00120BDE825
:102E5000F081FDF767FF0120F9E7285DFDF708FF26
:102E6000FDF77CFF30B1641CB442F6DBFDF75AFF7E
:102E70000020ECE7FDF756FF0020E8E708B5FDF776
:102E80008AFD4FF4165000F07FF9FFF76DFEFDF755
:102E900093FF214C4FF47A612046FEF797FC40F6F1
:102EA000B8312046FEF794FC01210820FDF7E4FF2D
:102EB0004FF47040ADF8000010208DF8030003209F
:102EC0008DF80200154C69462046FDF70DFEA11451
:102ED0002046FDF75EFE61142046FDF758FE4FF4D4
:102EE00080412046FDF755FE4FF400412046FDF796
:102EF0004EFE0B4C0320FEF70DF920600420FEF778
:102F000009F96060024607A02168FEF711FE6420FF
:102F1000FFF748FEEEE70000002C0140000C0140E6
:102F20000C00002025642C25640A00002DE9F843DC
:102F3000054689461746274E4FF0FF3896F824007D
:102F400000280DD0B07A68B130686B460222817AD1
:102F500070680078FFF728FF30B14046BDE8F8837D
:102F60004046FBE74046F9E79DF801009DF8001058
:102F700040EA0124AC4203D2002038704046EDE71D
:102F800070684188B4EB510F12D9316800786B46F4
:102F9000497C0122FFF708FF08B14046DEE79DF8B3
:102FA0000000C00604D500F017F86FF00100D5E767
:102FB0003068EAB24B46C17A70680078FFF7F4FED9
:102FC00008B14046CAE7B4FBF5F0401E3870002057
:102FD000C4E7000058000020F8B5564D4FF0FF360A
:102FE000A87A00280CD00024009428686B4601229F
:102FF000C17B68680078FFF712FF18B13046F8BD52
:103000003046F8BD28686B4601224179686800782F
:10301000FFF705FF08B13046F8BD28686B4601226E
:10302000017968680078FFF7FAFE08B13046F8BD0C
:1030300095F8240078B30C20009028686B46012294
:10304000017968680078FFF7EAFE08B13046F8BDFC
:10305000C0200090A87AC00701D0E0200090286826
:103060006B460122017968680078FFF7D8FE08B145
:103070003046F8BD687C10B10220009000E000945A
:1030800028686B460122C17B68680078FFF7C7FE9D
:1030900010B13046F8BD0BE0009428686B46012261
:1030A000417968680078FFF7BAFEA0B33046F1E7CF
:1030B0000420009028686B46012201796868007836
:1030C000FFF7ADFE08B13046E4E7A87C78B9A87AEE
:1030D000C0070CD06020009028686B46012201795F
:1030E00068680078FFF79BFE20B13046D2E74020A9
:1030F0000090F1E7687C10B10120009000E000949E
:1031000028686B460122C17B68680078FFF787FE5C
:1031100010B13046BEE70BE02868064B012241792A
:10312000686810330078FFF77AFE08B13046B1E7DF
:103130000020AFE75800002070472DE9F041064617
:103140000F46FDF7C5FB041E0D4618BF012028439E
:1031500020F00040C0F17F6000F1E040C00F0ED0D1
:10316000301C18BF0120384320F00040C0F17F60C0
:1031700000F1E040C00F04BF0120FEF775FD2046BE
:103180002946BDE8F081000070B586B005460121F2
:1031900044F20400FDF770FE4FF40070ADF8140027
:1031A00003248DF8164018218DF817101C4E05A920
:1031B0003046FDF799FC3115ADF8141004218DF857
:1031C000171005A93046FDF78FFC25208DF800006B
:1031D0008DF801408DF8024001208DF8030068460B
:1031E000FDF708FE01950020ADF80800ADF80A00D3
:1031F000ADF80C00ADF810000C20ADF80E00094C35
:1032000001A92046FEF730FC012240F2255120465C
:10321000FEF70EFC01212046FEF7DEFB06B070BD76
:1032200000080140003801406800000476005401A5
:10323000F7FD000175191A0C6A231B1C1F207274FC
:10324000433B4138393A6B6C376F06246D6E700022
:103250008300000000080000000100183200050093
:10326000000020410000D242295C0F3E9A99993E0D
:103270003333733F295C0F3E555555555555C53F62
:103280007D6FEB0312D6D4BF5544880E55C1C93F9C
:103290003B8F68B52882A4BF88B20175E0EF493F33
:1032A00009F7FD0DE13D023F4B2D8A1C273A03C073
:1032B000C88A599CE52A004059018D1B6C06E6BF5F
:1032C00082922EB1C5B8B33F4FBB610567ACDD3FFD
:1032D000182D4454FB21E93F9BF681D20B73EF3F3D
:1032E000182D4454FB21F93FE2652F227F2B7A3CB5
:1032F000075C143326A6813CBDCBF07A8807703C6E
:10330000075C143326A6913CC4EB98999999C9BFE0
:10331000711623FEC671BCBF6D9A74AFF2B0B3BF15
:103320009AFDDE522DDEADBF2F6C6A2C44B4A2BFD5
:103330000D5555555555D53FFF8300922449C23F41
:103340006E204CC5CD45B73F513DD0A0660DB13F75
:10335000EB0D76244B7BA93F11DA22E33AAD903F87
:10336000000000000000000088330008000000207A
:10337000B4000000481C00083C340008B4000020E1
:10338000DC040000581C00080000000000000000E1
:10339000000000000000000000000000000000002D
:1033A000007E56030000000000000000010203043C
:1033B00006070809020406080000000001020304D1
:1033C00001020304060708090000000000000000D5
:1033D00000000000000000000000000000000000ED
:1033E000343200082832000800000000000000000D
:1033F00000000000000000000000000000000000CD
:103400000000000000000000503200080000000032
:103410000000803F000000000000000000000000ED
:10342000000000000000000000000000FF0000009D
:0C343000FF000000010000000000000090
:04000005080000ED02
:00000001FF
