:020000040800F2
:10000000080A002005010008DB110008C90D0008DE
:10001000D9110008130B0008711E00080000000031
:100020000000000000000000000000003919000876
:10003000190D0008000000007D1600080D1A0008C8
:100040001F0100081F0100081F0100081F01000810
:100050001F0100081F0100081F0100081F01000800
:100060001F0100081F0100081F0100081F010008F0
:100070001F0100081F0100081F0100081F010008E0
:100080001F0100081F010008F50A00081F010008F1
:100090001F0100081F0100081F0100081F010008C0
:1000A0001F0100081F0100081F0100081F010008B0
:1000B000BD1A0008F11A0008151B00081F010008EE
:1000C0001F0100081F0100081F0100081F01000890
:1000D0001F010008211C00081F010008891C0008DE
:1000E0001F0100081F0100081F010008DFF810D0E1
:1000F00000F08CFC00480047ED400008AFF30080A2
:10010000080A00200648804706480047FEE7FEE749
:10011000FEE7FEE7FEE7FEE7FEE7FEE7FEE7FEE7B7
:10012000111A0008ED0000082DE9F0410024061B1B
:10013000254671F1000605DA01240027D0EB0700FF
:1001400067EB0101161E73F1000605DA0027D2EBFA
:100150000702012567EB030300F0A3FA86460E466B
:1001600017469C46AC4204D00025D0EB050E65EB4B
:10017000010624B10020D2EB000760EB030C7046AF
:1001800031463A466346BDE8F081D2B201E000F85C
:10019000012B491EFBD270470022F6E710B513462B
:1001A0000A4604461946FFF7F0FF204610BD30B559
:1001B00004460020034600E05B1C934203D2E05C4F
:1001C000CD5C401BF8D030BDF0B480EA0102D40F02
:1001D0004200B2EB410F02D20246084611464A00E5
:1001E00042D0C30DDDB2C1F3C752AD1A202D35DAAE
:1001F000C1F3160141F4000204B15242C5F12006D8
:1002000002FA06F12A411044B3EBD05F23D0C4B107
:10021000012DA0EBC35009DCF0BC4FF0004202EA14
:10022000C352DBB200F5000000F096BA400000F1C6
:10023000807000EBC350A0F1807040EAD17049009B
:1002400009E0490841EAC071A0EBC35000F5000085
:10025000400800EBC350F0BC00F075BA61420122C7
:1002600002EB4101001BF6E7F0BC704781F0004152
:10027000AAE780F00040A7E780EA010210B502F08B
:100280000043400022D04A001FD0010E01EB126152
:10029000C0F35600C2F3560240F4000042F40002DC
:1002A000A0FB022000047F39140400D0401C50EA57
:1002B000124001D44000491EC2B20C0604EBD0101B
:1002C000401C4008802A02D003E0002010BD20F02E
:1002D0000100002900DA0020184310BD30B480EA84
:1002E000010202F0004530F0004221F0004013D03E
:1002F00090B1C30DD40DC2F31601C0F31600E41A79
:1003000041F4000140F400027D34914201D3641CA9
:1003100000E04900002C02DA30BC002070474FF4A6
:1003200000000023914201D3891A034340084FEA99
:100330004101F7D151B1914202D14FF0004105E0A6
:1003400002D24FF0010101E06FF0010103EBC45054
:10035000284430BC00F0F7B9420005D0C0F3C752C2
:100360005242914201DC0020704700EBC1507047BF
:100370002DE9FE4F804681EA0300C00F0C46009035
:1003800021F0004123F00045B8EB0200A94105D25D
:100390004046214690461C460B46024623F000404C
:1003A000104347D0270DC7F30A00C3F30A51029048
:1003B000401A019040286BDAC3F3130040F4801B0D
:1003C0000098924620B10023D2EB030A63EB0B0B9B
:1003D00001985946C0F14002504600F093F9064694
:1003E0000D4650465946019A00F09BF910EB080063
:1003F0006141002487EA115284EAE7731A4340D02E
:10040000009A62B3019A012A4FEA075215DC001BD9
:1004100061EB02014FF0004202EA0752CDE90042CF
:10042000001C41F5801132462B4600F0D2F903B092
:10043000BDE8F08F40462146F9E7001B61EB020161
:10044000001C41F5801300185B412018A2F500172D
:1004500047EB030140EAD570B6196D4111E06D0814
:100460004FEA360645EAC0754FEA0752001B61EBBA
:100470000201001C41F5801149084FEA30000019C3
:10048000514132462B4603B0BDE8F04F00F092B91F
:100490000098012240000023D0EB020263EBE073DE
:1004A000009821464FEAE074B8EB000061EB0401CC
:1004B000E9E783F000435BE781F0004158E72DE96D
:1004C000FE4F81EA030404F0004421F0004100944F
:1004D0004FF0000B23F0004350EA01045ED052EAD3
:1004E00003045BD0C3F30A54C1F30A552C44A4F2AD
:1004F000F3340194A0FB0254C1F3130141F48011C1
:10050000C3F3130343F4801301FB024400FB034EC7
:10051000840A970A44EA815447EA8357A4FB076890
:1005200002958D0A05FB07854FEA932C04FB0C54BA
:100530002705029D4FEA065847EA1637B5EB08052E
:100540006EEB070C870E920E47EA811742EA831280
:10055000A7FB0201B6EB0B0164EB00042B0D43EA91
:100560000C335E1844EB1C50DA465146E7FB02019F
:10057000C5F313044FEA0B3343EA14534FEA043232
:10058000019C43EA0603A4F10C040294009CCDE90B
:1005900000B400F01EF903B0BDE8F08F0020014662
:1005A000F9E7C10F80EAE0700844CA0796230021EA
:1005B00000F0D2B896230022114600F0CDB800F02A
:1005C000004220F00040C10DC0F3160040F40000CE
:1005D0007F2901DA00207047962903DCC1F19601DA
:1005E000C84001E096398840002AF4D04042704764
:1005F00020F00040C10DC0F3160040F400007F2938
:1006000001DA00207047962903DCC1F19601C84049
:10061000704796398840704700F0004230F0004043
:100620000AD0C10D01F56071C0F3160042EA015114
:10063000C20840071143704700200146704701F08F
:10064000004330B421F0004150EA010206D00A0D07
:10065000A2F56072C1F31301002A02DC30BC002055
:100660007047440F44EAC104C100E01830BC00EBFD
:10067000C25000F068B830B50B4601460020202279
:10068000012409E021FA02F59D4205D303FA02F59F
:10069000491B04FA02F52844151EA2F10102F1DCFF
:1006A00030BD2DE9F05F0546002092469B46884606
:1006B0000646814640241BE02846414647462246DE
:1006C00000F0B6F953465A46C01A914110D311466C
:1006D0001846224600F016F82D1A67EB01084F461F
:1006E00022460120002100F00DF817EB00094E41D1
:1006F000201EA4F10104DFDC484631462A46434669
:10070000BDE8F09F202A04DB203A00FA02F1002025
:1007100070479140C2F1200320FA03F3194390403F
:100720007047202A06DBCB17203A41FA02F043EA51
:10073000E07306E041FA02F3D040C2F1200291409A
:100740000843194670470029A8BF7047401C49005C
:1007500008BF20F00100704710B4B0FA80FC00FA26
:100760000CF050EA010404BF10BC704749B1CCF151
:10077000200421FA04F411FA0CF118BF01212143DD
:100780000843A3EB0C01CB1D4FEA00614FEA102098
:1007900042BF002010BC704700EBC350104400293A
:1007A000A4BF10BC7047401C490008BF20F00100E6
:1007B00010BC704710B5141E73F1000408DA401C19
:1007C00041F1000192185B411A4301D120F0010070
:1007D00010BD2DE9F04D92469B4611B1B1FA81F260
:1007E00002E0B0FA80F220329046FFF78BFF044619
:1007F0000F4640EA0A0041EA0B0153465A460843B5
:1008000013D0114653EA010019D0C8F140025046F6
:1008100000F00EF905460E46504659464246FFF78F
:1008200071FF084305D0012004E020463946BDE8A9
:10083000F08D0020054346EAE0762C4337430A98C2
:100840006305E40AA0EB08000022FD0A44EA4754CD
:100850000A3002D500200146E9E701051019694177
:10086000DDE9084500196941BDE8F04DA2E72DE931
:10087000F04D81EA030404F0004B21F000451446DA
:100880004FF0000A23F0004150EA050220D054EA5C
:1008900001021DD0C5F30A570246C5F31303C1F385
:1008A0001300C1F30A5640F4801543F48013A7EBFC
:1008B0000608101BD64608F2FD3873EB050002D37C
:1008C00008F1010801E092185B41B8F1000F03DA6A
:1008D00000200146BDE8F08D00204FF4801106464F
:1008E00084460EE0171B73EB050705D3121B63EB61
:1008F000050306434CEA010C49084FEA3000921800
:100900005B4150EA0107EDD152EA030012D082EABE
:10091000040083EA0501084305D0101BAB4106D251
:100920000122002306E000224FF0004302E06FF0B6
:10093000010253101AEB06004CEB085110EB0A00B1
:1009400041EB0B01BDE8F04DFFF734BF70B521F06E
:10095000004303430CD0C1F30A550024D5EB040532
:1009600064EB0403D617AD1AB34102DB0020014645
:1009700070BD201841EB025170BDC1F30A52C1F3A2
:10098000130140F2FF3341F480119A4202DA002051
:100990000146704740F233439A42A2F2334202DCEE
:1009A000524200F045B8FFF7ADBE000030B5041E5E
:1009B00071F1000404DB4FF00044404264EB01019C
:1009C000141E73F1000405DB1C464FF00043524235
:1009D00063EB04038B4208BF824230BD30B5041E76
:1009E00071F1000404DB4FF00044404264EB01016C
:1009F000141E73F1000405DB1C464FF00043524205
:100A000063EB0403994208BF904230BD064C074D8A
:100A100006E0E06840F0010394E8070098471034CE
:100A2000AC42F6D3FFF766FB107D0008307D00086E
:100A3000202A04DB203A21FA02F00021704721FA33
:100A400002F3D040C2F1200291400843194670479A
:100A50002DE9F04D00231A461B1A8A4103DB0020C2
:100A60000146BDE8F08DC1F30A52C1F3130141F410
:100A700080154FF0000BD10702D100186D41521EB6
:100A80000027044640F2FF11384601EB620A3E4659
:100A90008046024600204FF48011FFF7C9FFC219BB
:100AA0007141BB1846EB0100B4EB030C75EB000C75
:100AB00004D3E41A65EB000517460E46241908F125
:100AC00001006D4180463428E3DDF91946EB06004C
:100AD000091BA84103D24FF0FF32134601E0002268
:100AE00013461BEB070046EB0A51BDE8F04DFFF73C
:100AF00061BE000010B5034800F008F80249088004
:100B000010BD0000002801400C000020C06C80B225
:100B10007047FEE708B5002000906B460122752162
:100B2000682003F043FA29A001F0A4F99DF8000021
:100B3000682809D02E4801682E4A01F4E06111436B
:100B40000160BFF34F8FFEE703F03EFC00283CD16D
:100B5000782004F07BF910B91CA001F08BF9782003
:100B600003F03EFB10B924A001F084F9C82004F082
:100B70002BF910B92AA001F07DF902F089FB10B918
:100B800031A001F077F93D4803F07AFA02F08EFDCA
:100B900010B93BA001F06EF940F2731002F038FA80
:100BA00010B941A001F066F9C82002F0C3FC10B9E9
:100BB00047A001F05FF904F0DBF9012004F01CF814
:100BC000002802D14BA001F055F908BD6D70755F8A
:100BD0007365745F73656E736F7220636F6D706C95
:100BE000657465202E2E2E2E2E2E0D0A000000007C
:100BF0000CED00E00400FA056D70755F636F6E66C2
:100C000069677572655F6669666F20636F6D706C8A
:100C1000657465202E2E2E2E2E2E0D0A000000004B
:100C20006D70755F7365745F73616D706C655F7215
:100C300061746520636F6D706C657465202E2E2E57
:100C40002E2E2E0D0A000000646D705F6C6F6164C3
:100C50005F6D6F74696F6E5F6472697665725F66EF
:100C600069726D7761726520636F6D706C65746514
:100C7000202E2E2E2E2E2E0D0A0000009C0000206D
:100C8000646D705F7365745F6F7269656E746174B3
:100C9000696F6E20636F6D706C657465202E2E2EEB
:100CA0002E2E2E0D0A000000646D705F656E61626D
:100CB0006C655F6665617475726520636F6D706CDD
:100CC000657465202E2E2E2E2E2E0D0A000000009B
:100CD000646D705F7365745F6669666F5F7261747F
:100CE0006520636F6D706C657465202E2E2E2E2E20
:100CF0002E0D0A006D70755F7365745F646D705FB3
:100D0000737461746520636F6D706C657465202EFB
:100D10002E2E2E2E2E0D0A0070472DE9F0410022B6
:100D2000CC7804F00F03E40601D58C7823430C78CB
:100D30004FF00F0714F0FF0F4FF0010C1CD00568A7
:100D40000CFA02F40E882640A64211D1960007FA4A
:100D500006F825EA080503FA06F848EA0505CE78FC
:100D6000282E02D0482E02D002E0446100E0046147
:100D7000521C082AE4D305600A88FF2A1ED9456858
:100D8000002202F108060CFA06F40E882640A6425C
:100D900010D1960007FA06F825EA080503FA06F8C6
:100DA00048EA0505CE78282E00D14461CE78482E39
:100DB00000D10461521C082AE3D34560BDE8F081EC
:100DC0004161704701617047FEE770B504460D460A
:100DD00000F0D0F8204600F09DF800F011F9284608
:100DE00000F098F800F00CF900F0C4F8641CE0B2D0
:100DF00000F090F800F004F9002000F057F80446E5
:100E000000F0E2F8204670BD70B50A4C0025256060
:100E10000948016821F070410160016841F04051CA
:100E20000160656000F00AF80120206000F006F81B
:100E3000256070BD98812142000C0140022002F023
:100E4000AFB8000038B50121082000F027FCC02011
:100E5000ADF8000010208DF8030003208DF802008B
:100E6000044C69462046FFF758FFC0212046FFF793
:100E7000A9FF38BD000C014070B50A4C0025256063
:100E80000948016821F070410160016841F040515A
:100E9000016001266660FFF7D1FF2660FFF7CEFFF5
:100EA000256070BD98812142000C01402DE9F0477A
:100EB000814600241548016821F0704101600168F5
:100EC00041F0004101600025114E00274FF001085C
:100ED000C6F89871FFF7B2FFC6F898816006040E55
:100EE000D6F81C0108B1641CE4B2FFF7A7FF6D1C23
:100EF000EDB2082DECD3B9F1000F04D0FFF784FF59
:100F00002046BDE8F087FFF7B7FFF9E7000C014086
:100F1000008021422DE9F04105461448016821F086
:100F200070410160016841F040510160104E4FF086
:100F30000008C6F8988100240127280602D5C6F8C3
:100F40009C7101E0C6F89C816806050EFFF776FFEC
:100F5000C6F89871FFF772FFC6F89881FFF76EFF29
:100F6000641CE4B2082CE8D3BDE8F081000C014019
:100F70000080214270B51248016821F07041016083
:100F8000016841F0405101600E4C0120C4F89C0101
:100F9000D4F81C1100290BD0C4F89801FFF74EFFBC
:100FA0000025C4F89C51D4F81C0118B1002070BD74
:100FB000002070BDFFF742FFC4F89851012070BDBA
:100FC000000C01400080214210B50B48016821F05F
:100FD00070410160016841F040510160074C002000
:100FE00020606060FFF72AFF012020606060BDE89C
:100FF0001040FFF723BF0000000C01409881214200
:1010000070B500241248016821F070410160016848
:1010100041F0004101600F4D0126C5F89C61FFF7CA
:101020000DFFC5F89861FFF709FF09E0641CE4B201
:10103000642C03D9FFF7C8FF002070BDFFF7FEFE48
:10104000D5F81C010028F1D1C5F89801012070BD28
:10105000000C01400080214210B51446FFF7B5FE98
:101060002070012010BD2DE9F84305460E461746B5
:1010700098466A4631462846FFF7EEFF0124BC40F9
:10108000B8F1000F04D09DF8000044EA000202E02D
:101090009DF80020A243D2B200923146284600F0CB
:1010A00031F8BDE8F8832DE9F8430646DDF82080E5
:1010B0000F4614461D466A4639463046FFF7CCFFB8
:1010C000F0B1611CFF20C4F1080200FA01F12A44CA
:1010D000521ED0400143C8B2C5F1080108FA01F818
:1010E00008F0FF03C4F10701CB409DF80020024047
:1010F0001A4300923946304600F004F8BDE8F88300
:101100000020FBE707B502AB012200F001F80EBD9D
:101110002DE9F04180460F4616461D460024FFF794
:1011200029FF4046FFF7F6FEFFF76AFF3846FFF754
:10113000F1FEFFF765FF06E0285DFFF7EBFEFFF726
:101140005FFF641CE4B2B442F6D3FFF73DFF012019
:10115000BDE8F08110B5022000F011F8032000F086
:1011600020F8002000F014F8002000F02FF80020F4
:1011700000F026F8BDE81040002000F01BB808B5CC
:101180000323009002226B21D020FFF78CFF08BDC3
:1011900008B50223009004221C21D020FFF783FF12
:1011A00008BD08B50223009004221B21D020FFF7C0
:1011B0007AFF08BD034601223721D020FFF753BF35
:1011C000034605226A21D020FFF74DBF03460622C1
:1011D0006B21D020FFF747BFFEE7704770B50F23A4
:1011E000C27801260178002A1ED0144A126802F43F
:1011F000E062C2F5E062120AC2F10404D34045780D
:10120000A54082781A402A43120101F1E02181F8B9
:101210000024007800F01F018E404009800000F19A
:10122000E020C0F8006170BD01F01F008640480951
:10123000800000F1E020C0F8806170BD0CED00E09E
:1012400030B40021084C0022002004EBC1031A54E2
:10125000401CC0B28028FAD3491CC9B20829F3D374
:1012600030BC00F01FB900008401002030B5CB086D
:1012700001F007040125A540ECB2074D05EBC005C0
:10128000C808002A285C02D02043E85430BDC0437F
:101290002043C043E85430BD8401002070B50546AA
:1012A00000240D4E280604D502213046FFF78AFDA2
:1012B00003E002213046FFF783FD01213046FFF7AE
:1012C00081FD01213046FFF77BFD6806050E641C99
:1012D000E4B2082CE6D370BD0008014010B5094CFB
:1012E00002212046FFF76EFD01212046FFF76AFD2F
:1012F00002212046FFF764FD2046BDE81040012191
:10130000FFF75EBD0008014010B5074C02212046E2
:10131000FFF756FD01212046FFF754FD2046BDE8AA
:1013200010400221FFF74EBD0008014010B5074CE8
:1013300002212046FFF746FD01212046FFF742FD2E
:101340002046BDE810400121FFF73ABD00080140EA
:1013500070B505460C46FFF7C1FF7820FFF79EFFEA
:10136000FFF7E4FF1CB14020FFF798FF02E00020E8
:10137000FFF794FFFFF7DAFF2846FFF78FFFFFF72D
:10138000D5FFBDE87040FFF7BFBF000038B50121B1
:10139000042000F083F90320ADF8000014218DF83B
:1013A00003108DF802003A4C69462046FFF7B5FC61
:1013B00003212046FFF706FD0021AE20FFF7C8FFFE
:1013C00000210846FFF7C4FF00211020FFF7C0FFEF
:1013D00000214020FFF7BCFF00218120FFF7B8FF6C
:1013E0000021CF20FFF7B4FF0021A120FFF7B0FFBD
:1013F0000021C820FFF7ACFF0021A620FFF7A8FFBF
:101400000021A820FFF7A4FF00213F20FFF7A0FF45
:101410000021D320FFF79CFF00210846FFF798FF2B
:101420000021D520FFF794FF00218020FFF790FFD7
:101430000021D920FFF78CFF0021F120FFF788FF62
:101440000021DA20FFF784FF00211220FFF780FF40
:101450000021DB20FFF77CFF00213020FFF778FF21
:1014600000212020FFF774FF00210220FFF770FF0A
:1014700000218D20FFF76CFF00211420FFF768FF8B
:10148000FFF7DEFE0021AF20FFF762FF38BD00004E
:10149000000801400346012000E05843491EC9B23C
:1014A000FBD2704770B50025174E05F1B000C0B2F1
:1014B0000021FFF74DFF00210846FFF749FF0021FB
:1014C0001020FFF745FFFFF709FF7820FFF7E6FE42
:1014D000FFF72CFF4020FFF7E1FEFFF727FF002476
:1014E00006EBC4000121405DFFF732FFFFF71EFF4E
:1014F000641CE4B2802CF3D3FFF706FF6D1CEDB241
:10150000082DD2D370BD0000840100202DE9FC4FCE
:10151000814688461D46CDF80090C346082D03D06D
:10152000680704D0012003E00620019006E00020B7
:1015300000EBD50069084843C0B20190203A02F0A0
:10154000FF0A00264EE0082D14D00C2D19D0102DC6
:101550001ED0182D49D127490AEBCA0001EB8000A3
:10156000845D0027E00718D0414648460B9AFFF7F4
:101570007DFE19E020490AEB4A0001EB4000845D42
:10158000EFE71E490AEB4A0001EB8000845DE8E7C3
:101590001B4800EB0A10845DE3E70B9838B3002288
:1015A00041464846FFF762FE640808F1010808F06A
:1015B000FF087F1CFFB2082FD4D309F1010909F0FD
:1015C000FF09082D0BD00098A9EB0000B0EB550FD8
:1015D00005D1DDF800900BF1080B0BF0FF0BD8469E
:1015E000761CF6B201988642ADD3BDE8FC8F01228D
:1015F000D6E70000486A0008BC5D0008E45F000808
:10160000586400082DE9F84F8146DDE90AB88A469A
:1016100016461F46002E08DB5B462B2251464846E5
:10162000CDF80080FFF772FF08E05B462D2251469F
:101630004846CDF80080FFF769FF764200240A256E
:1016400018E0381B401EC1B20A20FFF723FFB6FB8B
:10165000F0F0B0FBF5F105FB110209EBC400083016
:101660003032C0B25B465146CDF80080FFF74EFFE6
:10167000641CE4B2BC42E4D3BDE8F88F70470000BC
:10168000054A002903D0D1690143D1617047D1696E
:101690008143D1617047000000100240054A0029D3
:1016A00003D09169014391617047916981439161D0
:1016B000704700000010024010B5264A516801F042
:1016C0000C01254B002927D0042927D0082927D031
:1016D0000360516801F0F0010909204B5C5C01686E
:1016E000E1404160546804F4E064240A1C5D21FA7E
:1016F00004F48460546804F46054E40A1B5DD94027
:10170000C160526802F44042920B144B1B1F9A5C5A
:10171000B1FBF2F1016110BD0360DAE70360D8E7C5
:10172000516801F47011536803F48033022404EB10
:10173000914133B153689B0307D5094B594301606D
:10174000C7E7074B59430160C3E7034B59430160A7
:10175000BFE700000010024000127A0028000020BD
:1017600000093D002DE9F74F8AB005468946DFF8AC
:10177000C08107A8CDE9008008F11A0108AB03AACF
:10178000881F01F08FFDB8F80000C0057ED50398D2
:10179000FEF707FF6FF01D073946FEF7DDFD044633
:1017A000C8F804000498FEF7FCFE3946FEF7D4FDA5
:1017B0000646C8F808000598FEF7F3FE3946FEF71E
:1017C000CBFD8246C8F80C000698FEF7EAFE3946C3
:1017D000FEF7C2FD0746C8F8100001212046FEF7BB
:1017E000BBFD5146FEF748FD82464FF0404421467E
:1017F0003046FEF741FD3946FEF73EFD5146FEF705
:10180000E3FCFEF709FF01F05FF84A4F4FF0663640
:1018100032463B46FEF753FEFEF711FF2860D8F82C
:101820000C0001210546FEF797FD82462946FEF78A
:1018300023FD0546D8F8080021468346FEF71CFD27
:101840005946FEF719FD2946FEF710FD4FF07E516F
:10185000FEF7BAFCFEF7E0FE04460D460121D8F87B
:101860000400FEF779FD5946FEF706FD8346504613
:10187000D8F81010FEF700FD5946FEF7A5FCFEF75C
:10188000CBFE22462B4601F067FA00E04CE03246E0
:101890003B46FEF714FEFEF7D2FEC9F80000D8F86A
:1018A000101089464846FEF7E7FCD8F80C100446AD
:1018B00008460991FEF7E0FCD8F8081005468A466C
:1018C0005046FEF7D9FCD8F80410834688464046B7
:1018D000FEF7D2FC5946FEF777FC2946FEF7C6FC18
:1018E0002146FEF7C3FCFEF797FE04460D46494627
:1018F0004046FEF7C1FC804650460999FEF7BCFC05
:101900004146FEF761FC0121FEF726FDFEF784FE4D
:1019100022462B4601F020FA32463B46FEF7CFFD29
:10192000FEF78DFE0C9908600DB0BDE8F08F000049
:101930007C00002066A64C40704700F001B8000013
:101940000CB50022019200922748016841F48031D1
:1019500001604FF4A063016801F400310091019926
:10196000491C0191009911B901999942F3D101687B
:10197000890302D50121009100E00092009901291C
:1019800030D11A490A6842F010020A600A6822F04F
:1019900007020A600A6842F002020A604168416078
:1019A00041684160416841F480614160416821F4CF
:1019B0007C114160416841F4A8114160016841F027
:1019C0008071016001688901FCD5416821F0030143
:1019D0004160416841F0020141604168C1F3810109
:1019E0000229FAD10CBD0000001002400020024084
:1019F0004FF0E021042804D0086920F004000861B9
:101A00007047086940F004000861704770470000A3
:101A100010B50F48016841F00101016041680D4AAD
:101A20001140416001680C4A11400160016821F4D5
:101A300080210160416821F4FE0141604FF41F01E3
:101A40008160FFF77AFF05494FF00060086010BD24
:101A5000001002400000FFF8FFFFF6FE08ED00E076
:101A60007FB501210846FFF70BFE4FF6FF70ADF87A
:101A700008000024ADF80440ADF80A40ADF8064077
:101A80004FF0804501A9284600F07CF80122412151
:101A9000284600F06CF80121284600F050F81C2080
:101AA0008DF800008DF8014003208DF80200012020
:101AB0008DF803006846FFF791FB7FBD10B501214B
:101AC0008C07204600F047F8012804D1054A064952
:101AD0000648FFF747FE2046BDE81040012100F010
:101AE0002BB80000080000200400002000000020A7
:101AF00010B5074C0121204600F02DF8012805D132
:101B00002046BDE81040012100F016B810BD0000CD
:101B10000004004010B5074C0121204600F01BF8DE
:101B2000012805D12046BDE81040012100F004B88D
:101B300010BD000000080040C94301827047002921
:101B400004D0018841F0010101807047018821F033
:101B500001010180704702460020138A0B409289E0
:101B60000A40002B02D0002A00D001207047002A32
:101B700003D082890A438281704782898A438281A5
:101B80007047000030B502881B4C1C4DA0420DD0A0
:101B9000A8420BD0B0F1804F08D0194B984205D025
:101BA000184B984202D0184B984203D122F0700390
:101BB0004A881A43154B984206D0154B984203D0D9
:101BC00022F44073CA881A4302808A8882850A8870
:101BD0000285A0420AD0A84208D00E4A904205D001
:101BE0000D4A904202D00D4A904201D1097A0186F5
:101BF0000121818230BD0000002C014000340140F1
:101C00000004004000080040000C004000100040AC
:101C100000140040004001400044014000480140E1
:101C200070B5164C40F22551204600F083F800288C
:101C30000ED0204600F018F9C1B2114A9088030472
:101C400006D444044FF0000307D50A2901D093803D
:101C500070BD40F40040908070BD0D290AD0094D40
:101C6000C0F30D042955401C80B29080C728F3D9D9
:101C7000938070BD40F48040908070BD003801407A
:101C80003C000020AC00002070B51E4D40F22556EF
:101C90003146284600F04EF8012831D1284600F0A0
:101CA000E3F8C2B2184C00200121237833B1012B94
:101CB00009D0022B0ED0032B18D01BE0FF2A19D11C
:101CC0002170607016E0FE2A01D0207012E0022020
:101CD00020700FE00C486378801DC2545B1CDAB2A0
:101CE0006270062A06D30320207003E0FE2A01D189
:101CF0002070A17031462846BDE8704000F006B85B
:101D000070BD0000004800403C00002040F66A1210
:101D10000A0A01219140C94301807047002904D07B
:101D2000818941F4005181817047818921F40051FA
:101D30008181704770B5002440F66A12C1F34213E6
:101D400001F01F05012606FA05F2012B0CD0022B2B
:101D50000DD0838A1340090A8E40008830400BB1B1
:101D600000B10124204670BD83891340F3E7038A44
:101D70001340F0E710B540F66A13C1F3421301F0C7
:101D80001F040121A140012B07D0022B07D01430E2
:101D90003AB102680A43026010BD0C30F8E7103017
:101DA000F6E702688A43026010BD000030B585B0D6
:101DB00004460D46208A4CF6FF710840E98801432D
:101DC0002182A0894EF6F3110840A9882A8911437F
:101DD0006A8902431143A181A08A4FF6FF4108405E
:101DE000A9890143A1826846FFF766FC1D48844229
:101DF00001D1039800E00298A189090408D500EBFD
:101E0000C00101EB001029684900B0FBF1F007E0C8
:101E100000EBC00101EB001029688900B0FBF1F074
:101E20006422B0FBF2F109010B096FF018056B4356
:101E300000EB8300A3891D044FF0320307D503EBA9
:101E4000C000B0FBF2F000F00700084306E003EB2F
:101E50000010B0FBF2F000F00F000843208105B045
:101E600030BD0000003801408088C0F30800704792
:101E7000FEE700000FB4054B10B503A9044A029811
:101E800000F05CF910BC5DF814FB0000353A000866
:101E90004C000020490050EAC12018BF04204A0D20
:101EA00018BF40F0010040F2FF72B2EB515F08BF73
:101EB00040F00200012808BF052070472DE9F041DD
:101EC0004F1E00EBC7010446D1E9000115461E462E
:101ED00037F006020DD02A463346FEF7F0FA7F1E91
:101EE00004EBC703D3E90023FEF742FA37F00602FA
:101EF000F1D1022F25D0042F13D0062F18BFBDE833
:101F0000F0812A463346FEF7DAFAD4E90A23FEF7CF
:101F10002FFA2A463346FEF7D2FAD4E90823FEF711
:101F200027FA2A463346FEF7CAFAD4E90623FEF713
:101F30001FFA2A463346FEF7C2FAD4E90423FEF715
:101F400017FA2A463346FEF7BAFAD4E90223FEF717
:101F50000FFA2A463346FEF7B2FAD4E90023BDE869
:101F6000F041FEF705BA0122FEF7F0BCFEF700BA19
:101F70000022134610461146FEF779BC024A0020A3
:101F80001107FEF7E3BC000001FDFFFF02E008C8F7
:101F9000121F08C1002AFAD170477047002001E0E3
:101FA00001C1121F002AFBD17047000001490860DF
:101FB00070470000A80000202DE9FF5F82B00021DB
:101FC000DDE90430020DDDF840B0034318D044F6DB
:101FD0001050A2F2FF3242431514119801281FD06D
:101FE000A5EB0B00401C5FEA000A4FF000064E4FC5
:101FF000DFF83891B046504615D5CAF1000413E019
:10200000119801244AA3012801D16FEA0B0102981B
:10201000119AC0E90031C0E9024206B0BDE8F09F64
:10202000CBF10000DFE704460021404A491842EBAB
:102030000450CDE9001012E0E00707D032463B46DD
:1020400040464946FEF73BFA8046894632463B46C3
:1020500010461946FEF733FA06460F466410002C68
:10206000EAD1DDE90401DDE90023BAF1000F06DA67
:10207000FEF725FA42464B46FEF721FA05E0FEF749
:10208000F6FB42464B46FEF7F2FB04460E460022A4
:10209000284BFEF7A3FC03D84FF0FF30014607E0C2
:1020A0000022254B20463146FEF762F9FEF765FC1B
:1020B000102409E0002C0ADB0A220023FEF7F1FAC3
:1020C000039B30321A55641E50EA0102F2D1641C9F
:1020D000039AC4F111031444119A012A03D0012276
:1020E00008430DD10AE0084304D000204FF0110B43
:1020F000119072E7A3EB0B056D1E0DE05B4504DD4F
:102100004FF0000205F1010504E003DA4FF0000290
:10211000A5F10105002AECD002981199C0E902311D
:10212000C0E9004579E70000000014400000F03FDE
:10213000300000000000F0430000E03F2DE9FF4FB9
:1021400095B09A46884606460025EEE1252877D1C7
:1021500000242746F94A0121039400E0044316F8BD
:10216000013F203B01FA03F01042F7D130782A28D2
:1021700011D06FF02F033078A0F13002092A16D861
:10218000039A44F0020402EB820203EB4202104481
:10219000761C0390EFE758F8042B0392002A03DA29
:1021A000504244F40054039044F00204761C30780A
:1021B0002E2816D116F8010F44F004042A280DD059
:1021C0006FF02F023078A0F13003092B09D807EB0C
:1021D000870302EB4303C718761CF3E758F8047B28
:1021E000761C30786C280FD006DC4C2817D0682875
:1021F0000DD06A2814D104E0742810D07A280FD1A9
:102200000DE044F400140AE044F4801401E044F4C6
:1022100040147278824202D104F58014761C761C38
:10222000307866280BD013DC582877D009DC0028DA
:1022300075D04528F6D04628F4D047281AD193E126
:1022400018E0632835D0642879D0652812D18BE155
:10225000702873D008DC6728F1D069286FD06E2809
:102260000DD06F2806D1ACE073282CD0752874D01F
:10227000782853D05246179990476D1C54E1C4F307
:102280000250022809D003280DD0D8F800100428E5
:102290000DD00D6008F1040846E1D8F80010EA17E7
:1022A000C1E90052F6E7D8F800100D80F2E70D7092
:1022B000F0E718F8041B8DF8001000208DF80100DD
:1022C000EB46012003E058F804BB4FF0FF306107F4
:1022D0004FF0000102D40DE009F101018946B94235
:1022E0000FDA8145F8DB1BF809100029F4D108E06A
:1022F00009F1010189468142FADB1BF80910002926
:10230000F6D103985346A0EB090721463846179AA1
:1023100000F080FA284400EB090507E044E008E1FA
:102320000DE01BF8010B524617999047B9F10109CE
:10233000F7D2534621463846179AF2E039E00A218F
:10234000C4F302524FF0000B0091022A06D058F855
:10235000040BC117032A09D00AE023E008F10700A3
:1023600020F00702F2E80201904605E000B2C11732
:10237000042A01D140B2C117002906DA0A46002119
:10238000404261EB02012D2202E0220504D52B22FE
:102390008DF80420012203E0E20701D02022F7E7B4
:1023A000914657E00A2100E010214FF0000B009108
:1023B0000BE010214FF0000B44F0040408270091BB
:1023C00003E008204FF0000B0090C4F30252022AF1
:1023D00005D058F8040B0021032A08D008E008F1C2
:1023E000070020F00702F2E80201904603E080B205
:1023F000042A00D1C0B24FF0000922072AD5327852
:10240000702A07D0DDF800C08CF0100C5CEA0B0CD1
:1024100005D00EE040228DF80420012208E050EAA9
:10242000010306D030238DF804308DF805200222F8
:102430009146009B83F0080353EA0B030AD150EA4C
:10244000010201D1620705D530228DF804204FF03A
:1024500001097F1E3278582A04D039A20C920CAAA6
:1024600002920BE03BA2F9E75B46009AFEF719F9EE
:102470000C9B9B5C029A521E0292137050EA01025E
:10248000F2D1029804A9081A00F1200B600702D5C6
:1024900024F4803400E001275F4502DDA7EB0B0048
:1024A00000E0002000EB0B01009003984944401A23
:1024B0000390E00306D453462146179A039800F090
:1024C000A9F90544002706E001A85246C05D179906
:1024D00090476D1C7F1C4F45F6DBE0030CD553463F
:1024E0002146179A039800F095F9054404E030203E
:1024F0005246179990476D1C0099481E009000297C
:10250000F5DC08E00298029952460078491C0291D5
:10251000179990476D1CBBF10001ABF1010BF1DC89
:102520005BE100F065F90544761C307800287FF403
:102530000DAE19B02846BDE8F08F00000928010053
:102540003031323334353637383961626364656629
:1025500000000000303132333435363738394142EB
:102560004344454600000000600700D4062708F1F8
:10257000070020F00700F0E80223804603F0004C3B
:102580005FEA0C0001D097A009E0200501D596A0D4
:1025900005E0E00701D095A001E0AFF24C001390F8
:1025A000307823F0004365280CD006DC452809D09C
:1025B00046281DD047287FD13BE0662818D06728E1
:1025C0007AD136E00021112F01DB112000E0781CC8
:1025D000CDE9000104A90CA8FFF7EEFCDDE90D012F
:1025E0000C9A4FF0000B07F10109109200914EE098
:1025F0004FF000400097CDE9011004A90CA8FFF7A7
:10260000DBFCDDE90D020C9B0F994FF0000B9146AE
:102610001093009211B9791C00EB0109B7EB090086
:1026200003D4C0F1FF3B07F10109A9EB07000190BA
:1026300042E0012F00DA01270021112F01DD1120D6
:1026400000E03846CDE9000104A90CA8FFF7B4FC6E
:10265000DDE90D010C9A00914FF0000BB946109284
:1026600021070FD4009A4A4503DA914601E0A9F107
:102670000109B9F1010F05DD109AA9F10101515CC1
:102680003029F4D0B84202DA10F1040F03DA012144
:10269000CDE9011010E0002803DC8344A9EB000120
:1026A00002E0411C494500DD8946A0EB0B00401CBF
:1026B00001904FF000400290200705D40198484552
:1026C00002DB4FF0FF30019000208DF84B000298A4
:1026D0000DF14B07B0F1004F25D002200C902B20BC
:1026E0000D90029800280CDA404202902D200D90A7
:1026F00007E00A210298FDF7BEFF3031029007F88B
:10270000011D0C99481E0C900029F2DC029800284B
:10271000EFD1791E0D980870307800F0200040F05D
:10272000450007F8020D11A8C01BC01D02901398A8
:10273000007800B1012000EB0901019801EBE07184
:10274000029801440398401A401E0390E00306D407
:1027500053462146179A039800F05CF805441398F5
:10276000007818B15246179990476D1CE00323D5A5
:1027700053462146179A039800F04CF805441BE095
:10278000BBF1000F07DB0098584504DD109817993E
:1027900010F80B0001E0179930205246904701983D
:1027A0000BF1010B401E05F10105019004D12E2013
:1027B0005246179990476D1CB9F10001A9F1010922
:1027C000DEDC05E017F8010B5246179990476D1CA7
:1027D0000299481E02900029F4DC53462146179ABC
:1027E00003989EE62D0000002B0000002000000052
:1027F0002DE9F041044600251E461746880404D4FE
:1028000005E039462020B0476D1C641EF9D52846E6
:10281000BDE8F0812DE9F041044600251E469046B2
:10282000C80301D5302700E02027880404D505E03F
:1028300041463846B0476D1C641EF9D52846BDE8B0
:10284000F08100002DE9FE4F0746884600256846C6
:1028500001F0FCF800246FF00F0AE946012657F852
:10286000240058F82410401A00D54042FDF799FE84
:102870005146FDF771FD59F8241011F0FF4F0ED0AD
:10288000FDF72CFD4FF07E51FDF7F0FC20F00040ED
:102890000A4988420BDD06FA04F0054307E00849BF
:1028A00008440849884202D306FA04F00543641C30
:1028B000032CD4DB2846BDE8FE8F0000295C0F3EC8
:1028C000666666C19A99D9002DE9F04D8D4F21F0C9
:1028D000004A86B005460C46BA452ADBAAEB07003B
:1028E00028430AD08848824501DC1AD1CDB106B010
:1028F0002846BDE8F04DFFF736BB844A844B284696
:10290000FDF7DDFD07460E46824A834B28462146E9
:10291000FDF7D5FD06B03A463346BDE8F04DFDF76C
:1029200027BD0120FFF742FB06B0BDE8F04DFFF7E1
:102930001FBB7A48824542DABAF1795F0BDA284642
:10294000FFF7A8FA042808BFFFF718FB284606B0CF
:102950002146BDE8F08D2A460B461046FDF7AFFD37
:10296000834602466E480E460B4606217844FFF722
:10297000A5FA5A463346FDF7A2FD804669488A46C5
:102980005A46334604217844FFF798FA5A463346AC
:10299000FDF795FD00223B46FDF7EAFC02460B469B
:1029A00040465146FDF763FF2A462346FDF787FD63
:1029B00006B02A462346BDE8F04DFDF7D9BC2846AF
:1029C00024F0004100223D463B46FDF775FD4FF0E7
:1029D000FF32FDF7BBFF0646024653480F460B4643
:1029E00006217844FFF76AFA32463B46FDF767FD59
:1029F000CDE900014D4832463B4604217844FFF7BB
:102A00005DFA32463B46FDF75AFD00222B46FDF7A4
:102A1000AFFC834602913046394602F035FB8046D2
:102A200043480D46504517DCDDE900015A46029B3C
:102A3000FDF71DFF42462B46FDF741FD42462B4662
:102A4000FDF796FC0122FDF781FF304A304BFDF780
:102A500030FD304A304B4CE04FF0000A52460B46F6
:102A60004046FDF785FCCDE9031052462B46104643
:102A70001946FDF724FD32463B46FDF71DFDDDE915
:102A80000332FDF7F4FE06460F46DDE900015A4623
:102A9000029BFDF7ECFE8346009101223046394649
:102AA000FDF754FF194A1A4BFDF706FD06460F467F
:102AB000012240462946FDF749FF5A46009BFDF793
:102AC000FEFC32463B46FDF7F4FC06460F4601226B
:102AD00050462946FDF73AFF0E4DDFF858802A464A
:102AE0004346FDF7E9FC32463B46FDF7E5FC2A4646
:102AF0004346FDF7E1FC002CD8BF81F0004106B051
:102B0000BDE8F08D0000F03F0000F07F075C14335B
:102B100026A6913C182D4454FB21F93F0000E03FCC
:102B20006052000076520000EA510000005200009E
:102B30003333EF3FFB21E93F2DE9F84F04460D46C3
:102B400021F0004000917349814211DC72498842B2
:102B500001DC06D12CB120462946BDE8F84FFFF72D
:102B600002BA6E48002DCCBF6D496E49BDE8F88FA2
:102B70006D49814211DD6D498142D8BF4FF0FF366A
:102B80006DDD20462946FFF785F9042808BFFFF7C9
:102B9000F5F920462946BDE8F88F6549654F25F0CF
:102BA0000045814233DD6449814219DD0026324609
:102BB0004FF0804320462946FDF7DAFB80468A46DF
:102BC000012220462946FDF7C1FE00223B46FDF7C3
:102BD00070FC42465346FDF74AFE04460D463EE071
:102BE00001260022BA463B4620462946FDF7C0FB97
:102BF00080460F460022534620462946FDF759FCE1
:102C000042463B46FDF733FE04460D4627E04B495E
:102C100081421BDDDFF828A1022600225346204610
:102C20002946FDF74CFC00223B46FDF7A1FB804600
:102C30000F460022534620462946FDF73AFC4246FD
:102C40003B46FDF714FE04460D4608E003262246E7
:102C50002B4600203B49FDF70AFE04460D4622465E
:102C60002B4610461946FDF72AFC8B468246024643
:102C70000B46FDF724FC07460246334888460B46C0
:102C800006217844FFF71AF952465B46FDF717FC18
:102C900082462E488B463A46434605217844FFF744
:102CA0000DF93A464346FDF70AFC02460B46002E54
:102CB000504659460CDAFDF75BFB22462B46FDF7E2
:102CC000FEFB01B022462B46BDE8F04FFDF7F4BBFA
:102CD000FDF74EFB22462B46FDF7F1FB1C4A7A44DA
:102CE00002EBC603D3E90023FDF7E3FB22462B46A4
:102CF000FDF7DFFB174A7A4402EBC603D3E9002352
:102D0000FDF7DAFB009A002AB8BF81F00041BDE868
:102D1000F88F0000000010440000F07F182D44548C
:102D2000FB21F93FFB21F9BF0000DC3F0000203E02
:102D30000000F33F0000F03F0000E63F008003404A
:102D40000000F83F0000F0BF02500000C04F00003C
:102D50005E4F0000264F00002DE9F04D9446CCF167
:102D6000000423F000464CEA0404594F46EAD474A8
:102D70009A46884621F00042BC4206D8454240EAC5
:102D8000050442EAD474BC4204D9BDE8F04D624661
:102D9000FFF7ECB8AAF14055A5F17F6555EA0C04A0
:102DA0000BD0022404EAAA744A4DDFF82CE144EA6D
:102DB000D87452EA000B04D00CE0BDE8F04DFFF7E8
:102DC000BBBE002C14BF012CBDE8F08D022C30D00E
:102DD000032C32D056EA0C0B0AD0BE4220D1BA42A4
:102DE00009D126F0804622F080423346114617E092
:102DF00000291ADB25E0DFF8E4B0FB44002C04BF17
:102E0000DBE90001BDE8F08D012C02BFDBE9000128
:102E100081F00041BDE8F08D022C0AD0032C0CD0CB
:102E2000BA4212D1B8F1000F0BDA2A482C49BDE89A
:102E3000F08D28462B49BDE8F08D28467146BDE847
:102E4000F08D24482849BDE8F08D921B12153C2ACC
:102E5000C4BF204F244E10DCBAF1000FBEBF12F1E8
:102E60003C0F00273E4608DB6246FDF700FD21F0DF
:102E70000041FFF761FE07460E4694B1012C08BFE2
:102E800086F000460DD0194A194B022C38463146BF
:102E900015D0FDF70EFB2A46BDE8F04D114BFDF7AE
:102EA00008BB0022134638463146FDF77FFD04BFBC
:102EB0000220FFF77BF838463146BDE8F08DFDF77C
:102EC000F8FA2A46BDE8F04D064BFDF7F5BA0000CA
:102ED0000000F07F182D4454FB2109C0BA4E0000B9
:102EE000FB21F9BFFB210940FB21F93F075C1433AB
:102EF00026A6A13C70B50446E07800F0C00500F0BD
:102F00003F006178094EC90707D0C30800F00701E8
:102F1000491C32680AB1184690476078000703D50B
:102F2000716809B1A8098847002070BD74010020AC
:102F300010B56FF00400FEF75BFD09480949006811
:102F4000B0FBF1F00849C0B2087000EB4002C2EBE0
:102F5000C0104FF6FF7202EAC000488010BD0000AA
:102F60001000002000127A00380000200B49498828
:102F700048434FF0E021486100238B61086940F02D
:102F8000010008610869C20701D0C003FAD50869C9
:102F900020F0010008618B617047000038000020BC
:102FA0000B49097848434FF0E021486100238B61C9
:102FB000086940F0010008610869C20701D0C00338
:102FC000FAD5086920F0010008618B6170470000A4
:102FD0003800002008B500280CD020208DF8000013
:102FE00028208DF8010030208DF8020038208DF85F
:102FF000030004E0A32204216846FDF7C6F86A46F0
:10300000042140F69E2001F079FF01F003FC08BD89
:103010003EB5044602208DF80000CA208DF801005C
:10302000E3208DF8020009208DF803006A46042190
:10303000682001F063FFA3208DF80000610609D528
:10304000C0218DF80110C8218DF80210C2218DF821
:10305000031005E08DF801008DF802008DF80300E3
:1030600014F4C07F09D0C4218DF80410CC218DF850
:103070000510C6218DF8061005E08DF804008DF8C6
:1030800005008DF806008DF807008DF808008DF812
:1030900009006A460A2140F6A72001F02FFFA00789
:1030A0004FF0D80503D020208DF8000001E08DF806
:1030B00000506A46012140F6B62001F01FFFA0062D
:1030C00003D5012000F09AF802E0002000F096F805
:1030D00014F4C07F20D0E0050CD5B2208DF800009C
:1030E0008B208DF80100B6208DF802009B208DF812
:1030F00003000BE0B0208DF8000080208DF8010067
:10310000B4208DF8020090208DF803006A46042157
:1031100040F6A22001F0F2FEE0074FF40B6323D04B
:10312000F8208DF800006A460121184601F0E6FEFD
:10313000FA21072000F0ACFB072000F07BFB012008
:1031400000F094FB642000F055FC4FF4FA7000F09E
:1031500061FCC821274800F035FB282000F04AFB1D
:103160000A2000F057FB06E08DF800506A46012166
:10317000184601F0C3FEA00703D5D9208DF8000042
:1031800001E08DF800506A46012140F23D7001F0E7
:10319000B5FE600703D5012000F05CF802E00020D6
:1031A00000F058F8E00603D50120FFF713FF02E016
:1031B0000020FFF70FFF104D44F00800688101F078
:1031C00029FB0020A873600601D50620A87314F41B
:1031D000C07F02D0A87B801DA87314F0140F02D00A
:1031E000A87B1030A873A00702D0A87B001DA8738D
:1031F00000203EBD09E3CA02740100200EB54FF461
:10320000976300280CD00DA0D0E900128068CDE9AA
:10321000001202906A460921184601F06FFE0EBDA9
:1032200009A0D0E900128068CDE9001202906A4638
:103230000921184601F062FE0EBD0000B8AAB38D48
:10324000B4980D355D000000B8AAAAAAB088C3C51D
:10325000C700000008B500280CD0C0208DF8000081
:10326000C2208DF80100C4208DF80200C6208DF820
:10327000030004E08B2204216846FCF786FF6A46BF
:10328000042140F6982001F039FE01F0C3FA08BD90
:10329000C8234FF48062024940F6F63001F06AB963
:1032A000745100082DE9FF4F8DB01646DDE91A5222
:1032B000074688460024A146A5F80090DFF864B1CF
:1032C00005A99BF80E0001F017FA4FF0FF3A18B16C
:1032D000504611B0BDE8F08FBBF80A3013F0140F60
:1032E00061D09DF817009DF814109DF8162040EA53
:1032F00001609DF81510090441EA0221084330607D
:103300009DF81B109DF818209DF81A4041EA0261B3
:103310009DF81920120442EA0422114371609DF8BD
:103320001F209DF81C409DF81EC042EA04629DF8D3
:103330001D40240444EA0C242243B2609DF823403B
:103340009DF820C09DF822B044EA0C6C9DF8214005
:10335000240444EA0B244CEA040CC6F80CC01024E4
:103360000014019008140290101403904FEA2C40AE
:10337000049001980299404301FB01010398049ACB
:10338000404302FB02000844A0F17060B0F1007FEE
:1033900005D901F03FFAA5F80090504699E7288832
:1033A00040F480702880590605A818D50219065DDA
:1033B000517841EA0621A8F80010D178967841EAC0
:1033C0000621A8F802105179127941EA0221A8F8E1
:1033D0000410A41DE4B2298841F00801298013F4E7
:1033E000C07F15D00119065D4A7842EA06223A806C
:1033F000CA788E7842EA06227A804A79097942EAC6
:103400000121B980A41DE4B2298841F0700129800E
:10341000990702D02044FFF76DFD109801F0A6FD3A
:10342000002056E77401002030B587B00446684696
:1034300000F028FFBDF80000420CC1033C4803899E
:1034400003F0030054F820000490580702D50498B4
:1034500040420490C3F3C10054F820000590980640
:1034600002D5059840420590C3F3811054F820001E
:103470000690D80502D50698404206900498A0FB15
:103480000145C31703FB015300FB0230830043EAED
:10349000947004900598A0FB0145C31703FB0153EA
:1034A00000FB0230830043EA947005900698A0FB6D
:1034B0000145C31703FB015100FB0210810041EAE3
:1034C000947006900498000E8DF804000498000C87
:1034D0008DF805000498000A8DF8060004988DF810
:1034E00007000598000E8DF808000598000C8DF86F
:1034F00009000598000A8DF80A0005988DF80B0060
:103500000698000E8DF80C000698000C8DF80D0042
:103510000698000A8DF80E0006988DF80F0001AA93
:103520000C214FF4257001F0E9FC07B030BD00001C
:103530007401002030B585B0044616A1D1E900021F
:103540008968CDE9032102904FF0FF35C82C02D9DC
:10355000284605B030BDC820B0FBF4F1491E080A6A
:103560008DF800008DF801106A46022140F2162005
:1035700001F0C4FC08B12846EBE702AA0C2140F692
:10358000C12001F0BBFC08B12846E2E70448848171
:103590000020DEE7FEF2ABC4AAF1DFDFBBAFDFDF66
:1035A000740100201FB53F49098901F0030250F85A
:1035B000222001924A0702D5019A52420192C1F398
:1035C000C10250F8222002928A0602D5029A524283
:1035D0000292C1F3811250F822000390C80502D56F
:1035E0000398404203903048019981FB00218B00F1
:1035F00043EA92710191029981FB00218B0043EA19
:1036000092710291039981FB0001800F40EA8100D1
:1036100003900198000E8DF800000198000C8DF8C1
:1036200001000198000A8DF8020001988DF803004E
:103630006A4604214FF4747001F060FC4FF0FF34CF
:1036400010B1204604B010BD0298000E8DF80000A5
:103650000298000C8DF801000298000A8DF8020013
:1036600002988DF803006A4604214FF4757001F04A
:1036700045FC08B12046E5E70398000E8DF80000F0
:103680000398000C8DF801000398000A8DF80200E1
:1036900003988DF803006A4604214FF4767001F018
:1036A0002DFCCFE77401002009E3CA0230B587B0D2
:1036B00004463FA0006804903EA0006803903EA02E
:1036C000006802903DA00068019004F0030004AB84
:1036D000195C8DF81810C4F3C102995C8DF81910AB
:1036E000C4F381115B5C8DF81A3003AB185C8DF864
:1036F0001400985C8DF81500585C8DF8160006AA29
:10370000032140F2264001F0F9FB4FF0FF3510B1E4
:10371000284607B030BD05AA032140F22A4001F037
:10372000EDFB08B12846F4E7029806900198059051
:1037300060070BD59DF8180040F001008DF81800C7
:103740009DF8140040F001008DF81400A0060BD580
:103750009DF8190040F001008DF819009DF8150042
:1037600040F001008DF81500E0050BD59DF81A001A
:1037700040F001008DF81A009DF8160040F001009D
:103780008DF8160006AA03214FF4886001F0B6FBFD
:1037900008B12846BDE705AA032140F2314001F0F7
:1037A000ADFB08B12846B4E7054804810020B0E726
:1037B0004CCD6C000CC92C003656760026466600AF
:1037C0007401002008B54FF47A7290FBF2F0484380
:1037D000010E8DF80010010C8DF80110010A8DF812
:1037E00002108DF803006A4604214FF4AE7001F018
:1037F00085FB08BD08B50521B0FBF1F0010A8DF885
:1038000000108DF801006A4602214FF4AD7001F0FE
:1038100075FB08BD08B50521B0FBF1F0010A8DF874
:1038200000108DF801006A4602214FF4AC7001F0DF
:1038300065FB08BD08B500210091C10701D030210A
:103840000091810704D59DF8001041F00C01009112
:10385000400704D59DF8000040F0030000906A4640
:1038600001214FF4A47001F049FB08BD08B5002800
:103870000BD0042800D90420401E00906A46012184
:1038800040F24F1001F03AFB08BD0120F4E70000C0
:103890002DE9FC410546084669074FF0FF3602D086
:1038A000B0F5C86F02D93046BDE8FC81FCF782FE56
:1038B0004B49FCF713FD0746684600F0C1FC9DF834
:1038C0000000022807D0042814D0082821D010288E
:1038D0002ED03046E8E70E213846FCF73DFDFCF7D8
:1038E00087FE84B23F493846FCF7C6FCFCF780FEF1
:1038F00080B22BE00D213846FCF72EFDFCF778FE58
:1039000084B239493846FCF7B7FCFCF771FE80B247
:103910001CE00C213846FCF71FFDFCF769FE84B261
:1039200032493846FCF7A8FCFCF762FE80B20DE095
:103930000B213846FCF710FDFCF75AFE84B22C49E7
:103940003846FCF799FCFCF753FE80B2210A8DF84B
:1039500004108DF80540010A8DF806108DF8070057
:10396000E80701AC11D001AA02214FF4EA7001F07E
:10397000C5FA08B1304697E7A21C02214FF49270B5
:1039800001F0BCFA08B130468EE7A80711D501AAAC
:1039900002214FF4EC7001F0B1FA08B1304683E730
:1039A000A21C02214FF4947001F0A8FA08B130462D
:1039B0007AE7680711D501AA02214FF4EE7001F0F1
:1039C0009DFA08B130466FE7A21C02214FF49670B1
:1039D00001F094FA08B1304666E7002064E7000081
:1039E00000004843000040460000C045000040453C
:1039F0000000C04408B50521B0FBF1F0010A8DF8C4
:103A000000108DF801006A4602214FF4EF7001F0BA
:103A100075FA08BD08B50521B0FBF1F0010A8DF873
:103A200000108DF801006A4602214FF4ED7001F09C
:103A300065FA08BD04490A885206FCD5024AC1B29B
:103A4000121D118070470000003801402DE9FC4133
:103A50000546264801AB042240680D21007800F09D
:103A6000A5FA10B10720BDE8FC819DF807009DF87C
:103A70000420C0F3011102F0E00241EAD2018DF806
:103A800000109DF80520C0F3810102F0E00241EA38
:103A9000D2018DF801109DF8061000F0030001F02E
:103AA000E00140EAD1008DF8020000246E46305D4E
:103AB00020B10F4845F824000E4F0AE0002045F8D9
:103AC00024000CE055F824003946FCF7D5FB45F8F6
:103AD0002400305D401E10F0FF003055F2D1641C10
:103AE000E4B2032CE3D30020BDE700005000002027
:103AF0007B14AE3E1D5A843F2DE9F04788B0054641
:103B00000C46924601208DF8140000278DF81570A0
:103B1000DFF8B88305AB0222D8F80000817CD8F822
:103B20000400007800F07DFA4FF0FF3918B14846E4
:103B300008B0BDE8F087C820FFF718FA8DF81470B8
:103B4000D8F8000005AB0122C17BD8F8040000784A
:103B500000F067FA08B14846EAE7D8F8000005AB7C
:103B600001224179D8F80400007800F05AFA08B12F
:103B70004846DDE7D8F8000005AB0122817CD8F883
:103B80000400007800F04DFA08B14846D0E7D8F8B4
:103B9000000005AB0122C17DD8F80400007800F0D8
:103BA00040FA08B14846C3E7D8F8000005AB012247
:103BB0000179D8F80400007800F033FA08B14846DB
:103BC000B6E70C268DF81460D8F8000005AB01228A
:103BD0000179D8F80400007800F023FA08B14846CB
:103BE000A6E70F20FFF7C2F9D8F82800407A8DF831
:103BF0001400D8F8000005AB01228178D8F8040041
:103C0000007800F00EFA08B1484691E7D8F828008D
:103C1000007A8DF81400D8F8000005AB0122417835
:103C2000D8F80400007800F0FCF908B148467FE7B6
:103C3000BAF1000F07D0D8F82800807A40F0E000F1
:103C40008DF8140004E0D8F82800807A8DF814006C
:103C5000D8F8000005AB01228179D8F8040000787B
:103C600000F0DFF908B1484662E7BAF1000F07D06B
:103C7000D8F82800C07A40F0E0008DF8140002E087
:103C800018208DF81400D8F8000005AB0122C17986
:103C9000D8F80400007800F0C4F908B1484647E7B6
:103CA000BAF1000F02D0C820FFF760F940208DF86C
:103CB0001400D8F8000005AB01220179D8F80400FF
:103CC000007800F0AEF908B1484631E778208DF869
:103CD0001400D8F8000005AB01224179D8F804009F
:103CE000007800F09EF908B1484621E73220FFF73E
:103CF0003DF98DF81470D8F8000005AB0122417928
:103D0000D8F80400007800F08CF908B148460FE7B5
:103D1000D8F8000005AB0222817AD8F804000078B8
:103D200000F044F908B1484602E79DF815009DF8F7
:103D3000141040EA0120B0FBF6F0C6B2AF606F602D
:103D40002F60A76067602760002756E0D8F8000062
:103D500005AB0C22C17AD8F80400007800F026F9EF
:103D600008B14846E4E69DF815009DF8141040EAB5
:103D7000012000B2ADF80C009DF817109DF8162038
:103D800041EA022109B2ADF80E109DF819209DF804
:103D9000183042EA032212B2ADF81020236818440A
:103DA0002060606808446060A0681044A0609DF8CE
:103DB0001B009DF81A1040EA012000B2ADF8040083
:103DC0009DF81D109DF81C2041EA022109B2ADF8B2
:103DD00006109DF81F209DF81E3042EA032212B201
:103DE000ADF808202B6818442860686808446860AB
:103DF000A8681044A8607F1CFFB2B742A6D3286809
:103E00008322C117090441EA104100040023FCF792
:103E10008BF932460023FCF787F928606868832213
:103E2000C117090441EA104100040023FCF77CF9A2
:103E300032460023FCF778F96860A8688322C1172E
:103E4000090441EA104100040023FCF76DF93246F1
:103E50000023FCF769F9A86020684FF40065C117DA
:103E6000090441EA104100042A460023FCF75CF9EA
:103E700032460023FCF758F9206060682A46C117D3
:103E8000090441EA104100040023FCF74DF93246D1
:103E90000023FCF749F96060A0682A46C1170904AD
:103EA00041EA104100040023FCF73EF932460023AA
:103EB000FCF73AF9A060002803DDA0F58030A0608F
:103EC00002E000F58030A060002031E650000020C4
:103ED0002DE9F84F81468A4600252F486B4603227C
:103EE00040680D21007800F061F810B10720BDE8AE
:103EF000F88F9DF8000000F01F008DF800009DF87D
:103F0000010000F01F008DF801009DF8020000F094
:103F10001F008DF8020000246F464FF0010859F889
:103F200024005AF82410401A00D54042FCF739FB0F
:103F30006FF00F01FCF710FA0646385DF8B1174A2A
:103F4000DFF85CB004E059461046FCF795F90246EC
:103F5000385D401E10F0FF003855F4D11146304650
:103F6000FCF7BCF94FF07E51FCF780F920F00040DF
:103F70000C4988420BDD08FA04F0054307E00A48C3
:103F80003044B0F1D97F02D908FA04F00543641C2B
:103F9000032CC4DB2846AAE7500000200000C841DB
:103FA00054E3853F295C0F3E0000E0BE2DE9F0415F
:103FB00006460F4614461D46FCF7DCFFB0B17006FE
:103FC000000EFCF7A7FFFDF71BF890B13846FCF791
:103FD000A1FFFDF715F8FCF7CDFF012000EB46002F
:103FE000C0B2FCF797FFFDF70BF80FE00120BDE82A
:103FF000F081FCF7E9FF0120F9E7012C0CD001204A
:10400000FCF754FF28706D1C641EE4B2002CF4D140
:10401000FCF7DAFF0020EAE70020FCF747FF2870F2
:10402000F1E72DE9F04104460F4616461D46FCF720
:10403000A1FF68B16006000EFCF76CFFFCF7E0FF23
:1040400048B13846FCF766FFFCF7DAFF00240DE0C4
:104050000120BDE8F081FCF7B7FF0120F9E7285DFA
:10406000FCF758FFFCF7CCFF30B1641CB442F6DB20
:10407000FCF7AAFF0020ECE7FCF7A6FF0020E8E72A
:1040800070B50446204600F00DF80546E01C00F02F
:1040900009F845EAC005A01D00F004F845EA8010C3
:1040A00080B270BD90F90010002902DD4FF00000D1
:1040B000704702DA4FF00400704790F901100029B0
:1040C00002DD4FF00100704702DA4FF00500704743
:1040D00090F90200002802DD4FF00200704702DA7A
:1040E0004FF0060070474FF0070070471FB54FF4C0
:1040F000165000F0EFFFFEF71BFFFCF7A3FEFDF7E5
:1041000029F8FCF707FDFDF7ABFCFDF73FF9DFF8F9
:10411000A880DFF8A8B04FF001094FF0100AD8F8D6
:104120000800FCF779FA04460D46D8F80400FCF7BD
:1041300073FA06460F46D8F80000FCF76DFA0246FF
:104140000B461FA0CDE90067CDE90245FDF792FEC1
:104150004FF47A70FEF70AFF5946D8F80000FCF7D2
:104160008BF8FCF72CFACDE900A9024605230021C3
:104170000120FDF747FA5946D8F80400FCF77CF80F
:10418000FCF71DFACDE900A90246052318210120FC
:10419000FDF738FA5946D8F80800FCF76DF8FCF737
:1041A0000EFACDE900A90246052330210120FDF7D2
:1041B00029FAFDF777F9B2E7000000200000C842B5
:1041C00070697463683A252E32662C526F6C6C3AB3
:1041D000252E32662C5961773A252E32660D0A005B
:1041E0002DE9F041002620F00104144D95F824003B
:1041F000002802D00020BDE8F081A97A4FF0FF38F6
:1042000039B12F7C21402974A14200D0464624B9FF
:1042100001E04046EFE7287D18B1012000F0FAFEEA
:1042200002E0002000F0F6FE2CB100F0F3FA10B12D
:104230002F744046DFE73046DDE7000050000020E5
:104240000F4A517A002908D0012909D002290AD041
:1042500003290BD04FF0FF3070470221017007E0B7
:104260000421017004E00821017001E010210170B7
:10427000D17C11B101784900017000207047000025
:1042800050000020114A517A002908D001290AD093
:1042900002290CD003290ED04FF0FF3070474FF4A5
:1042A000804101800AE041F69C71018006E04FF4F4
:1042B0008051018002E04FF400610180D17C11B196
:1042C000018849080180002070470000500000204C
:1042D0000249097C01700020704700005000002056
:1042E0000E49097A002909D001290AD002290CD0E7
:1042F00003290ED00021018000207047FA2101809F
:10430000FAE74FF4FA710180F6E74FF47A71018011
:10431000F2E74FF4FA610180EEE700005000002060
:104320000C49097A002908D0012909D002290AD0AC
:1043300003290BD04FF0FF3070470749016007E0B9
:104340000649016004E00649016001E00549016099
:10435000002070475000002000000343000083420B
:1043600033330342333383410F49C97A072917D2C4
:10437000DFE801F01604070A0D101300BC210180CC
:1043800010E0622101800DE02A2101800AE0142161
:10439000018007E00A21018004E00521018001E09D
:1043A000002101800020704750000020054991F84D
:1043B0002420002A02D04FF0FF307047C9890180C5
:1043C00000207047500000202DE9FC4180208DF82E
:1043D0000000544C6B4601222068817C60680078A4
:1043E000FFF71FFE4FF0FF3610B13046BDE8FC81ED
:1043F0006420FEF7BBFD00258DF8005020686B4659
:104400000122817C60680078FFF70BFE08B130461E
:10441000ECE720686B460622817D60680078FFF734
:10442000C5FD08B13046E1E79DF805009DF8031091
:10443000C007400F01F0010140EA41019DF8010071
:1044400000F001000143012761B1012906D00229D2
:1044500006D035A0FDF70EFD3046C7E7E77414E03F
:10446000E57412E020686B460122C178606800782C
:10447000FFF79CFD08B13046B8E79DF8000000F05A
:104480000F0008B3042824D0E574FF2104F80A1FA4
:1044900004F8021C04F8011C61704FF6FF70A08044
:1044A000A1712172A77027766576E572A572E56025
:1044B00025616561A576E576A5834FF4FA6000F085
:1044C000D9FB58B1304691E72148FDF7D3FC30467F
:1044D0008CE720A0FDF7CEFCE774D6E7022000F0C1
:1044E000C5FA08B1304681E72A2000F02FFC08B158
:1044F00030467BE7322000F067FC08B1304675E7B4
:104500000020FFF76DFE08B130466FE7002000F095
:10451000E7FA08B1304669E7002000F097FC002078
:1045200064E7000050000020556E737570706F7264
:1045300074656420736F6674776172652070726F42
:1045400064756374207265762025642E0A0000006D
:10455000C07C000848616C662073656E736974697D
:1045600076697479207061727420666F756E642E3E
:104570000D0A00002DE9FF4F85B005460E4617468F
:10458000DFF8A0804FF0FF3998F82500002803D00D
:10459000484609B0BDE8F08F0EB1002425E048463A
:1045A000F7E7281B102800DD10201FFA80FA3019C9
:1045B000834602465146204600F0A0FC08B148461A
:1045C000E7E701AA5146204600F0ECF808B148465A
:1045D000DFE75846524601A9FBF7E9FD10B16FF03D
:1045E0000100D6E704EB0A0084B2AC42D9D3380A02
:1045F0008DF800008DF80170D8F800006B4602229B
:10460000817ED8F804000078FFF70BFD08B148461A
:10461000BFE7012088F825000898A8F826000020A8
:10462000B7E70000500000202DE9F84304464FF0A2
:10463000FF37282C02D93846BDE8F8832D4D4FF0BE
:10464000070900268CB1012000F050FB20208DF8D6
:1046500000004FF00108012C1CD0052C20D88DF84B
:104660000180052000F072FB29E0002000F03EFBF5
:104670008DF800608DF8019028686B460222817CDD
:1046800068680078FFF7CDFC08B13846D4E72E758E
:104690000020D1E78DF80160052000F057FB0EE007
:1046A000142C06D802208DF801000A2000F04EFBE1
:1046B00005E003208DF80100142000F047FB9DF871
:1046C000010009EB80108DF8010028686B4602227A
:1046D000817C68680078FFF7A4FC08B13846ABE736
:1046E0000820A8722E7385F814800020FFF778FD4B
:1046F0000020A1E7500000202DE9F8430546894637
:104700001746274E4FF0FF3896F8240000280DD0AA
:10471000B07A68B130686B460222817A706800789E
:10472000FFF744FC30B14046BDE8F8834046FBE764
:104730004046F9E79DF801009DF8001040EA012489
:10474000AC4203D2002038704046EDE770684188E3
:10475000B4EB510F12D9316800786B46497C0122C5
:10476000FFF724FC08B14046DEE79DF80000C006D4
:1047700004D500F04FF86FF00100D5E73068EAB2D9
:104780004B46C17A70680078FFF710FC08B14046CC
:10479000CAE7B4FBF5F0401E38700020C4E7000003
:1047A000500000202DE9F8430E4690464FF0FF35AB
:1047B000B8F1000F10D0164FB97A79B1010A8DF80F
:1047C0000010C4B28DF80140A0197C68618988424C
:1047D00006D92846BDE8F8832846FBE72846F9E7CE
:1047E00038686B460222017E2078FFF71AFC08B178
:1047F0002846EFE73868F2B24346417D7868007892
:10480000FFF7D4FB08B12846E4E70020E2E7000008
:1048100050000020F8B5564D4FF0FF36A87A00281A
:104820000CD00024009428686B460122C17B686884
:104830000078FFF7F6FB18B13046F8BD3046F8BDFA
:1048400028686B460122417968680078FFF7E9FB28
:1048500008B13046F8BD28686B46012201796868C6
:104860000078FFF7DEFB08B13046F8BD95F824006C
:1048700078B30C20009028686B46012201796868A3
:104880000078FFF7CEFB08B13046F8BDC02000909D
:10489000A87AC00701D0E020009028686B4601226A
:1048A000017968680078FFF7BCFB08B13046F8BDB5
:1048B000687C10B10220009000E0009428686B46EC
:1048C0000122C17B68680078FFF7ABFB10B130466E
:1048D000F8BD0BE0009428686B46012241796868B6
:1048E0000078FFF79EFBA0B33046F1E7042000906C
:1048F00028686B460122017968680078FFF791FB10
:1049000008B13046E4E7A87C78B9A87AC0070CD093
:104910006020009028686B46012201796868007861
:10492000FFF77FFB20B13046D2E740200090F1E74F
:10493000687C10B10120009000E0009428686B466C
:104940000122C17B68680078FFF76BFB10B130462D
:10495000BEE70BE02868064B0122417968681033F6
:104960000078FFF75EFB08B13046B1E70020AFE703
:10497000500000202DE9F0438BB0814688463A4D27
:1049800095F82400002804D0002000F035F9012615
:1049900000E0002602A8FFF7A3FC04A8FFF750FCE4
:1049A0006846FFF7E1FC01A8FFF700FDAF7A03A816
:1049B000FFF78EFC0024002241464846FFF79CF892
:1049C00010B1641C022CF6DB022C19D00024012249
:1049D00005A908A8FFF790F810B1641C022CF6DBBB
:1049E000022C0FD005A94046FDF72CFF00F0FF0870
:1049F00008A94846FFF76CFAC0B2002420B104E0D1
:104A0000002407E0002405E00124B8F1000F01D1E3
:104A100044F00204FF2028726872E8724FF6FF71BA
:104A2000E981A872287401202873BDF8080000F0FD
:104A300021F99DF8100000F019F8BDF8000000F011
:104A400085F9BDF8040000F0BFF9384600F0FEF922
:104A50009DF80C00FFF7C4FB16B1012000F0CCF864
:104A60000BB02046BDE8F0835000002038B51B4C49
:104A70004FF0FF35A17A002909D0022809D0042877
:104A80000AD008280BD010280CD0284638BD28465C
:104A900038BD0020009007E00820009004E01020BE
:104AA000009001E018200090607A9DF80010B0EBB3
:104AB000D10F01D1002038BD20686B460122C17999
:104AC00060680078FFF7ADFA08B1284638BD9DF858
:104AD0000000C0086072002038BD000050000020B7
:104AE000F8B50446434DA87CA04201D10020F8BD92
:104AF00040484FF0FF36D0E90010ACB30979007898
:104B00006B460122FFF752FA08B13046F8BD9DF816
:104B1000000020F02000009028686B4601220179F7
:104B200068680078FFF77DFA08B13046F8BD0320C9
:104B3000FEF71CFA0220009095F8220008B18220AE
:104B4000009095F8230020B19DF8000040F030005F
:104B5000009028686B460122017D68680078FFF7A5
:104B600060FAE8B33046F8BDFFE7097900786B4694
:104B70000122FFF71BFA08B13046F4E7A87AC00714
:104B800005D09DF8000040F02000009004E09DF862
:104B9000000020F02000009028686B460122017977
:104BA00068680078FFF73DFA08B13046DBE703207C
:104BB000FEF7DCF995F8220010B18020009001E0AA
:104BC0000020009095F8230020B19DF8000040F0EF
:104BD0003000009028686B46017D6868007800E02E
:104BE00005E00122FFF71DFA08B13046BBE7AC74BF
:104BF0000020B8E75000002038B51D4C94F8241070
:104C0000814201D1002038BD0025F0B194F8250083
:104C1000C0B1002000F0FEF90020FFF761FFE08C3A
:104C200000F0D2F8009560686B46012200782321DD
:104C3000FFF7F7F9012084F8240000F0EBF9FFF703
:104C4000E9FD12E04FF0FF3038BD002000F0E2F93E
:104C5000207C009060686B46012200782321FFF7DA
:104C6000E0F984F82450FFF7D5FD002038BD00009E
:104C70005000002038B51C4C4FF0FF35A17A0029B8
:104C80000CD0FA280CD0B0F5FA7F0CD0B0F57A7FB2
:104C90000CD0B0F5FA6F0CD0284638BD284638BD88
:104CA0000020009007E00820009004E01020009011
:104CB00001E018200090207A9DF80010B0EBD10F91
:104CC00001D1002038BD20686B46012281796068DF
:104CD0000078FFF7A6F908B1284638BD9DF8000016
:104CE000C0082072002038BD5000002038B50446AE
:104CF000154D95F82300A04201D1002038BD14B114
:104D00003020009001E000200090A87C20B19DF8A8
:104D1000000040F00200009095F8220020B19DF8BC
:104D2000000040F08000009028686B460122017D61
:104D300068680078FFF775F910B14FF0FF3038BDA3
:104D400085F82340002038BD5000002038B51D4CA8
:104D50004FF0FF35A17A002904D0BC2804D30120EC
:104D6000009017E0284638BD622802D30220009048
:104D700010E02A2802D3032000900BE0142802D36D
:104D80000420009006E00A2802D30520009001E0EC
:104D900006200090E07A9DF80010884201D10020A2
:104DA00038BD20686B460122817860680078FFF783
:104DB00038F908B1284638BD9DF80000E07200209F
:104DC00038BD000050000020F8B504461E4D4FF0DD
:104DD000FF37A87A002804D095F8240018B1384687
:104DE000F8BD3846F8BD287D50B134B1282C04D820
:104DF000E0B2FFF719FC0020F8BD0020FFF714FC1B
:104E00004FF47A76042C01D2042402E0B44200D993
:104E10003446B6FBF4F0401E009028686B46012231
:104E2000417868680078FFF7FCF808B13846F8BDAB
:104E30009DF80000401CB6FBF0F0E8814008FFF749
:104E400085FF0020F8BD000050000020F8B50446A2
:104E500014F0700F4FF0000602D00120009004E023
:104E60000CB1009601E040200090234D6B460122DA
:104E70002868817C68680078FFF7D3F84FF0FF3727
:104E800010B1AE723846F8BD9DF8000020F0400029
:104E900028730096600601D404200090A00604D474
:104EA0009DF8000040F002000090E00604D49DF858
:104EB000000040F001000090200704D49DF800009D
:104EC00040F03800009028686B460122C17C686879
:104ED0000078FFF7A6F810B1AE723846F8BD24B1DD
:104EE000082C02D00020FFF701FFAC722E75322093
:104EF000FEF73CF80020F8BD500000202DE9F843F3
:104F00000E4690464FF0FF35B8F1000F10D0164F07
:104F1000B97A79B1010A8DF80010C4B28DF8014058
:104F2000A0197C686189884206D92846BDE8F883C3
:104F30002846FBE72846F9E738686B460222017EDF
:104F40002078FFF76EF808B12846EFE73868F2B22C
:104F50004346417D78680078FFF763F808B128463A
:104F6000E4E70020E2E70000500000207047000066
:104F700010B588B002A905A8FFF7FCFC072835D1B9
:104F800001A8FFF7CDF90598FBF70BFB01990C463B
:104F9000FBF772F9FBF713FB05900698FBF701FB93
:104FA0002146FBF769F9FBF70AFB06900798FBF728
:104FB000F8FA2146FBF760F9FBF701FB079005A81B
:104FC000FEF7F0FA6846FFF75DF9BDF800000299B8
:104FD0004143029103994143039104994143049150
:104FE00002A8FEF721FA02A0FCF744FF08B010BDAA
:104FF00073657474696E6720626961732073756389
:1050000063657366756C6C79202E2E2E2E2E2E0DF8
:105010000A000000F8B51B4C0023224694F82460D7
:1050200006CA5D1E002E11D010B10220009000E0D3
:1050300000931078C97B6B460122FEF7F2FF08B19E
:105040002846F8BD9DF80000607419E0A67A26B1E4
:1050500028B1667C1EB10020F8BD2846F8BD10B10D
:105060000120009000E000931078C97B6B4601227C
:10507000FEF7D7FF08B12846F8BD9DF80000607420
:105080000020F8BD500000202DE9F04106460F46F3
:10509000FBF7DEFC041E0D4618BF0120284320F05C
:1050A0000040C0F17F6000F1E040C00F0ED0301C26
:1050B00018BF0120384320F00040C0F17F6000F1AC
:1050C000E040C00F04BF0120FCF770FF20462946D6
:1050D000BDE8F08170B586B00546012144F20400B8
:1050E000FCF7DCFA4FF40070ADF8140003248DF8DF
:1050F000164018218DF817101C4E05A93046FBF7F5
:105100000CFE3115ADF8141004218DF8171005A907
:105110003046FBF702FE25208DF800008DF8014097
:105120008DF8024001208DF803006846FCF756F820
:1051300001950020ADF80800ADF80A00ADF80C00AC
:10514000ADF810000C20ADF80E00094C01A9204666
:10515000FCF72CFE012240F225512046FCF70AFE06
:1051600001212046FCF7DAFD06B070BD00080140C1
:105170000038014000007000000000240000000220
:105180000003000000650054FFEF0000FA80000BF0
:1051900012820001030C30C30E8C8CE914D540023E
:1051A00013710F8E3883F8833000F883258EF883CF
:1051B0003000F883FFFFFFFF0FFEA9D62400040094
:1051C0001A8279A10000003CFFFF000000100000DF
:1051D00038836FA2003E03304000000002CAE3099A
:1051E0003E800000200000000000000040000000A1
:1051F00060000000000C0000000C186E0000069219
:105200000A16C0DFFFFF0256FD8CD377FFE1C4967C
:10521000E0C5BEAA00000000FFFF0B2B00001657E0
:10522000000003594000000000001DFA00026C1D40
:10523000000000003FFFDFEB003EB3B6000D227818
:1052400000002F3C00000000001942B5000039A208
:105250000000B365D90E9FC91DCF4C34300000004B
:10526000500000003BB67AE80064000000C800006F
:1052700000000000100000001000FA921000225EF2
:10528000000D229F0001000000320000FF460000D8
:1052900063D400001000000004D6000004CC00001D
:1052A00004CC00000000107200000040000000006C
:1052B00000000000000600020005000700000000DA
:1052C000006400000000000000000005000500640C
:1052D000002000000000000000000000000040006E
:1052E0000000030000000032F8980000FF65000095
:1052F000830F0000FF9BFC00000000000000000086
:10530000000000000000000000000000000000009D
:10531000000000000000000000000000000000008D
:105320000000100040000000000000060000B26A0B
:10533000000200000001FB830068000000D9FC00AF
:105340007CF1FF830000000000650000006403E8BA
:1053500000640028000000250000000016A00000E6
:105360000000100000001000002F0000000001F4F9
:105370000000100000280000FFFF4581FFFFFA72C7
:105380000000000000000000004400050005BAC64F
:10539000004778A2000000010000000000000600A5
:1053A000000000140000254D002F706D000005AEB8
:1053B000000C02D00000000000000000000000000F
:1053C00000000000001B00000000000000000000C2
:1053D0000000000000640000000800000000000061
:1053E00000000000000000000000000000000000BD
:1053F00000000000000000000000000000000000AD
:10540000000000000000000000000000000000009C
:10541000000000000000000000000000000000008C
:10542000000000000000000000000000000000007C
:1054300000000000001B0000000000000000000051
:10544000000E000E00000AC7000400000000003239
:10545000FFFFFF9C00000B2B00000002000000017A
:1054600000000064FFE500000000000000000000F4
:10547000000000000000000100000000000100002A
:105480000000000000018000000180000001800099
:10549000002426D3000000000000000000060010D9
:1054A0000096003C0000000000000000000000002A
:1054B000000000000C0A4E68CDCF770950166759DE
:1054C000C619CE82000000000000000000000000AD
:1054D00000000000000000000000000017D784005A
:1054E000030000000000000000000000C7938F9D33
:1054F0001E1B1C190000000000000000000000003E
:1055000000000000000000000000000002031885F9
:105510000000400000000003000000030000000045
:10552000000000004000000000000000000000003B
:10553000000000000000000000000000000000006B
:10554000000000000000000000000000000000005B
:105550000000000000000000677DDF7E72902E5585
:105560004CF6E6880000000000000000000000008B
:1055700000000000D8DCB4B8B0D8B9ABF3F8FAB387
:10558000B7BB8E9EAEF132F51BF1B4B8B08097F187
:10559000A9DFDFDFAADFDFDFF2AAC5CDC7A90CC90B
:1055A0002C97F1A989264666B28999A92D557DB017
:1055B000B08AA896365676F1BAA3B4B280C0B8A81D
:1055C0009711B28398BAA3F0240844106418B2B9B2
:1055D000B49883F1A329557DBAB5B1A38393F000A4
:1055E0002850F5B2B6AA839328547CF1B9A38293CC
:1055F00061BAA2DADEDFDB819AB9AEF5606870F1DC
:10560000DABAA2DFD9BAA2FAB9A38292DB31BAA27E
:10561000D9BAA2F8DF85A4D0C1BBAD83C2C5C7B8D3
:10562000A2DFDFDFBAA0DFDFDFD8D8F1B8AAB38D01
:10563000B4980D355DB2B6BAAF8C96198F9FA70E90
:10564000161EB49AB8AA872C547CBAA4B08AB69114
:10565000325676B28494A4C808CDD8B8B4B0F199C3
:1056600082A82D557D98A80E161EA22C547C92A4BB
:10567000F02C5078F184A898C4CDFCD80DDBA8FCA0
:105680002DF3D9BAA6F8DABAA6DED8BAB2B686969B
:10569000A6D0F3C841DAA6C8F8D8B0B4B882A892A8
:1056A000F52C548898F135D9F418D8F1A2D0F8F92E
:1056B000A884D9C7DFF8F883C5DADF69DF83C1D8EA
:1056C000F40114F1A8824EA884F311D182F5D99285
:1056D000289788F109F41C1CD884A8F3C0F9D1D903
:1056E0009782F129F40DD8F3F9F9D1D982F4C203E4
:1056F000D8DEDF1AD8F1A2FAF9A88498D9C7DFF862
:10570000F8F883C7DADF69DFF883C3D8F40114F14E
:1057100098A8822EA884F311D182F5D99250978847
:10572000F109F41CD884A8F3C0F8F9D1D99782F113
:1057300049F40DD8F3F9F9D1D982F4C403D8DEDFE6
:10574000D8F1AD8898CCA809F9D98292A8F57CF156
:10575000883ACF944A6E98DB6931DAADF2DEF9D837
:105760008795A8F221D1DAA5F9F417D9F1AE8ED038
:10577000C0C3AE82C684C3A88595C8A588F2C0F10F
:10578000F4010EF18E9EA8C63E56F554F18872F4CF
:105790000115F19845856EF58E9E0488F142985A60
:1057A0008E9E068869F4011CF1981E1108D0F5043C
:1057B000F11E970202983625DBF9D985A5F3C1DAE7
:1057C00085A5F3DFD88595A8F309DAA5FAD88292E2
:1057D000A8F578F1881A849F26889821DAF41DF3B9
:1057E000D8879F39D1AFD9DFDFFBF9F40CF3D8FAB2
:1057F000D0F8DAF9F9D0DFD9F9D8F40BD8F3879FCC
:1058000039D1AFD9DFDFF41DF3D8FAFCA869F9F973
:10581000AFD0DADEFAD9F88F9FA8F1CCF398DB4548
:10582000D9AFDFD0F8D8F18F9FA8CAF38809DAAFD3
:105830008FCBF8D8F2AD978D0CD9A5DFF9BAA6F3C6
:10584000FAF412F2D8950DD1D9BAA6F3FADAA5F284
:10585000C1BAA6F3DFD8F1BAB2B68696A6D0CAF31B
:1058600049DAA6CBF8D8B0B4B8D8AD84F2C0DFF12D
:105870008FCBC3A8B2B68696C8C1CBC3F3B0B488E9
:1058800098A821DB718D9D71859521D9ADF2FAD84B
:105890008597A828D9F408D8F28D29DAF405D9F229
:1058A00085A4C2F2D8A88D9401D1D9F411F2D88779
:1058B00021D8F40AD8F28498A8C801D1D9F411D813
:1058C000F3A4C8BBAFD0F2DEF8F8F8F8F8F8F8F8AF
:1058D000D8F1B8F6B5B9B08A95A3DE3CA3D9F8D80B
:1058E0005CA3D9F8D87CA3D9F8D8F8F9D1A5D9DF29
:1058F000DAFAD8B18530F7D9DED8F830ADDADED8AB
:10590000F2B48C99A32D557DA083DFDFDFB591A084
:10591000F629D9FBD8A0FC29D9FAD8A0D051D9F8BA
:10592000D8FC51D9F9D879D9FBD8A0D0FC79D9FACB
:10593000D8A1F9F9F9F9F9A0DADFDFDFD8A1F8F891
:10594000F8F8F8ACDEF8ADDE8393AC2C547CF1A80B
:10595000DFDFDFF69D2CDAA0DFD9FADB2DF8D8A83F
:1059600050DAA0D0DED9D0F8F8F8DB55F8D8A8780E
:10597000DAA0D0DFD9D0FAF8F8F8F8DB7DF8D89CB7
:10598000A88CF530DB38D9D0DEDFA0D0DEDFD8A898
:1059900048DB58D9DFD0DEA0DFD0DED8A868DB70C6
:1059A000D9DFDFA0DFDFD8F1A888902C547C98A83D
:1059B000D05C38D1DAF2AE8CDFF9D8B087A8C1C19B
:1059C000B188A8C6F9F9DA36D8A8F9DA36D8A8F92C
:1059D000DA36D8A8F9DA36D8A8F9DA36D8F78D9DAC
:1059E000ADF818DAF2AEDFD8F7ADFA30D9A4DEF9A7
:1059F000D8F2AEDEFAF983A7D9C3C5C7F1889BA751
:105A00007AADF7DEDFA4F8849408A797F300AEF22E
:105A10009819A488C6A39488F632DFF28393DB0931
:105A2000D9F2AADFD8D8AEF8F9D1DAF3A4DEA7F11B
:105A3000889B7AD8F38494AE19F9DAAAF1DFD8A852
:105A400081C0C3C5C7A39283F628ADDED9F8D8A319
:105A500050ADD9F8D8A378ADD9F8D8F8F9D1A1DAF2
:105A6000DEC3C5C7D8A18194F818F2B089ACC3C50C
:105A7000C7F1D8B8B4B09786A8319B069907AB9701
:105A800028889BF00C201440B0B4B8F0A88A9A285B
:105A90005078B79BA82951792470594469386448D3
:105AA00031F1BBAB88002C547CF0B38BB8A8042830
:105AB0005078F1B088B49726A85998BBABB38B0245
:105AC000264666B0B8F08A9CA82951798B2951796D
:105AD0008A2470598B2058718A4469388B39406800
