:020000040800F2
:100000001005002005010008F70400085F02000841
:10001000F504000897010008090A00080000000024
:100020000000000000000000000000002906000899
:1000300099010008000000005D050008FD060008A9
:100040001F0100081F0100081F0100081F01000810
:100050001F0100081F0100081F0100081F01000800
:100060001F0100081F0100081F0100081F010008F0
:100070001F0100081F0100081F0100081F010008E0
:100080001F0100081F010008790100081F01000876
:100090001F0100081F0100081F0100081F010008C0
:1000A0001F0100081F0100081F0100081F010008B0
:1000B0001F01000851070008750700081F0100080C
:1000C0001F0100081F0100081F0100081F01000890
:1000D0001F010008B90700081F01000821080008D7
:1000E0001F0100081F0100081F010008DFF810D0E1
:1000F00000F030F8004800475D0C0008AFF30080C6
:10010000100500200648804706480047FEE7FEE746
:10011000FEE7FEE7FEE7FEE7FEE7FEE7FEE7FEE7B7
:1001200001070008ED00000830B50B46014600202D
:100130002022012409E021FA02F59D4205D303FAA9
:1001400002F5491B04FA02F52844151EA2F101022A
:10015000F1DC30BD064C074D06E0E06840F00103DD
:1001600094E8070098471034AC42F6D3FFF7C2FF7B
:10017000900D0008B00D000810B5034800F008F815
:100180000249088010BD0000002801400000002046
:10019000C06C80B27047FEE770472DE9F041002245
:1001A000CC7804F00F03E40601D58C7823430C7857
:1001B0004FF00F0714F0FF0F4FF0010C1CD0056833
:1001C0000CFA02F40E882640A64211D1960007FAD6
:1001D00006F825EA080503FA06F848EA0505CE7888
:1001E000282E02D0482E02D002E0446100E00461D3
:1001F000521C082AE4D305600A88FF2A1ED94568E4
:10020000002202F108060CFA06F40E882640A642E7
:1002100010D1960007FA06F825EA080503FA06F851
:1002200048EA0505CE78282E00D14461CE78482EC4
:1002300000D10461521C082AE3D34560BDE8F08177
:100240000246002092680A4200D0012070470161F6
:100250007047002A01D00161704741617047FEE795
:100260002DE9F0478246DDE90865894690461F463C
:100270003B2000F008F904463C2000F004F940EA75
:100280000420AAF800003D2000F0FDF804463E20BE
:1002900000F0F9F840EA0420A9F800003F2000F03F
:1002A000F2F80446402000F0EEF840EA0420A8F8F6
:1002B0000000432000F0E7F80446442000F0E3F893
:1002C00040EA04203880452000F0DDF8044646204E
:1002D00000F0D9F840EA04203080472000F0D3F83D
:1002E0000446482000F0CFF840EA04202880BDE80A
:1002F000F087752000F0C7B838B50121082000F05C
:100300002FF914208DF803004FF44064ADF800403D
:1003100003208DF80200054D69462846FFF73DFF92
:1003200021462846FFF793FF38BD0000000C01402E
:1003300010B54FF400610448FFF782FF04460A201D
:1003400000F066FC204610BD000C014010B50120F5
:1003500000F06EF8012000F05DF8FFF7E9FF0446B9
:10036000002000F057F8204610BD70B50025012090
:1003700000F05EF800248026012000F04BF8FFF723
:10038000D7FF012802D126FA04F00543002000F02F
:1003900041F8641CE4B2082CEED3284670BD10B5B9
:1003A00000F046F8012000F035F8BDE810400020CC
:1003B00000F030B870B505460024802626FA04F017
:1003C000284000F035F8012000F024F8002000F06B
:1003D00021F8641CE4B2082CF0D370BD10B50120E4
:1003E00000F026F8012000F015F8002000F020F8B9
:1003F000BDE81040002000F00DB810B5002000F05E
:1004000017F8012000F006F8BDE81040012000F0C8
:100410000FB8000010B502464FF480610348FFF7A3
:1004200018FFBDE810400A2000F0F2BB000C0140AC
:1004300010B502464FF400610348FFF70AFFBDE81C
:1004400010400A2000F0E4BB000C014010B5FFF79B
:1004500053FF01216B2000F035F800216C2000F0E3
:1004600031F80921192000F02DF806211A2000F09A
:1004700029F818211B2000F025F81821BDE81040AC
:100480001C2000F01FB810B50446FFF7A7FFD020CE
:10049000FFF790FFFFF75AFF2046FFF78BFFFFF7AC
:1004A00055FFFFF79BFFD120FFF784FFFFF74EFFBB
:1004B000FFF75BFF04460120FFF771FFFFF79DFF89
:1004C000204610BD70B505460C46FFF787FFD020CB
:1004D000FFF770FFFFF73AFF2846FFF76BFFFFF7C4
:1004E00035FF2046FFF766FFFFF730FFBDE870409D
:1004F000FFF783BFFEE7704770B50F23C278012670
:100500000178002A1ED0144A126802F4E062C2F593
:10051000E062120AC2F10404D3404578A540827813
:100520001A402A43120101F1E02181F800240078E9
:1005300000F01F018E404009800000F1E020C0F86B
:10054000006170BD01F01F0086404809800000F185
:10055000E020C0F8806170BD0CED00E07047000045
:10056000054A002903D0916901439161704791695F
:1005700081439161704700000010024010B5264A87
:10058000516801F00C01254B002927D0042927D000
:10059000082927D00360516801F0F0010909204BB8
:1005A0005C5C0168E1404160546804F4E064240A42
:1005B0001C5D21FA04F48460546804F46054E40A75
:1005C0001B5DD940C160526802F44042920B144B4B
:1005D0001B1F9A5CB1FBF2F1016110BD0360DAE709
:1005E0000360D8E7516801F47011536803F4803355
:1005F000022404EB914133B153689B0307D5094BA7
:1006000059430160C7E7074B59430160C3E7034BF8
:1006100059430160BFE700000010024000127A0059
:100620001C00002000093D00704700F001B80000E8
:100630000CB50022019200922748016841F48031F4
:1006400001604FF4A063016801F400310091019949
:10065000491C0191009911B901999942F3D101689E
:10066000890302D50121009100E00092009901293F
:1006700030D11A490A6842F010020A600A6822F072
:1006800007020A600A6842F002020A60416841609B
:1006900041684160416841F480614160416821F4F2
:1006A0007C114160416841F4A8114160016841F04A
:1006B0008071016001688901FCD5416821F0030166
:1006C0004160416841F0020141604168C1F381012C
:1006D0000229FAD10CBD00000010024000200240A7
:1006E0004FF0E021042804D0086920F004000861DC
:1006F0007047086940F004000861704770470000C7
:1007000010B50F48016841F00101016041680D4AD0
:100710001140416001680C4A11400160016821F4F8
:1007200080210160416821F4FE0141604FF41F0106
:100730008160FFF77AFF05494FF00060086010BD47
:10074000001002400000FFF8FFFFF6FE08ED00E099
:1007500010B5074C0121204600F021F8012805D1F1
:100760002046BDE81040012100F016B810BD000081
:100770000004004010B5074C0121204600F00FF89E
:10078000012805D12046BDE81040012100F004B841
:1007900010BD000000080040C943018270470246B6
:1007A0000020138A0B4092890A40002B02D0002AB5
:1007B00000D001207047000070B5164C40F2255162
:1007C000204600F083F800280ED0204600F018F9EB
:1007D000C1B2114A9088030406D444044FF00003C8
:1007E00007D50A2901D0938070BD40F40040908065
:1007F00070BD0D290AD0094DC0F30D042955401CC8
:1008000080B29080C728F3D9938070BD40F48040B7
:10081000908070BD0038014030000020440000206E
:1008200070B51E4D40F225563146284600F04EF870
:10083000012831D1284600F0E3F8C2B2184C00205C
:100840000121237833B1012B09D0022B0ED0032BC9
:1008500018D01BE0FF2A19D12170607016E0FE2A23
:1008600001D0207012E0022020700FE00C48637865
:10087000801DC2545B1CDAB26270062A06D30320C4
:10088000207003E0FE2A01D12070A1703146284675
:10089000BDE8704000F006B870BD000000480040A0
:1008A0003000002040F66A120A0A01219140C94333
:1008B00001807047002904D0818941F40051818171
:1008C0007047818921F400518181704770B50024FF
:1008D00040F66A12C1F3421301F01F05012606FA21
:1008E00005F2012B0CD0022B0DD0838A1340090A8C
:1008F0008E40008830400BB100B10124204670BD0D
:1009000083891340F3E7038A1340F0E710B540F6FC
:100910006A13C1F3421301F01F040121A140012B0E
:1009200007D0022B07D014303AB102680A430260A4
:1009300010BD0C30F8E71030F6E702688A43026019
:1009400010BD000030B585B004460D46208A4CF637
:10095000FF710840E98801432182A0894EF6F31116
:100960000840A9882A8911436A8902431143A18159
:10097000A08A4FF6FF410840A9890143A182684639
:10098000FFF7FCFD1D48844201D1039800E0029866
:10099000A189090408D500EBC00101EB001029680A
:1009A0004900B0FBF1F007E000EBC00101EB0010E3
:1009B00029688900B0FBF1F06422B0FBF2F1090173
:1009C0000B096FF018056B4300EB8300A3891D042E
:1009D0004FF0320307D503EBC000B0FBF2F000F09C
:1009E0000700084306E003EB0010B0FBF2F000F054
:1009F0000F000843208105B030BD000000380140E1
:100A00008088C0F308007047FEE700000FB4054B74
:100A100010B503A9044A029800F018F810BC5DF85C
:100A200014FB0000450C00084000002002E008C84C
:100A3000121F08C1002AFAD170477047002001E058
:100A400001C1121F002AFBD1704700002DE9FF4FA2
:100A500089B09B460446002506E025280BD05A465F
:100A60000B999047641C6D1C20780028F5D10DB0BF
:100A70002846BDE8F08F0027B8460122474900E02C
:100A8000074314F8013F203B02FA03F00842F7D174
:100A900020782E2819D114F8010F47F004072A28CE
:100AA0000ED06FF02F022078A0F1300109290CD868
:100AB00008EB880102EB410100EB0108641CF2E73E
:100AC0000A98641C50F8048B0A9020780028CED035
:100AD000642808D0692806D075281ED05A460B997C
:100AE00090476D1C58E00A994FF00A0901C90A9114
:100AF000002802DA40422D2102E0390504D52B21DD
:100B00008DF82010012103E0F90704D02021F7E738
:100B10008A4608AE0DE00021FAE70A994FF00A096B
:100B200001C90A91F7E74946FFF7FEFA303106F8A6
:100B3000011D0028F7D1ADEB060000F12009780770
:100B400001D44FF00108C84502DDA8EB090000E020
:100B500000208046002706E008A85A46C05D0B9991
:100B600090476D1C7F1C5745F6DB04E030205A4649
:100B70000B9990476D1CB8F10001A8F10108F5DC54
:100B800005E016F8010B5A460B9990476D1CB9F118
:100B90000001A9F10109F4DC641C65E709280100E2
:100BA00010B56FF00400FFF79BFD09480949006884
:100BB000B0FBF1F00849C0B2087000EB4002C2EB94
:100BC000C0104FF6FF7202EAC000488010BD00005E
:100BD0000400002000127A002C0000200B494988F4
:100BE00048434FF0E021486100238B61086940F0E1
:100BF000010008610869C20701D0C003FAD508697D
:100C000020F0010008618B61704700002C0000207B
:100C10000B49097848434FF0E021486100238B617C
:100C2000086940F0010008610869C20701D0C003EB
:100C3000FAD5086920F0010008618B617047000057
:100C40002C00002004490A885206FCD5024AC1B291
:100C5000121D118070470000003801408AB04FF427
:100C6000165000F045F8FFF79BFFFFF7EFFBFFF78B
:100C700040FB074604AC05AD4FF47A78CDE900544B
:100C800006AB07AA08A909A8FFF7EAFABDF91430CC
:100C9000BDF91860BDF91020CDE900630292BDF9DD
:100CA0001C30BDF92020BDF9241005A0FFF7AEFED1
:100CB00039460DA0FFF7AAFE4046FFF78FFFDDE79C
:100CC00041583A25642C41593A25642C415A3A2519
:100CD000642C47583A25642C47593A25642C475AC6
:100CE0003A25640A0000000049443A25640A0000DD
:100CF00070B586B00546012144F20400FFF730FCD0
:100D00004FF40070ADF8140003248DF8164018213C
:100D10008DF817101C4E05A93046FFF73EFA311525
:100D2000ADF8141004218DF8171005A93046FFF70F
:100D300034FA25208DF800008DF801408DF802402E
:100D400001208DF803006846FFF7D6FB01950020CF
:100D5000ADF80800ADF80A00ADF80C00ADF81000D1
:100D60000C20ADF80E00094C01A92046FFF7EAFD62
:100D7000012240F225512046FFF7C8FD01212046FF
:100D8000FFF798FD06B070BD000801400038014033
:100D9000B00D000800000020440000002C0A0008EC
:100DA000F40D000844000020CC0400003C0A0008B8
:100DB00000000000007E560300000000000000005C
:100DC00001020304060708090204060800000000E7
:100DD00001020304010203040607080900000000E1
:100DE0000000000000000000000000000000000003
:040DF00000000000FF
:04000005080000ED02
:00000001FF
