:020000040800F2
:100000005809002005010008210200081D0200080F
:100010001F0200086B0100087507000800000000BF
:10002000000000000000000000000000250500089E
:100030006D0100080000000005050008DD0500084E
:100040001F0100081F0100081F0100081F01000810
:100050001F0100081F0100081F0100081F01000800
:100060001F0100081F0100081F0100081F010008F0
:100070001F0100081F0100081F0100081F010008E0
:100080001F0100081F0100084D0100081F010008A2
:100090001F0100081F0100081F0100081F010008C0
:1000A0001F0100081F0100081F0100081F010008B0
:1000B0001F0100081F0100081F0100081F010008A0
:1000C0001F0100081F0100081F0100081F01000890
:1000D0001F010008310600081F01000899060008EA
:1000E0001F0100081F0100081F010008DFF810D0E1
:1000F00000F01AF80048004795070008AFF30080A9
:10010000580900200648804706480047FEE7FEE7FA
:10011000FEE7FEE7FEE7FEE7FEE7FEE7FEE7FEE7B7
:10012000E1050008ED000008064C074D06E0E06818
:1001300040F0010394E8070098471034AC42F6D32E
:10014000FFF7D8FFB0070008D007000810B5034834
:1001500000F008F80249088010BD000000280140A6
:1001600000000020C06C80B27047FEE770472DE9A8
:10017000F0410022CC7804F00F03E40601D58C781E
:1001800023430C784FF00F0714F0FF0F4FF0010CD2
:100190001CD005680CFA02F40E882640A64211D144
:1001A000960007FA06F825EA080503FA06F848EA71
:1001B0000505CE78282E02D0482E02D002E04461F8
:1001C00000E00461521C082AE4D305600A88FF2A73
:1001D0001ED94568002202F108060CFA06F40E88C2
:1001E0002640A64210D1960007FA06F825EA08052F
:1001F00003FA06F848EA0505CE78282E00D14461B6
:10020000CE78482E00D10461521C082AE3D3456001
:10021000BDE8F0814161704701617047FEE7FEE78C
:100220007047000030B40021084C0022002004EB8D
:10023000C1031A54401CC0B28028FAD3491CC9B269
:100240000829F3D330BC00F029B90000D800002001
:1002500010B50446002C03D10021A62000F07CF844
:10026000012C05D10021BDE81040A72000F074B892
:1002700010BD000030B5CB0801F007040125A540F2
:10028000ECB2074D05EBC005C808002A285C02D077
:100290002043E85430BDC0432043C043E85430BD40
:1002A000D800002070B5054600240D4E280604D560
:1002B00002213046FFF7B0FF03E002213046FFF78E
:1002C000A9FF01213046FFF7A7FF01213046FFF7C4
:1002D000A1FF6806050E641CE4B2082CE6D370BDCD
:1002E0000008014010B5094C02212046FFF794FF99
:1002F00001212046FFF790FF02212046FFF78AFFE9
:100300002046BDE810400121FFF784BF00080140EE
:1003100010B5074C02212046FFF77CFF0121204643
:10032000FFF77AFF2046BDE810400221FFF774BFB7
:100330000008014010B5074C02212046FFF76CFF72
:1003400001212046FFF768FF2046BDE8104001214B
:10035000FFF760BF0008014070B505460C46FFF787
:10036000C1FF7820FFF79EFFFFF7E4FF1CB140209C
:10037000FFF798FF02E00020FFF794FFFFF7DAFF96
:100380002846FFF78FFFFFF7D5FFBDE87040FFF766
:10039000BFBF000038B50121042000F0B5F80320EC
:1003A000ADF8000014218DF803108DF802003A4CCE
:1003B00069462046FFF7DBFE03212046FFF72CFFAE
:1003C0000021AE20FFF7C8FF00210846FFF7C4FF59
:1003D00000211020FFF7C0FF00214020FFF7BCFFE5
:1003E00000218120FFF7B8FF0021CF20FFF7B4FFE5
:1003F0000021A120FFF7B0FF0021C820FFF7ACFFCC
:100400000021A620FFF7A8FF0021A820FFF7A4FFE6
:1004100000213F20FFF7A0FF0021D320FFF79CFF22
:1004200000210846FFF798FF0021D520FFF794FF31
:1004300000218020FFF790FF0021D920FFF78CFFDB
:100440000021F120FFF788FF0021DA20FFF784FF69
:1004500000211220FFF780FF0021DB20FFF77CFF47
:1004600000213020FFF778FF00212020FFF774FFE4
:1004700000210220FFF770FF00218D20FFF76CFFA5
:1004800000211420FFF768FFFFF7CCFE0021AF200A
:10049000FFF762FF38BD00000008014070B500257D
:1004A000174E05F1B000C0B20021FFF755FF002143
:1004B0000846FFF751FF00211020FFF74DFFFFF71F
:1004C00011FF7820FFF7EEFEFFF734FF4020FFF723
:1004D000E9FEFFF72FFF002406EBC4000121405D79
:1004E000FFF73AFFFFF726FF641CE4B2802CF3D33A
:1004F000FFF70EFF6D1CEDB2082DD2D370BD0000CA
:10050000D800002070470000054A002903D09169F7
:100510000143916170479169814391617047000087
:1005200000100240704700F001B800000CB5002236
:10053000019200922748016841F4803101604FF434
:10054000A063016801F4003100910199491C0191F7
:10055000009911B901999942F3D10168890302D533
:100560000121009100E000920099012930D11A493F
:100570000A6842F010020A600A6822F007020A6064
:100580000A6842F002020A604168416041684160C5
:10059000416841F480614160416821F47C1141600F
:1005A000416841F4A8114160016841F08071016027
:1005B00001688901FCD5416821F00301416041686F
:1005C00041F0020141604168C1F381010229FAD181
:1005D0000CBD0000001002400020024070470000E7
:1005E00010B50F48016841F00101016041680D4AF2
:1005F0001140416001680C4A11400160016821F41A
:1006000080210160416821F4FE0141604FF41F0127
:100610008160FFF788FF05494FF00060086010BD5A
:10062000001002400000FFF8FFFFF6FE08ED00E0BA
:1006300070B5164C40F22551204600F077F800289E
:100640000ED0204600F092F8C1B2114A90880304FF
:1006500006D444044FF0000307D50A2901D0938043
:1006600070BD40F40040908070BD0D290AD0094D46
:10067000C0F30D042955401C80B29080C728F3D9DF
:10068000938070BD40F48040908070BD0038014080
:10069000020000201000002070B51E4D40F22556CB
:1006A0003146284600F042F8012831D1284600F0B2
:1006B0005DF8C2B2184C00200121237833B1012B20
:1006C00009D0022B0ED0032B18D01BE0FF2A19D122
:1006D0002170607016E0FE2A01D0207012E0022026
:1006E00020700FE00C486378801DC2545B1CDAB2A6
:1006F0006270062A06D30320207003E0FE2A01D18F
:100700002070A17031462846BDE8704000F006B860
:1007100070BD0000004800400200002040F66A1250
:100720000A0A01219140C9430180704770B5002435
:1007300040F66A12C1F3421301F01F05012606FAC2
:1007400005F2012B0CD0022B0DD0838A1340090A2D
:100750008E40008830400BB100B10124204670BDAE
:1007600083891340F3E7038A1340F0E78088C0F3DE
:1007700008007047FEE702E008C8121F08C1002AFF
:10078000FAD170477047002001E001C1121F002A12
:10079000FBD17047FFF7FEFD0020FFF759FD012256
:1007A00006217820FFF766FDFFF778FEF7E70000E7
:1007B000D0070008000000201000000076070008A5
:1007C000E007000810000020480900008607000824
:1007D0000000000000000000000000000000000019
:04000005080000ED02
:00000001FF
