:020000040800F2
:10000000F004002005010008CD04000833020008B8
:10001000750300086B010008CD0A0008000000000D
:100020000000000000000000000000007D08000843
:100030006D010008000000005D0800083509000897
:100040001F0100081F0100081F0100081F01000810
:100050001F0100081F0100081F0100081F01000800
:100060001F0100081F0100081F0100081F010008F0
:100070001F0100081F0100081F0100081F010008E0
:100080001F0100081F0100084D0100081F010008A2
:100090001F0100081F0100081F0100081F010008C0
:1000A0001F0100081F0100081F0100081F010008B0
:1000B0001F0100081F0100081F0100081F010008A0
:1000C0001F0100081F0100081F0100081F01000890
:1000D0001F010008890900081F010008F109000834
:1000E0001F0100081F0100081F010008DFF810D0E1
:1000F00000F01AF800480047210B0008AFF3008019
:10010000F00400200648804706480047FEE7FEE767
:10011000FEE7FEE7FEE7FEE7FEE7FEE7FEE7FEE7B7
:1001200039090008ED000008064C074D06E0E068BC
:1001300040F0010394E8070098471034AC42F6D32E
:10014000FFF7D8FFB0110008D011000810B5034820
:1001500000F008F80249088010BD000000280140A6
:100160000E000020C06C80B27047FEE770472DE99A
:10017000F0410022CC7804F00F03E40601D58C781E
:1001800023430C784FF00F0714F0FF0F4FF0010CD2
:100190001CD005680CFA02F40E882640A64211D144
:1001A000960007FA06F825EA080503FA06F848EA71
:1001B0000505CE78282E02D0482E02D002E04461F8
:1001C00000E00461521C082AE4D305600A88FF2A73
:1001D0001ED94568002202F108060CFA06F40E88C2
:1001E0002640A64210D1960007FA06F825EA08052F
:1001F00003FA06F848EA0505CE78282E00D14461B6
:10020000CE78482E00D10461521C082AE3D3456001
:10021000BDE8F0810246002092680A4200D0012029
:10022000704701617047002A01D001617047416148
:100230007047FEE72DE9F0478246DDE9086589460B
:1002400090461F463B2000F05EF804463C2000F03C
:100250005AF840EA0420AAF800003D2000F053F8C4
:1002600004463E2000F04FF840EA0420A9F80000C0
:100270003F2000F048F80446402000F044F840EAEF
:100280000420A8F80000432000F03DF80446442074
:1002900000F039F840EA04203880452000F033F8B7
:1002A0000446462000F02FF840EA04203080472022
:1002B00000F029F80446482000F025F840EA042020
:1002C0002880BDE8F087752000F01DB810B500F05B
:1002D00053F801216B2000F035F800216C2000F06C
:1002E00031F80921192000F02DF806211A2000F01C
:1002F00029F818211B2000F025F81821BDE810402E
:100300001C2000F01FB810B5044600F0A7F8D0205C
:1003100000F090F800F05AF8204600F08BF800F05A
:1003200055F800F09BF8D12000F084F800F04EF86A
:1003300000F05BF80446012000F071F800F09DF831
:10034000204610BD70B505460C4600F087F8D02059
:1003500000F070F800F03AF8284600F06BF800F072
:1003600035F8204600F066F800F030F8BDE870403F
:1003700000F083B8FEE7000038B50121082000F046
:100380006FFA14208DF803004FF44064ADF800407C
:1003900003208DF80200054D69462846FFF7E7FE69
:1003A00021462846FFF73DFF38BD0000000C014004
:1003B00010B54FF400610448FFF72CFF04460A20F3
:1003C00000F094FB204610BD000C014010B5012048
:1003D00000F06EF8012000F05DF8FFF7E9FF044639
:1003E000002000F057F8204610BD70B50025012010
:1003F00000F05EF800248026012000F04BF8FFF7A3
:10040000D7FF012802D126FA04F00543002000F0AE
:1004100041F8641CE4B2082CEED3284670BD10B538
:1004200000F046F8012000F035F8BDE8104000204B
:1004300000F030B870B505460024802626FA04F096
:10044000284000F035F8012000F024F8002000F0EA
:1004500021F8641CE4B2082CF0D370BD10B5012063
:1004600000F026F8012000F015F8002000F020F838
:10047000BDE81040002000F00DB810B5002000F0DD
:1004800017F8012000F006F8BDE81040012000F048
:100490000FB8000010B502464FF480610348FFF723
:1004A000C2FEBDE810400A2000F020BB000C014055
:1004B00010B502464FF400610348FFF7B4FEBDE8F3
:1004C00010400A2000F012BB000C0140704770B5CC
:1004D00000250021284600F0F5F80024002000F057
:1004E000ACF9641CE4B2802CF8D36D1CEDB2082D7D
:1004F000EFD370BDF8B50121082000F0B1F9142048
:100500008DF8030003208DF802004FF48074ADF8DD
:1005100000400B4E69463046FFF729FE6500ADF8F6
:10052000005069463046FFF722FE01222146304640
:10053000FFF779FE012229463046FFF774FEF8BD29
:10054000000C01402DE9F04707460024134D4FF001
:1005500080094FF40078AE1529FA04F23A4041467A
:100560002846FFF760FE012231462846FFF75BFE72
:10057000002231462846FFF756FE641CE4B2082CE0
:10058000EAD3012231462846FFF74DFE3146284680
:10059000BDE8F0470022FFF746BE0000000C014016
:1005A00070B501220B4D540221462846FFF73BFE51
:1005B0000122160231462846FFF735FE0022214669
:1005C0002846FFF730FE31462846BDE8704000223D
:1005D000FFF729BE000C014070B50A4D4FF40074BE
:1005E000002221462846FFF71EFE0122110228465E
:1005F000FFF719FE21462846BDE870400122FFF7AB
:1006000012BE0000000C014010B500214FF47A72B8
:100610000020401C9042FCD3491C9142F8D3FFF7C4
:1006200069FFAE2000F0F8F8D52000F0F5F8802042
:1006300000F0F2F8A82000F0EFF83F2000F0ECF80E
:10064000D32000F0E9F8002000F0E6F8402000F0A8
:10065000E3F8A12000F0E0F8C82000F0DDF8DA208F
:1006600000F0DAF8122000F0D7F8812000F0D4F87A
:10067000CF2000F0D1F8D92000F0CEF8F12000F022
:10068000CBF8DB2000F0C8F8302000F0C5F8A4203B
:1006900000F0C2F8A62000F0BFF88D2000F0BCF8F2
:1006A000142000F0B9F8AF2000F0B6F8BDE8104013
:1006B000FFF70DBF0346012000E05843491E4A1CC6
:1006C000FBD1704710B50C4640F0B00000F0A4F824
:1006D000102040EA141000F09FF804F00F00BDE86D
:1006E000104000F099B800002DE9F0411546491E70
:1006F000461ECF007006F9B2000EFFF7E3FF00249C
:100700000E48203D00EB0515285D00F096F8641CAE
:10071000E4B2082CF8D3012000EB4600F9B2C0B2D5
:10072000FFF7D0FF00242819007A00F086F8641C37
:10073000E4B2082CF7D3BDE8F0810000C00B00083C
:100740002DE9F04781460E4690461F4600241BE0E7
:10075000391B491E1020FFF7ADFFB8FBF0F000F089
:100760000F050A2D07D230193035C1B2EAB248461A
:10077000FFF7BAFF06E030193735C1B2EAB2484692
:10078000FFF7B2FF641CE4B2BC42E1D3BDE8F087DE
:100790002DE9F0478246894617469846002F05DB2B
:1007A0002B2249465046FFF79FFF05E02D22494680
:1007B0005046FFF799FF7F4200240A2515E0A8EB79
:1007C0000401491E0A20FFF775FFB7FBF0F6B6FBE0
:1007D000F5F005FB106209EB0400401CC1B2303299
:1007E0005046FFF781FF641CE4B24445E7D3BDE8FF
:1007F000F0872DE9F04107460D461646002406E035
:100800002819C1B23846FFF76FFF641CE4B2325DAD
:10081000002AF5D1BDE8F08110B50446FFF7C0FE0F
:100820007820FFF78FFE0020FFF78CFE2046FFF7B1
:1008300089FEBDE81040FFF7CFBE10B50446FFF7B4
:10084000AFFE7820FFF77EFE4020FFF77BFE2046BC
:10085000FFF778FEBDE81040FFF7BEBE704700000E
:10086000054A002903D0916901439161704791695C
:10087000814391617047000000100240704700F012
:1008800001B800000CB500220192009227480168CF
:1008900041F4803101604FF4A063016801F400313C
:1008A00000910199491C0191009911B9019999424E
:1008B000F3D10168890302D50121009100E0009283
:1008C0000099012930D11A490A6842F010020A60E1
:1008D0000A6822F007020A600A6842F002020A600F
:1008E0004168416041684160416841F48061416014
:1008F000416821F47C114160416841F4A8114160D4
:10090000016841F08071016001688901FCD541688E
:1009100021F003014160416841F0020141604168FA
:10092000C1F381010229FAD10CBD00000010024080
:10093000002002407047000010B50F48016841F0E8
:100940000101016041680D4A1140416001680C4A93
:1009500011400160016821F480210160416821F4A7
:10096000FE0141604FF41F018160FFF788FF0549D8
:100970004FF00060086010BD001002400000FFF85A
:10098000FFFFF6FE08ED00E070B5164C40F2255171
:10099000204600F077F800280ED0204600F092F8AC
:1009A000C1B2114A9088030406D444044FF00003F6
:1009B00007D50A2901D0938070BD40F40040908093
:1009C00070BD0D290AD0094DC0F30D042955401CF6
:1009D00080B29080C728F3D9938070BD40F48040E6
:1009E000908070BD003801401400002024000020D9
:1009F00070B51E4D40F225563146284600F042F8AB
:100A0000012831D1284600F05DF8C2B2184C002010
:100A10000121237833B1012B09D0022B0ED0032BF7
:100A200018D01BE0FF2A19D12170607016E0FE2A51
:100A300001D0207012E0022020700FE00C48637893
:100A4000801DC2545B1CDAB26270062A06D30320F2
:100A5000207003E0FE2A01D12070A17031462846A3
:100A6000BDE8704000F006B870BD000000480040CE
:100A70001400002040F66A120A0A01219140C9437D
:100A80000180704770B5002440F66A12C1F342132A
:100A900001F01F05012606FA05F2012B0CD0022BEE
:100AA0000DD0838A1340090A8E40008830400BB174
:100AB00000B10124204670BD83891340F3E7038A07
:100AC0001340F0E78088C0F308007047FEE702E0BB
:100AD00008C8121F08C1002AFAD1704770470020C9
:100AE00001E001C1121F002AFBD170470B490978B0
:100AF00048434FF0E021486100238B61086940F0D2
:100B0000010008610869C20701D0C003FAD508696D
:100B100020F0010008618B61704700001000002088
:100B20001CB5FFF771FDFFF7D1FB012122A208469A
:100B3000FFF75FFEFFF7C7FB204C20700246022341
:100B400004210120FFF7FCFD04F10C05AE1E1B4B38
:100B5000CDE9006508339A1E911E881EFFF76AFBD7
:100B60000523B4F9022001210220FFF711FE05231D
:100B7000B4F9042001210320FFF70AFE0523B4F98C
:100B8000062001210420FFF703FE0523B4F9082005
:100B900008210220FFF7FCFD0523B4F90A200821F3
:100BA0000320FFF7F5FD0523B4F90C2008210420EC
:100BB000FFF7EEFDCBE7000049443A0000000020BB
:100BC0000000000000000000000000000000000025
:100BD000000000F8000000000000003330000000BA
:100BE00000100C06100C06000000000000000000C1
:100BF00040C07840C0784000043F04043F04040033
:100C0000007088FC08300000001820FF211E000042
:100C1000F008F000E018000000211C031E211E0057
:100C200000F00888700000001E21232419272110DD
:100C300010160E0000000000000000000000000080
:100C4000000000E018040200000000071820400027
:100C500000020418E0000000004020180700000017
:100C6000404080F0804040000202010F010202007B
:100C7000000000F0000000000101011F010101005F
:100C8000000000000000000080B0700000000000C4
:100C9000000000000000000000010101010101014D
:100CA00000000000000000000030300000000000E4
:100CB00000000000806018040060180601000000B9
:100CC00000E010080810E000000F102020100F00B6
:100CD000001010F8000000000020203F202000003D
:100CE0000070080808887000003028242221300095
:100CF00000300888884830000018202020110E009D
:100D00000000C02010F8000000070424243F240045
:100D100000F80888880808000019212020110E001A
:100D200000E0108888180000000F112020110E002C
:100D300000380808C83808000000003F0000000024
:100D40000070880808887000001C222121221C00E5
:100D500000E010080810E0000000312222110F000E
:100D6000000000C0C00000000000003030000000A3
:100D70000000008000000000000080600000000013
:100D8000000080402010080000010204081020002C
:100D90004040404040404000040404040404040077
:100DA000000810204080000000201008040201000C
:100DB000007048080808F00000000030360100000C
:100DC000C030C828E810E0000718272423140B00BF
:100DD0000000C038E0000000203C23020227382039
:100DE00008F8888888700000203F202020110E001D
:100DF000C030080808083800071820202010080014
:100E000008F808080810E000203F202020100F00FC
:100E100008F88888E8081000203F202023201800C8
:100E200008F88888E8081000203F20000300000030
:100E3000C03008080838000007182020221E0200D1
:100E400008F808000008F808203F210101213F2090
:100E5000000808F8080800000020203F20200000BB
:100E600000000808F8080800C08080807F000000AB
:100E700008F888C028180800203F200126382000E4
:100E800008F8080000000000203F2020202030004B
:100E900008F8F800F8F80800203F003F003F200065
:100EA00008F830C00008F808203F200007183F006D
:100EB000E01008080810E0000F10202020100F009C
:100EC00008F808080808F000203F2101010100008F
:100ED000E01008080810E0000F18242438504F00D4
:100EE00008F8888888887000203F2000030C302094
:100EF00000708808080838000038202121221C00D2
:100F0000180808F8080818000000203F200000001A
:100F100008F808000008F808001F202020201F0003
:100F20000878880000C83808000007380E01000063
:100F3000F80800F80008F800033C0700073C03002D
:100F4000081868808068180820302C03032C302093
:100F50000838C800C83808000000203F2000000002
:100F600010080808C838080020382621202018005A
:100F7000000000FE020202000000007F404040002E
:100F8000000C30C000000000000000010638C00066
:100F900000020202FE000000004040407F0000000E
:100FA0000000040202020400000000000000000033
:100FB0000000000000000000808080808080808031
:100FC0000002020400000000000000000000000019
:100FD00000008080808000000019242222223F200F
:100FE00008F8008080000000003F112020110E0052
:100FF0000000008080800000000E112020201100E1
:10100000000000808088F800000E112020103F2092
:101010000000808080800000001F22222222130016
:10102000008080F0888888180020203F2020000061
:101030000000808080808000006B94949493600016
:1010400008F8008080800000203F210000203F2021
:1010500000809898000000000020203F2020000021
:10106000000000809898000000C08080807F000011
:1010700008F8000080808000203F24022D302000EE
:10108000000808F8000000000020203F2020000099
:101090008080808080808000203F20003F20003FB3
:1010A0008080008080800000203F210000203F20C1
:1010B0000000808080800000001F202020201F0072
:1010C000808000808000000080FFA12020110E00A1
:1010D0000000008080808000000E112020A0FF8092
:1010E000808080008080800020203F21200001003F
:1010F0000000808080808000003324242424190094
:10110000008080E0808000000000001F20200000A0
:101110008080000000808000001F202020103F20E1
:10112000808080000080808000010E300806010071
:1011300080800080008080800F300C030C300F0016
:1011400000808000808080000020312E0E31200041
:10115000808080000080808080818E701806010071
:1011600000808080808080000021302C222130008F
:1011700000000000807C020200000000003F4040B0
:1011800000000000FF00000000000000FF00000061
:101190000002027C800000000040403F0000000090
:1011A000000601010202040400000000000000002B
:1011B000D01100080000002024000000CE0A000822
:1011C000F411000824000020CC040000DE0A00080E
:1011D000000000000000000000000000000000000F
:1011E00000000000000000000000000000000000FF
:0411F00000000000FB
:04000005080000ED02
:00000001FF
