:020000040800F2
:10000000C805002005010008090E0008AF0B000814
:10001000CD0D000853090008111C00080000000065
:100020000000000000000000000000004D12000869
:10003000B509000800000000710E0008A1130008B7
:100040001F0100081F0100081F0100081F01000810
:100050001F0100081F0100081F0100081F01000800
:100060001F0100081F0100081F0100081F010008F0
:100070001F0100081F0100081F0100081F010008E0
:100080001F0100081F010008350900081F010008B2
:100090001F0100081F0100081F0100081F010008C0
:1000A0001F0100081F0100081F0100081F010008B0
:1000B00079160008AD160008D11600081F010008C7
:1000C0001F0100081F0100081F0100081F01000890
:1000D0001F010008551A00081F0100081F01000831
:1000E0001F0100081F0100081F010008DFF810D0E1
:1000F00000F0ACFB004800479D260008AFF30080ED
:10010000C80500200648804706480047FEE7FEE78E
:10011000FEE7FEE7FEE7FEE7FEE7FEE7FEE7FEE7B7
:10012000A5130008ED000008F0B480EA0102D40F26
:100130004200B2EB410F02D20246084611464A0085
:1001400042D0C30DDDB2C1F3C752AD1A202D35DA4E
:10015000C1F3160141F4000204B15242C5F1200678
:1001600002FA06F12A411044B3EBD05F23D0C4B1A8
:10017000012DA0EBC35009DCF0BC4FF0004202EAB5
:10018000C352DBB200F5000000F036BA400000F1C7
:10019000807000EBC350A0F1807040EAD17049003C
:1001A00009E0490841EAC071A0EBC35000F5000026
:1001B000400800EBC350F0BC00F015BA61420122C8
:1001C00002EB4101001BF6E7F0BC704781F00041F3
:1001D000AAE780F00040A7E780EA010210B502F02C
:1001E0000043400022D04A001FD0010E01EB1261F3
:1001F000C0F35600C2F3560240F4000042F400027D
:10020000A0FB022000047F39140400D0401C50EAF7
:10021000124001D44000491EC2B20C0604EBD010BB
:10022000401C4008802A02D003E0002010BD20F0CE
:100230000100002900DA0020184310BD30B480EA24
:10024000010202F0004530F0004221F0004013D0DE
:1002500090B1C30DD40DC2F31601C0F31600E41A19
:1002600041F4000140F400027D34914201D3641C4A
:1002700000E04900002C02DA30BC002070474FF447
:1002800000000023914201D3891A034340084FEA3A
:100290004101F7D151B1914202D14FF0004105E047
:1002A00002D24FF0010101E06FF0010103EBC450F5
:1002B000284430BC00F097B9420005D0C0F3C752C3
:1002C0005242914201DC0020704700EBC150704760
:1002D0002DE9FE4F804681EA0300C00F0C460090D6
:1002E00021F0004123F00045B8EB0200A94105D2FE
:1002F0004046214690461C460B46024623F00040ED
:10030000104347D0270DC7F30A00C3F30A510290E8
:10031000401A019040286BDAC3F3130040F4801BAD
:100320000098924620B10023D2EB030A63EB0B0B3B
:1003300001985946C0F14002504600F033F9064694
:100340000D4650465946019A00F03BF910EB080063
:100350006141002487EA115284EAE7731A4340D0CE
:10036000009A62B3019A012A4FEA075215DC001B7A
:1003700061EB02014FF0004202EA0752CDE9004270
:10038000001C41F5801132462B4600F072F903B093
:10039000BDE8F08F40462146F9E7001B61EB020102
:1003A000001C41F5801300185B412018A2F50017CE
:1003B00047EB030140EAD570B6196D4111E06D08B5
:1003C0004FEA360645EAC0754FEA0752001B61EB5B
:1003D0000201001C41F5801149084FEA3000001964
:1003E000514132462B4603B0BDE8F04F00F032B920
:1003F0000098012240000023D0EB020263EBE0737F
:10040000009821464FEAE074B8EB000061EB04016C
:10041000E9E783F000435BE781F0004158E72DE90D
:10042000FE4F81EA030404F0004421F000410094EF
:100430004FF0000B23F0004350EA01045ED052EA73
:1004400003045BD0C3F30A54C1F30A552C44A4F24D
:10045000F3340194A0FB0254C1F3130141F4801161
:10046000C3F3130343F4801301FB024400FB034E68
:10047000840A970A44EA815447EA8357A4FB076831
:1004800002958D0A05FB07854FEA932C04FB0C545B
:100490002705029D4FEA065847EA1637B5EB0805CF
:1004A0006EEB070C870E920E47EA811742EA831221
:1004B000A7FB0201B6EB0B0164EB00042B0D43EA32
:1004C0000C335E1844EB1C50DA465146E7FB020140
:1004D000C5F313044FEA0B3343EA14534FEA0432D3
:1004E000019C43EA0603A4F10C040294009CCDE9AC
:1004F00000B400F0BEF803B0BDE8F08F0020014664
:10050000F9E7C10F80EAE0700844CA07962300218A
:1005100000F072B800F0004220F00040C10DC0F3BE
:10052000160040F400007F2901DA00207047962968
:1005300003DCC1F19601C84001E096398840002AE9
:10054000F4D04042704700F0004230F000400AD042
:10055000C10D01F56071C0F3160042EA0151C208F5
:1005600040071143704700200146704701F00043E7
:1005700030B421F0004150EA010206D00A0DA2F584
:100580006072C1F31301002A02DC30BC0020704706
:10059000440F44EAC104C100E01830BC00EBC25073
:1005A00000F021B8202A04DB203A00FA02F10020F2
:1005B00070479140C2F1200320FA03F319439040A1
:1005C0007047202A06DBCB17203A41FA02F043EAB3
:1005D000E07306E041FA02F3D040C2F120029140FC
:1005E0000843194670470029A8BF7047401C4900BE
:1005F00008BF20F00100704710B4B0FA80FC00FA88
:100600000CF050EA010404BF10BC704749B1CCF1B2
:10061000200421FA04F411FA0CF118BF012121433E
:100620000843A3EB0C01CB1D4FEA00614FEA1020F9
:1006300042BF002010BC704700EBC350104400299B
:10064000A4BF10BC7047401C490008BF20F0010047
:1006500010BC704710B5141E73F1000408DA401C7A
:1006600041F1000192185B411A4301D120F00100D1
:1006700010BD2DE9F04D92469B4611B1B1FA81F2C1
:1006800002E0B0FA80F220329046FFF78BFF04467A
:100690000F4640EA0A0041EA0B0153465A46084316
:1006A00013D0114653EA010019D0C8F14002504658
:1006B00000F0DEF805460E46504659464246FFF722
:1006C00071FF084305D0012004E020463946BDE80B
:1006D000F08D0020054346EAE0762C4337430A9824
:1006E0006305E40AA0EB08000022FD0A44EA47542F
:1006F0000A3002D500200146E9E7010510196941D9
:10070000DDE9084500196941BDE8F04DA2E72DE992
:10071000F04D81EA030404F0004B21F0004514463B
:100720004FF0000A23F0004150EA050220D054EABD
:1007300001021DD0C5F30A570246C5F31303C1F3E6
:100740001300C1F30A5640F4801543F48013A7EB5D
:100750000608101BD64608F2FD3873EB050002D3DD
:1007600008F1010801E092185B41B8F1000F03DACB
:1007700000200146BDE8F08D00204FF480110646B0
:1007800084460EE0171B73EB050705D3121B63EBC2
:10079000050306434CEA010C49084FEA3000921861
:1007A0005B4150EA0107EDD152EA030012D082EA20
:1007B000040083EA0501084305D0101BAB4106D2B3
:1007C0000122002306E000224FF0004302E06FF018
:1007D000010253101AEB06004CEB085110EB0A0013
:1007E00041EB0B01BDE8F04DFFF734BF70B521F0D0
:1007F000004303430CD0C1F30A550024D5EB040594
:1008000064EB0403D617AD1AB34102DB00200146A6
:1008100070BD201841EB025170BD000030B5041EC0
:1008200071F1000404DB4FF00044404264EB01012D
:10083000141E73F1000405DB1C464FF000435242C6
:1008400063EB04038B4208BF824230BD064C074D68
:1008500006E0E06840F0010394E807009847103490
:10086000AC42F6D3FFF746FC582B0008782B000863
:10087000202A04DB203A21FA02F00021704721FAF5
:1008800002F3D040C2F1200291400843194670475C
:100890002DE9F04D00231A461B1A8A4103DB002084
:1008A0000146BDE8F08DC1F30A52C1F3130141F4D2
:1008B00080154FF0000BD10702D100186D41521E78
:1008C0000027044640F2FF11384601EB620A3E461B
:1008D0008046024600204FF48011FFF7C9FFC2197D
:1008E0007141BB1846EB0100B4EB030C75EB000C37
:1008F00004D3E41A65EB000517460E46241908F1E7
:1009000001006D4180463428E3DDF91946EB06000D
:10091000091BA84103D24FF0FF32134601E0002229
:1009200013461BEB070046EB0A51BDE8F04DFFF7FD
:1009300091BE000010B5034800F008F80249088095
:1009400010BD0000002801401C000020C06C80B2D7
:100950007047FEE710B5401AFFF7D3FD07490EC9EF
:1009600000F088FAB0F5E15F02DB41F61F4010BDF0
:1009700010F5E15FFBDC024810BD0000A80000207C
:10098000E1E3FFFF10B5401AFFF7BBFD07490EC9B1
:1009900000F0A8FAB0F5E15F02DB41F61F4010BDA0
:1009A00010F5E15FFBDC024810BD0000A80000204C
:1009B000E1E3FFFF704710B500F004F8BDE8104018
:1009C00000F054B810B588B00121022000F0C2FA3E
:1009D0000121042000F0CCFAC020ADF8040004206E
:1009E0008DF8070001A91F4800F08EF805A801F056
:1009F00027F80020ADF814004FF6FF71ADF818107D
:100A0000ADF81A00ADF81600174C05A9204600F005
:100A1000C9FF00231A460321204600F08BFE02A8DE
:100A200000F0F6FE0A21ADF8101002A9204600F0F1
:100A3000A9FE0121204600F05DFE0122114620465C
:100A400000F0EEFE0021204600F081FF064A47F646
:100A5000FF71243211800121204600F051FE08B0C0
:100A600010BD0000000801400004004010B588B02F
:100A70000121042000F06EFA0121082000F078FA2C
:100A8000C020ADF8040004208DF8070001A91C481F
:100A900000F03AF805A800F0D3FF0020ADF81400EC
:100AA0004FF6FF71ADF81810ADF81A00ADF816004A
:100AB000144C05A9204600F075FF00231A460321B7
:100AC000204600F037FE02A800F0A2FE0A21ADF891
:100AD000101002A9204600F055FE0121204600F02A
:100AE00009FE01221146204600F09AFE0021204610
:100AF00000F02DFF0121204600F002FE08B010BDDD
:100B0000000C0140000800402DE9F0410022CC78A3
:100B100004F00F03E40601D58C7823430C784FF0E2
:100B20000F0714F0FF0F4FF0010C1CD005680CFAF2
:100B300002F40E882640A64211D1960007FA06F864
:100B400025EA080503FA06F848EA0505CE78282EB6
:100B500002D0482E02D002E0446100E00461521C41
:100B6000082AE4D305600A88FF2A1ED945680022B6
:100B700002F108060CFA06F40E882640A64210D1AF
:100B8000960007FA06F825EA080503FA06F848EA87
:100B90000505CE78282E00D14461CE78482E00D1AC
:100BA0000461521C082AE3D34560BDE8F081FEE7EA
:100BB00070B50A4C002525600948016821F0704194
:100BC0000160016841F040510160656000F00AF881
:100BD0000120206000F006F8256070BDAC012242C3
:100BE000000C0140022001F013BC000070B50A4C5B
:100BF000002525600948016821F070410160016805
:100C000041F04051016001266660FFF7EBFF26606E
:100C1000FFF7E8FF256070BDAC012242000C0140E7
:100C20002DE9F047814600241548016821F0704104
:100C30000160016841F0004101600025114E00276C
:100C40004FF00108C6F8AC71FFF7CCFFC6F8AC81D5
:100C50006006040ED6F8300108B1641CE4B2FFF758
:100C6000C1FF6D1CEDB2082DECD3B9F1000F04D01B
:100C7000FFF79EFF2046BDE8F087FFF7B7FFF9E7D3
:100C8000000C0140000022422DE9F04105461448C5
:100C9000016821F070410160016841F0405101603C
:100CA000104E4FF00008C6F8AC810024012728063A
:100CB00002D5C6F8B07101E0C6F8B0816806050E2D
:100CC000FFF790FFC6F8AC71FFF78CFFC6F8AC8158
:100CD000FFF788FF641CE4B2082CE8D3BDE8F0817C
:100CE000000C01400000224270B51248016821F05A
:100CF00070410160016841F0405101600E4C0120DB
:100D0000C4F8B001D4F8301100290BD0C4F8AC01FC
:100D1000FFF768FF0025C4F8B051D4F8300118B1CE
:100D2000002070BD002070BDFFF75CFFC4F8AC511F
:100D3000012070BD000C01400000224210B50B489C
:100D4000016821F070410160016841F0405101608B
:100D5000074C002020606060FFF744FF0120206006
:100D60006060BDE81040FFF73DBF0000000C01408F
:100D7000AC01224270B500241248016821F0704194
:100D80000160016841F0004101600F4D0126C5F886
:100D9000B061FFF727FFC5F8AC61FFF723FF09E05B
:100DA000641CE4B2642C03D9FFF7C8FF002070BDB7
:100DB000FFF718FFD5F830010028F1D1C5F8AC01D4
:100DC000012070BD000C014000002242FEE700003F
:100DD00008B5002141F61F4000F0FEFB012108206C
:100DE00000F0C6F84FF47040ADF8000010208DF808
:100DF000030003208DF8020069460248FFF784FED5
:100E000008BD0000000C01407047000070B50F23C2
:100E1000C27801260178002A1ED0144A126802F412
:100E2000E062C2F5E062120AC2F10404D3404578E0
:100E3000A54082781A402A43120101F1E02181F88D
:100E40000024007800F01F018E404009800000F16E
:100E5000E020C0F8006170BD01F01F008640480925
:100E6000800000F1E020C0F8806170BD0CED00E072
:100E7000704700002DE9FF470546DDF80480DDF8E6
:100E80000890039F154C2946E069FFF74DF9E06192
:100E900001464846FFF7A0F90646114A964204DD8E
:100EA00049461046FFF7CAF9E0612846216AFFF774
:100EB0008DF93946FFF790F9074629464046FFF776
:100EC0008BF93146FFF730F93946FFF72DF9FFF777
:100ED00021FB256204B0BDE8F0870000B4000020CB
:100EE00000F8E0452DE9FF470546DDF80480DDF810
:100EF0000890039F154C2946E06AFFF715F9E06258
:100F000001464846FFF768F90646114A964204DD55
:100F100049461046FFF792F9E0622846216BFFF739
:100F200055F93946FFF758F9074629464046FFF775
:100F300053F93146FFF7F8F83946FFF7F5F8FFF7B0
:100F4000E9FA256304B0BDE8F0870000B400002092
:100F500000F8E045054A002903D0D1690143D16179
:100F60007047D1698143D161704700000010024091
:100F7000054A002903D09169014391617047916945
:100F800081439161704700000010024010B5264A6D
:100F9000516801F00C01254B002927D0042927D0E6
:100FA000082927D00360516801F0F0010909204B9E
:100FB0005C5C0168E1404160546804F4E064240A28
:100FC0001C5D21FA04F48460546804F46054E40A5B
:100FD0001B5DD940C160526802F44042920B144B31
:100FE0001B1F9A5CB1FBF2F1016110BD0360DAE7EF
:100FF0000360D8E7516801F47011536803F480333B
:10100000022404EB914133B153689B0307D5094B8C
:1010100059430160C7E7074B59430160C3E7034BDE
:1010200059430160BFE700000010024000127A003F
:101030003800002000093D002DE9F74F8AB0054631
:101040008946DFF8C08107A8CDE9008008F11A01C0
:1010500008AB03AA881F01F0F5F9B8F80000C00535
:101060007ED50398FFF74DFA6FF01D073946FFF75D
:1010700023F90446C8F804000498FFF742FA3946F9
:10108000FFF71AF90646C8F808000598FFF739FA7D
:101090003946FFF711F98246C8F80C000698FFF7A9
:1010A00030FA3946FFF708F90746C8F81000012161
:1010B0002046FFF701F95146FFF78EF882464FF0C0
:1010C000404421463046FFF787F83946FFF784F859
:1010D0005146FFF729F8FFF736FA00F02DFE4A4F88
:1010E0004FF0663632463B46FFF799F9FFF73EFA76
:1010F0002860D8F80C0001210546FFF7DDF882468C
:101100002946FFF769F80546D8F8080021468346C6
:10111000FFF762F85946FFF75FF82946FFF756F8E0
:101120004FF07E51FFF700F8FFF70DFA04460D4629
:101130000121D8F80400FFF7BFF85946FFF74CF833
:1011400083465046D8F81010FFF746F85946FEF788
:10115000EBFFFFF7F8F922462B4601F035F800E0E7
:101160004CE032463B46FFF75AF9FFF7FFF9C9F862
:101170000000D8F8101089464846FFF72DF8D8F837
:101180000C10044608460991FFF726F8D8F8081015
:1011900005468A465046FFF71FF8D8F804108346E4
:1011A00088464046FFF718F85946FEF7BDFF294626
:1011B000FFF70CF82146FFF709F8FFF7C4F90446DA
:1011C0000D4649464046FFF707F8804650460999C4
:1011D000FFF702F84146FEF7A7FF0121FFF76CF881
:1011E000FFF7B1F922462B4600F0EEFF32463B46B0
:1011F000FFF715F9FFF7BAF90C9908600DB0BDE8D3
:10120000F08F00007C00002066A64C4070B50328DB
:1012100004D004280CD00024204670BD094D284677
:1012200000F0A1FA04B20021284600F090FBF3E799
:10123000054D284600F097FA04B20021284600F038
:1012400086FBE9E70004004000080040704700000A
:1012500030B4002201230D490D4D41F61F440028F2
:1012600009DDC1F8B431C1F8B021201A81B2284695
:1012700030BC00F067BBC1F8B421C1F8B0312044E4
:1012800081B2284630BC00F05DBB000000802142E6
:10129000002C014030B4002301220B490B4C0028E4
:1012A00008DDC1F8B821C1F8BC3181B2204630BC9C
:1012B00000F04ABBC1F8B831C1F8BC21404281B24C
:1012C000204630BC00F040BB00802142002C014091
:1012D000AFF300800CB5002201920092274801680C
:1012E00041F4803101604FF4A063016801F40031E2
:1012F00000910199491C0191009911B901999942F4
:10130000F3D10168890302D50121009100E0009228
:101310000099012930D11A490A6842F010020A6086
:101320000A6822F007020A600A6842F002020A60B4
:101330004168416041684160416841F480614160B9
:10134000416821F47C114160416841F4A811416079
:10135000016841F08071016001688901FCD5416834
:1013600021F003014160416841F0020141604168A0
:10137000C1F381010229FAD10CBD00000010024026
:10138000002002404FF0E021042804D0086920F03A
:10139000040008617047086940F004000861704764
:1013A0007047000010B50F48016841F0010101606D
:1013B00041680D4A1140416001680C4A11400160CA
:1013C000016821F480210160416821F4FE0141603F
:1013D0004FF41F018160FFF77BFF05494FF000606C
:1013E000086010BD001002400000FFF8FFFFF6FE8D
:1013F00008ED00E070B5048C24F001040484058B32
:10140000048C25F0F3054FF6FF7606EA0313134329
:101410002B43104A90420ED00F4A90420BD0B0F1AD
:10142000804F08D00D4A904205D00D4A904202D01C
:101430000C4A904205D124F002020A4342F0010115
:1014400004E024F00A020A4342F00101038301840C
:1014500070BD0000002C0140003401400004004039
:1014600000080040000C0040F0B5048C24F010048B
:101470000484068B048C4FF6FF7505EA011726F4E9
:10148000734605EA0333334305EA02221A43104B3D
:1014900098420ED00F4B98420BD0B0F1804F08D03D
:1014A0000D4B984205D00D4B984202D00C4B984200
:1014B00005D124F02001394341F0100104E024F06B
:1014C000A0030B4343F0100102830184F0BD000030
:1014D000002C01400034014000040040000800409E
:1014E000000C0040F0B5048C24F480740484858BD7
:1014F000048C4FF6FF7707EA012625F0F30507EA8B
:10150000031313432B43104A90420ED00F4A9042CC
:101510000BD0B0F1804F08D00D4A904205D00D4A53
:10152000904202D00C4A904205D124F4007131431C
:1015300041F4807104E024F420620A4342F4807193
:1015400083830184F0BD0000002C01400034014081
:101550000004004000080040000C0040F0B5048C7E
:1015600024F480540484868B048C4FF6FF7505EABE
:10157000013726F4734605EA0222324305EA0333B3
:101580001343104A90420ED00F4A90420BD0B0F154
:10159000804F08D00D4A904205D00D4A904202D0AB
:1015A0000C4A904205D124F40051394341F4805152
:1015B00004E024F402420A4342F48051838301840C
:1015C000F0BD0000002C0140003401400004004048
:1015D00000080040000C004030B589B004460D46BC
:1015E0000121C802FFF7C4FC01210520FFF7C0FC60
:1015F00018228DF807204FF41062ADF80420032262
:101600008DF8062001A91A48FFF77EFAADF81C40B4
:10161000ADF818500024ADF81E40ADF81A40154D35
:1016200006A9284600F0BEF96021ADF80810012196
:10163000ADF80A10ADF81040ADF80E4002A92846EA
:1016400000F0F8F802A9284600F03EF908212846E3
:1016500000F034F90821284600F06AF901212846F3
:1016600000F04EF80121284600F056F809B030BDD0
:1016700000080140002C014010B501218C072046D4
:1016800000F073F8012804D1054A06490648FFF71F
:10169000D3FC2046BDE81040012100F02EB8000028
:1016A00008000020040000200000002010B5074CB6
:1016B0000121204600F059F8012805D12046BDE857
:1016C0001040012100F019B810BD000000040040D6
:1016D00010B5074C0121204600F047F8012805D13C
:1016E0002046BDE81040012100F007B810BD000001
:1016F00000080040C94301827047C9430182704716
:10170000002904D0018841F001010180704701885F
:1017100021F0010101807047002905D030F8441FF5
:1017200041F400410180704730F8441FC1F30E01BD
:101730000180704770B50589048B068C25F007057C
:101740000D434FF6FC410C4040F201110C4326F0D2
:1017500022064FF6FF7101EA03111143314305815F
:101760000483018470BD808C704702460020138A78
:101770000B4092890A40002B02D0002A00D00120A1
:101780007047000070B505460C461D48854209D0DB
:101790001C48854206D0B5F1804F03D01A488542D7
:1017A00000D01A4820886188A288238960B1042863
:1017B00013D008281AD02846FFF7D0FEE188284623
:1017C000BDE8704000F0E1B82846FFF713FEE1885D
:1017D0002846BDE8704000F0BCB82846FFF744FE3C
:1017E000E1882846BDE8704000F0BBB82846FFF706
:1017F00079FEE1882846BDE8704000F0BEB80000E0
:10180000002C01400034014000040040000800406A
:1018100000210180418001228280C18001817047C6
:10182000002A03D082890A438281704782898A43D1
:101830008281704730B5028C22F001020284028C52
:101840008388048B24F0700424F003050C882C4357
:1018500022F002020D8915434A882A43124DA842FC
:101860000BD0124DA84208D0114DA84205D0114D01
:10187000A84202D0104DA8420FD122F008054A8993
:101880002A4322F004058A882A4323F4807323F430
:1018900000738D891D43CB892B4383800483C988C2
:1018A0008186028430BD0000002C014000340140DC
:1018B000004001400044014000480140028B22F0FA
:1018C00008020A430283704770B5028C22F48052EA
:1018D0000284058C8288838B23F4E04323F44076D2
:1018E0000C884FF6FF7303EA0424344325F40055B3
:1018F0000E8903EA06362E434D8803EA0535354343
:10190000094EB04202D0094EB04205D122F48046C1
:101910008A8903EA8212324382808483C988A0F8CC
:101920004010058470BD0000002C014000340140CF
:10193000828B22F400624FF6FF7303EA0121114308
:101940008183704781867047A0F84010704781847A
:101950007047028B22F00C020283028B0A4302833F
:101960007047028B22F440620283028B4FF6FF73B2
:1019700003EA01210A4302837047828B22F00C02A2
:101980008283828B0A4382837047828B22F4406277
:101990008283828B4FF6FF7303EA01210A4382831D
:1019A0007047000030B502881B4C1C4DA0420DD082
:1019B000A8420BD0B0F1804F08D0194B984205D007
:1019C000184B984202D0184B984203D122F0700372
:1019D0004A881A43154B984206D0154B984203D0BB
:1019E00022F44073CA881A4302808A8882850A8852
:1019F0000285A0420AD0A84208D00E4A904205D0E3
:101A00000D4A904202D00D4A904201D1097A0186D6
:101A10000121818230BD0000002C014000340140D2
:101A20000004004000080040000C0040001000408E
:101A300000140040004001400044014000480140C3
:101A40004FF6FF71818000210180C18041800172C9
:101A50007047000070B5164C40F22551204600F04A
:101A600039F800280ED0204600F0CEF8C1B2114A55
:101A70001088030406D444044FF0000307D50A2954
:101A800001D0138070BD40F40040108070BD0D295E
:101A90000AD0094DC0F30D042955401C80B21080B6
:101AA000C728F3D9138070BD40F48040108070BD0A
:101AB000003801404C000020F0000020002904D034
:101AC000818941F4005181817047818921F400515D
:101AD0008181704770B5002440F66A12C1F3421349
:101AE00001F01F05012606FA05F2012B0CD0022B8E
:101AF0000DD0838A1340090A8E40008830400BB114
:101B000000B10124204670BD83891340F3E7038AA6
:101B10001340F0E710B540F66A13C1F3421301F029
:101B20001F040121A140012B07D0022B07D0143044
:101B30003AB102680A43026010BD0C30F8E7103079
:101B4000F6E702688A43026010BD000030B585B038
:101B500004460D46208A4CF6FF710840E98801438F
:101B60002182A0894EF6F3110840A9882A891143E1
:101B70006A8902431143A181A08A4FF6FF410840C0
:101B8000A9890143A1826846FFF700FA1D488442F3
:101B900001D1039800E00298A189090408D500EB5F
:101BA000C00101EB001029684900B0FBF1F007E02B
:101BB00000EBC00101EB001029688900B0FBF1F0D7
:101BC0006422B0FBF2F109010B096FF018056B43B9
:101BD00000EB8300A3891D044FF0320307D503EB0C
:101BE000C000B0FBF2F000F00700084306E003EB92
:101BF0000010B0FBF2F000F00F000843208105B0A8
:101C000030BD0000003801408088C0F308007047F4
:101C1000FEE7490050EAC12018BF04204A0D18BF52
:101C200040F0010040F2FF72B2EB515F08BF40F09C
:101C30000200012808BF052070472DE9F0414F1E22
:101C400000EBC7010446D1E9000115461E4637F0F6
:101C500006020DD02A463346FEF7E1FB7F1E04EB59
:101C6000C703D3E90023FEF733FB37F00602F1D1B7
:101C7000022F25D0042F13D0062F18BFBDE8F08106
:101C80002A463346FEF7CBFBD4E90A23FEF720FBB6
:101C90002A463346FEF7C3FBD4E90823FEF718FBB8
:101CA0002A463346FEF7BBFBD4E90623FEF710FBBA
:101CB0002A463346FEF7B3FBD4E90423FEF708FBBC
:101CC0002A463346FEF7ABFBD4E90223FEF700FBBE
:101CD0002A463346FEF7A3FBD4E90023BDE8F041D2
:101CE000FEF7F6BA0122FEF781BDFEF7F1BA002237
:101CF000134610461146FEF70ABD0000024A0020B6
:101D00001107FEF773BD000001FDFFFF02E008C8E8
:101D1000121F08C1002AFAD170477047002001E065
:101D200001C1121F002AFBD1704700000149086061
:101D300070470000EC0000202DE9F04D8D4F21F0A0
:101D4000004A86B005460C46BA452ADBAAEB0700D6
:101D500028430AD08848824501DC1AD1CDB106B0AB
:101D60002846BDE8F04DFFF7BDBF844A844B2846A6
:101D7000FEF755FB07460E46824A834B284621460E
:101D8000FEF74DFB06B03A463346BDE8F04DFEF790
:101D90009FBA0120FFF7CAFF06B0BDE8F04DFFF77C
:101DA000A6BF7A48824542DABAF1795F0BDA284653
:101DB000FFF72FFF042808BFFFF7A0FF284606B053
:101DC0002146BDE8F08D2A460B461046FEF727FB5C
:101DD000834602466E480E460B4606217844FFF7BE
:101DE0002CFF5A463346FEF71AFB804669488A465E
:101DF0005A46334604217844FFF71FFF5A463346BC
:101E0000FEF70DFB00223B46FEF762FA02460B4648
:101E100040465146FEF77BFC2A462346FEF7FFFA72
:101E200006B02A462346BDE8F04DFEF751BA2846D3
:101E300024F0004100223D463B46FEF7EDFA4FF00C
:101E4000FF32FEF7D3FC0646024653480F460B46C8
:101E500006217844FFF7F1FE32463B46FEF7DFFAF3
:101E6000CDE900014D4832463B4604217844FFF756
:101E7000E4FE32463B46FEF7D2FA00222B46FEF73E
:101E800027FA834602913046394600F04CFD8046E1
:101E900043480D46504517DCDDE900015A46029BD8
:101EA000FEF735FC42462B46FEF7B9FA42462B4672
:101EB000FEF70EFA0122FEF799FC304A304BFEF78E
:101EC000A8FA304A304B4CE04FF0000A52460B461D
:101ED0004046FEF7FDF9CDE9031052462B46104669
:101EE0001946FEF79CFA32463B46FEF795FADDE9C5
:101EF0000332FEF70CFC06460F46DDE900015A46A8
:101F0000029BFEF704FC83460091012230463946CD
:101F1000FEF76CFC194A1A4BFEF77EFA06460F468E
:101F2000012240462946FEF761FC5A46009BFEF717
:101F300076FA32463B46FEF76CFA06460F46012219
:101F400050462946FEF752FC0E4DDFF858802A46CF
:101F50004346FEF761FA32463B46FEF75DFA2A46F3
:101F60004346FEF759FA002CD8BF81F0004106B075
:101F7000BDE8F08D0000F03F0000F07F075C1433F7
:101F800026A6913C182D4454FB21F93F0000E03F68
:101F9000880C00009E0C0000120C0000280C0000B1
:101FA0003333EF3FFB21E93F2DE9F84F04460D465F
:101FB00021F0004000917349814211DC724988424E
:101FC00001DC06D12CB120462946BDE8F84FFFF7C9
:101FD00089BE6E48002DCCBF6D496E49BDE8F88FB3
:101FE0006D49814211DD6D498142D8BF4FF0FF3606
:101FF0006DDD20462946FFF70CFE042808BFFFF7D9
:102000007DFE20462946BDE8F88F6549654F25F0DD
:102010000045814233DD6449814219DD00263246A4
:102020004FF0804320462946FEF752F980468A4603
:10203000012220462946FEF7D9FB00223B46FEF747
:10204000E8F942465346FEF762FB04460D463EE081
:1020500001260022BA463B4620462946FEF738F9BB
:1020600080460F460022534620462946FEF7D1F906
:1020700042463B46FEF74BFB04460D4627E04B49E4
:1020800081421BDDDFF828A10226002253462046AC
:102090002946FEF7C4F900223B46FEF719F98046AF
:1020A0000F460022534620462946FEF7B2F9424623
:1020B0003B46FEF72CFB04460D4608E0032622466D
:1020C0002B4600203B49FEF722FB04460D462246E4
:1020D0002B4610461946FEF7A2F98B468246024669
:1020E0000B46FEF79CF907460246334888460B46E6
:1020F00006217844FFF7A1FD52465B46FEF78FF9B3
:1021000082462E488B463A46434605217844FFF7DF
:1021100094FD3A464346FEF782F902460B46002EEE
:10212000504659460CDAFEF7D3F822462B46FEF706
:1021300076F901B022462B46BDE8F04FFEF76CB9A8
:10214000FEF7C6F822462B46FEF769F91C4A7A4488
:1021500002EBC603D3E90023FEF75BF922462B46C8
:10216000FEF757F9174A7A4402EBC603D3E9002376
:10217000FEF752F9009A002AB8BF81F00041BDE88D
:10218000F88F0000000010440000F07F182D445428
:10219000FB21F93FFB21F9BF0000DC3F0000203E9E
:1021A0000000F33F0000F03F0000E63F00800340E6
:1021B0000000F83F0000F0BF2A0A0000E809000014
:1021C000860900004E0900002DE9F04D9446CCF13F
:1021D000000423F000464CEA0404594F46EAD47444
:1021E0009A46884621F00042BC4206D8454240EA61
:1021F000050442EAD474BC4204D9BDE8F04D6246FD
:10220000FFF773BDAAF14055A5F17F6555EA0C04AF
:102210000BD0022404EAAA744A4DDFF82CE144EA08
:10222000D87452EA000B04D00CE0BDE8F04DFFF783
:10223000BBBE002C14BF012CBDE8F08D022C30D0A9
:10224000032C32D056EA0C0B0AD0BE4220D1BA423F
:1022500009D126F0804622F080423346114617E02D
:1022600000291ADB25E0DFF8E4B0FB44002C04BFB2
:10227000DBE90001BDE8F08D012C02BFDBE90001C4
:1022800081F00041BDE8F08D022C0AD0032C0CD067
:10229000BA4212D1B8F1000F0BDA2A482C49BDE836
:1022A000F08D28462B49BDE8F08D28467146BDE8E3
:1022B000F08D24482849BDE8F08D921B12153C2A68
:1022C000C4BF204F244E10DCBAF1000FBEBF12F184
:1022D0003C0F00273E4608DB6246FEF718FA21F065
:1022E0000041FFF761FE07460E4694B1012C08BF7E
:1022F00086F000460DD0194A194B022C384631465B
:1023000015D0FEF786F82A46BDE8F04D114BFEF7D2
:1023100080B80022134638463146FEF77FFA04BFE4
:102320000220FFF703FD38463146BDE8F08DFEF789
:1023300070F82A46BDE8F04D064BFEF76DB8000078
:102340000000F07F182D4454FB2109C0E208000072
:10235000FB21F9BFFB210940FB21F93F075C143346
:1023600026A6A13C70B50446E07800F0C00500F058
:102370003F006178094EC90707D0C30800F0070184
:10238000491C32680AB1184690476078000703D5A7
:10239000716809B1A8098847002070BDB801002004
:1023A00010B56FF00400FEF7EDFF09480949006819
:1023B000B0FBF1F00849C0B2087000EB4002C2EB7C
:1023C000C0104FF6FF7202EAC000488010BD000046
:1023D0002000002000127A00480000200B494988A4
:1023E00048434FF0E021486100238B61086940F0C9
:1023F000010008610869C20701D0C003FAD5086965
:1024000020F0010008618B61704700004800002047
:102410000B49097848434FF0E021486100238B6164
:10242000086940F0010008610869C20701D0C003D3
:10243000FAD5086920F0010008618B61704700003F
:10244000480000202DE9FF4F8DB01646DDE91A52F5
:10245000074688460024A146A5F80090DFF864B13D
:1024600005A99BF80E0000F057F94FF0FF3A18B19C
:10247000504611B0BDE8F08FBBF80A3013F0140FCE
:1024800061D09DF817009DF814109DF8162040EAC1
:1024900001609DF81510090441EA022108433060EB
:1024A0009DF81B109DF818209DF81A4041EA026122
:1024B0009DF81920120442EA0422114371609DF82C
:1024C0001F209DF81C409DF81EC042EA04629DF842
:1024D0001D40240444EA0C242243B2609DF82340AA
:1024E0009DF820C09DF822B044EA0C6C9DF8214074
:1024F000240444EA0B244CEA040CC6F80CC0102453
:102500000014019008140290101403904FEA2C401C
:10251000049001980299404301FB01010398049A39
:10252000404302FB02000844A0F17060B0F1007F5C
:1025300005D900F047F9A5F80090504699E728889A
:1025400040F480702880590605A818D50219065D48
:10255000517841EA0621A8F80010D178967841EA2E
:102560000621A8F802105179127941EA0221A8F84F
:102570000410A41DE4B2298841F00801298013F455
:10258000C07F15D00119065D4A7842EA06223A80DA
:10259000CA788E7842EA06227A804A79097942EA34
:1025A0000121B980A41DE4B2298841F0700129807D
:1025B000990702D02044FFF7D5FE109800F0B2F939
:1025C000002056E7B80100202DE9F04106460F46ED
:1025D00014461D46FEF788FBB0B17006000EFEF7EC
:1025E00053FBFEF7C7FB90B13846FEF74DFBFEF7F5
:1025F000C1FBFEF779FB012000EB4600C0B2FEF7FD
:1026000043FBFEF7B7FB0FE00120BDE8F081FEF7CA
:1026100095FB0120F9E7012C0CD00120FEF700FB0F
:1026200028706D1C641EE4B2002CF4D1FEF786FB0A
:102630000020EAE70020FEF7F3FA2870F1E72DE921
:10264000F04104460F4616461D46FEF74DFB68B1A5
:102650006006000EFEF718FBFEF78CFB48B138460B
:10266000FEF712FBFEF786FB00240DE00120BDE81B
:10267000F081FEF763FB0120F9E7285DFEF704FB1C
:10268000FEF778FB30B1641CB442F6DBFEF756FB74
:102690000020ECE7FEF752FB0020E8E7FEF78BF99D
:1026A0004FF4165000F066F9FFF77AFEFEF790FB44
:1026B0004FF47A70FFF792FE164C6FF0630503201B
:1026C000FEF7A4FDFDF71DFF20600420FEF79EFD30
:1026D000FDF717FF6060FDF71DFF2946FEF752F971
:1026E000FDF70FFFE0602068FDF714FF2946FEF7B5
:1026F00031F9FDF706FFA060FDF70CFFFEF7A8FD1E
:10270000E068FDF707FFFEF7C5FD0A20FFF766FE4C
:10271000D5E700000C0000202DE9F8430546894666
:102720001746274E4FF0FF3896F8240000280DD0AA
:10273000B07A68B130686B460222817A706800789E
:10274000FFF742FF30B14046BDE8F8834046FBE763
:102750004046F9E79DF801009DF8001040EA012489
:10276000AC4203D2002038704046EDE770684188E3
:10277000B4EB510F12D9316800786B46497C0122C5
:10278000FFF722FF08B14046DEE79DF80000C006D3
:1027900004D500F017F86FF00100D5E73068EAB211
:1027A0004B46C17A70680078FFF70EFF08B14046CB
:1027B000CAE7B4FBF5F0401E38700020C4E7000003
:1027C00050000020F8B5564D4FF0FF36A87A00288B
:1027D0000CD00024009428686B460122C17B6868F5
:1027E0000078FFF72CFF18B13046F8BD3046F8BD31
:1027F00028686B460122417968680078FFF71FFF5F
:1028000008B13046F8BD28686B4601220179686836
:102810000078FFF714FF08B13046F8BD95F82400A2
:1028200078B30C20009028686B4601220179686813
:102830000078FFF704FF08B13046F8BDC0200090D3
:10284000A87AC00701D0E020009028686B460122DA
:10285000017968680078FFF7F2FE08B13046F8BDEC
:10286000687C10B10220009000E0009428686B465C
:102870000122C17B68680078FFF7E1FE10B13046A5
:10288000F8BD0BE0009428686B4601224179686826
:102890000078FFF7D4FEA0B33046F1E704200090A3
:1028A00028686B460122017968680078FFF7C7FE47
:1028B00008B13046E4E7A87C78B9A87AC0070CD004
:1028C0006020009028686B460122017968680078D2
:1028D000FFF7B5FE20B13046D2E740200090F1E787
:1028E000687C10B10120009000E0009428686B46DD
:1028F0000122C17B68680078FFF7A1FE10B1304665
:10290000BEE70BE02868064B012241796868103366
:102910000078FFF794FE08B13046B1E70020AFE73A
:102920005000002070472DE9F04106460F46FDF7A4
:10293000AFFF041E0D4618BF0120284320F00040C1
:10294000C0F17F6000F1E040C00F0ED0301C18BF16
:102950000120384320F00040C0F17F6000F1E040EA
:10296000C00F04BF0120FFF7E1F920462946BDE86A
:10297000F081000070B586B00546012144F20400E4
:10298000FEF7F6FA4FF40070ADF8140003248DF84A
:10299000164018218DF817101C4E05A93046FEF779
:1029A000B3F83115ADF8141004218DF8171005A9EE
:1029B0003046FEF7A9F825208DF800008DF801407B
:1029C0008DF8024001208DF803006846FEF71EFADC
:1029D00001950020ADF80800ADF80A00ADF80C0034
:1029E000ADF810000C20ADF80E00094C01A92046EE
:1029F000FFF7ACF8012240F225512046FFF78AF894
:102A000001212046FFF75AF806B070BD00080140CA
:102A1000003801406800000476005401F7FD000111
:102A200075191A0C6A231B1C1F207274433B413812
:102A3000393A6B6C376F06246D6E700083000000AE
:102A400000080000000100183200050000002041CD
:102A50000000D242295C0F3E9A99993E3333733F6E
:102A6000295C0F3E00000000555555555555C53F92
:102A70007D6FEB0312D6D4BF5544880E55C1C93FB4
:102A80003B8F68B52882A4BF88B20175E0EF493F4B
:102A900009F7FD0DE13D023F4B2D8A1C273A03C08B
:102AA000C88A599CE52A004059018D1B6C06E6BF77
:102AB00082922EB1C5B8B33F4FBB610567ACDD3F15
:102AC000182D4454FB21E93F9BF681D20B73EF3F55
:102AD000182D4454FB21F93FE2652F227F2B7A3CCD
:102AE000075C143326A6813CBDCBF07A8807703C86
:102AF000075C143326A6913CC4EB98999999C9BFF9
:102B0000711623FEC671BCBF6D9A74AFF2B0B3BF2D
:102B10009AFDDE522DDEADBF2F6C6A2C44B4A2BFED
:102B20000D5555555555D53FFF8300922449C23F59
:102B30006E204CC5CD45B73F513DD0A0660DB13F8D
:102B4000EB0D76244B7BA93F11DA22E33AAD903F9F
:102B50000000000000000000782B000800000020AA
:102B6000F00000000C1D0008682C0008F000002098
:102B7000D80400001C1D0008000000000000000038
:102B80000000000000000000000000000000000045
:102B90000000000000000000007E5603000000005E
:102BA00000000000010203040607080902040608E9
:102BB00000000000010203040102030406070809E3
:102BC0000000000000000000202A0008142A00086D
:102BD00000000000000000000000000000000000F5
:102BE00000000000000000000000000000000000E5
:102BF0003C2A0008000000000000803F00000000A8
:102C000000000000000000000000000000000000C4
:102C100000000000FF000000FF00000001000000B5
:102C20000000C8C2000080BF0000000000000000DB
:102C30000000000000000000000000000000000094
:102C40000000000000000000000000000000000084
:102C50000000000000000000000000000000000074
:082C600000000000000000006C
:04000005080000ED02
:00000001FF
