:020000040800F2
:10000000D004002005010008730100086F010008FA
:10001000710100086B0100083103000800000000B6
:100020000000000000000000000000007701000850
:100030006D01000800000000750100082D02000895
:100040001F0100081F0100081F0100081F01000810
:100050001F0100081F0100081F0100081F01000800
:100060001F0100081F0100081F0100081F010008F0
:100070001F0100081F0100081F0100081F010008E0
:100080001F0100081F0100084D0100081F010008A2
:100090001F0100081F0100081F0100081F010008C0
:1000A0001F0100081F0100081F0100081F010008B0
:1000B0001F0100081F0100081F0100081F010008A0
:1000C0001F0100081F0100081F0100081F01000890
:1000D0001F010008810200081F0100081F0100081D
:1000E0001F0100081F0100081F010008DFF810D0E1
:1000F00000F01AF80048004751030008AFF30080F1
:10010000D00400200648804706480047FEE7FEE787
:10011000FEE7FEE7FEE7FEE7FEE7FEE7FEE7FEE7B7
:1001200031020008ED000008064C074D06E0E068CB
:1001300040F0010394E8070098471034AC42F6D32E
:10014000FFF7D8FF540300087403000810B50348F4
:1001500000F008F80249088010BD000000280140A6
:1001600000000020C06C80B27047FEE77047FEE7D9
:10017000FEE7704770477047AFF300800CB5002270
:10018000019200922748016841F4803101604FF4E8
:10019000A063016801F4003100910199491C0191AB
:1001A000009911B901999942F3D10168890302D5E7
:1001B0000121009100E000920099012930D11A49F3
:1001C0000A6842F010020A600A6822F007020A6018
:1001D0000A6842F002020A60416841604168416079
:1001E000416841F480614160416821F47C114160C3
:1001F000416841F4A8114160016841F080710160DB
:1002000001688901FCD5416821F003014160416822
:1002100041F0020141604168C1F381010229FAD134
:100220000CBD00000010024000200240704700009A
:1002300010B50F48016841F00101016041680D4AA5
:100240001140416001680C4A11400160016821F4CD
:1002500080210160416821F4FE0141604FF41F01DB
:100260008160FFF789FF05494FF00060086010BD0D
:10027000001002400000FFF8FFFFF6FE08ED00E06E
:1002800070B5164C40F22551204600F02DF800289C
:100290000ED0204600F048F8C1B2114A108803047D
:1002A00006D444044FF0000307D50A2901D0138077
:1002B00070BD40F40040108070BD0D290AD0094D7A
:1002C000C0F30D042955401C80B21080C728F3D913
:1002D000138070BD40F48040108070BD0038014034
:1002E000020000200400002070B5002440F66A12CD
:1002F000C1F3421301F01F05012606FA05F2012B96
:100300000CD0022B0DD0838A1340090A8E4000883E
:1003100030400BB100B10124204670BD83891340E9
:10032000F3E7038A1340F0E78088C0F308007047C2
:10033000FEE702E008C8121F08C1002AFAD1704780
:100340007047002001E001C1121F002AFBD1704755
:10035000FEE7000074030008000000200400000015
:10036000320300087803000804000020CC040000D9
:08037000420300080000000038
:04000005080000ED02
:00000001FF
