:020000040800F2
:10000000E8040020050100088B03000887030008AE
:100010008903000897010008CD0B000800000000CC
:1000200000000000000000000000000019050008AA
:100030009901000800000000F1030008D105000844
:100040001F0100081F0100081F0100081F01000810
:100050001F0100081F0100081F0100081F01000800
:100060001F0100081F0100081F0100081F010008F0
:100070001F0100081F0100081F0100081F010008E0
:100080001F0100081F010008790100081F01000876
:100090001F0100081F0100081F0100081F010008C0
:1000A0001F0100081F0100081F0100081F010008B0
:1000B0001F0100081F0100081F0100081F010008A0
:1000C0001F0100081F0100081F0100081F01000890
:1000D0001F010008110A00081F0100081F01000885
:1000E0001F0100081F0100081F010008DFF810D0E1
:1000F00000F030F8004800477D0D0008AFF30080A5
:10010000E80400200648804706480047FEE7FEE76F
:10011000FEE7FEE7FEE7FEE7FEE7FEE7FEE7FEE7B7
:10012000D5050008ED00000830B50B46014600205B
:100130002022012409E021FA02F59D4205D303FAA9
:1001400002F5491B04FA02F52844151EA2F101022A
:10015000F1DC30BD064C074D06E0E06840F00103DD
:1001600094E8070098471034AC42F6D3FFF7C2FF7B
:100170003C0E00085C0E000810B5034800F008F8BB
:100180000249088010BD0000002801400000002046
:10019000C06C80B27047FEE7704710B500F004F8FD
:1001A000BDE8104000F04EB810B588B00121022023
:1001B00000F020F90121042000F02AF9C020ADF858
:1001C000040004208DF8070001A91C4800F088F8FD
:1001D00005A800F013FC0020ADF814004FF6FF71E5
:1001E000ADF81810ADF81A00ADF81600144C05A9BA
:1001F000204600F0B5FB00231A460321204600F0FC
:1002000012FB02A800F070FB0A21ADF8101002A941
:10021000204600F023FB0121204600F0F5FA0122E0
:100220001146204600F068FB0021204600F06EFBDE
:100230000121204600F0EBFA08B010BD0008014093
:100240000004004010B588B00121042000F0D2F86D
:100250000121082000F0DCF8C020ADF804000420E3
:100260008DF8070001A91C4800F03AF805A800F035
:10027000C5FB0020ADF814004FF6FF71ADF8181063
:10028000ADF81A00ADF81600144C05A9204600F090
:1002900067FB00231A460321204600F0C4FA02A897
:1002A00000F022FB0A21ADF8101002A9204600F050
:1002B000D5FA0121204600F0A7FA01221146204676
:1002C00000F01AFB0021204600F020FB012120460F
:1002D00000F09DFA08B010BD000C0140000800407D
:1002E0002DE9F0410022CC7804F00F03E40601D59B
:1002F0008C7823430C784FF00F0714F0FF0F4FF06A
:10030000010C1CD005680CFA02F40E882640A642A7
:1003100011D1960007FA06F825EA080503FA06F84F
:1003200048EA0505CE78282E02D0482E02D002E0F9
:10033000446100E00461521C082AE4D305600A8885
:10034000FF2A1ED94568002202F108060CFA06F4BD
:100350000E882640A64210D1960007FA06F825EA34
:10036000080503FA06F848EA0505CE78282E00D1DC
:100370004461CE78482E00D10461521C082AE3D390
:100380004560BDE8F081FEE7FEE7704770B50F23DA
:10039000C27801260178002A1ED0144A126802F49D
:1003A000E062C2F5E062120AC2F10404D34045786B
:1003B000A54082781A402A43120101F1E02181F818
:1003C0000024007800F01F018E404009800000F1F9
:1003D000E020C0F8006170BD01F01F0086404809B0
:1003E000800000F1E020C0F8806170BD0CED00E0FD
:1003F00070470000054A002903D0D1690143D1614B
:100400007047D1698143D1617047000000100240FC
:10041000054A002903D091690143916170479169B0
:1004200081439161704700000010024010B5264AD8
:10043000516801F00C01254B002927D0042927D051
:10044000082927D00360516801F0F0010909204B09
:100450005C5C0168E1404160546804F4E064240A93
:100460001C5D21FA04F48460546804F46054E40AC6
:100470001B5DD940C160526802F44042920B144B9C
:100480001B1F9A5CB1FBF2F1016110BD0360DAE75A
:100490000360D8E7516801F47011536803F48033A6
:1004A000022404EB914133B153689B0307D5094BF8
:1004B00059430160C7E7074B59430160C3E7034B4A
:1004C00059430160BFE700000010024000127A00AB
:1004D0000600002000093D0070B5032804D0042860
:1004E0000CD00024204670BD094D284600F0B4F918
:1004F00004B20021284600F009FAF3E7054D28462A
:1005000000F0AAF904B20021284600F0FFF9E9E75B
:100510000004004000080040704700F001B80000EF
:100520000CB50022019200922748016841F4803105
:1005300001604FF4A063016801F40031009101995A
:10054000491C0191009911B901999942F3D10168AF
:10055000890302D50121009100E000920099012950
:1005600030D11A490A6842F010020A600A6822F083
:1005700007020A600A6842F002020A6041684160AC
:1005800041684160416841F480614160416821F403
:100590007C114160416841F4A8114160016841F05B
:1005A0008071016001688901FCD5416821F0030177
:1005B0004160416841F0020141604168C1F381013D
:1005C0000229FAD10CBD00000010024000200240B8
:1005D0007047000010B50F48016841F0010101604B
:1005E00041680D4A1140416001680C4A11400160A8
:1005F000016821F480210160416821F4FE0141601D
:100600004FF41F018160FFF788FF05494FF000603C
:10061000086010BD001002400000FFF8FFFFF6FE6A
:1006200008ED00E070B5048C24F001040484058B0F
:10063000048C25F0F3054FF6FF7606EA0313134307
:100640002B43104A90420ED00F4A90420BD0B0F18B
:10065000804F08D00D4A904205D00D4A904202D0FA
:100660000C4A904205D124F002020A4342F00101F3
:1006700004E024F00A020A4342F0010103830184EA
:1006800070BD0000002C0140003401400004004017
:1006900000080040000C0040F0B5048C24F0100469
:1006A0000484068B048C4FF6FF7505EA011726F4C7
:1006B000734605EA0333334305EA02221A43104B1B
:1006C00098420ED00F4B98420BD0B0F1804F08D01B
:1006D0000D4B984205D00D4B984202D00C4B9842DE
:1006E00005D124F02001394341F0100104E024F049
:1006F000A0030B4343F0100102830184F0BD00000E
:10070000002C01400034014000040040000800407B
:10071000000C0040F0B5048C24F480740484858BB4
:10072000048C4FF6FF7707EA012625F0F30507EA68
:10073000031313432B43104A90420ED00F4A9042AA
:100740000BD0B0F1804F08D00D4A904205D00D4A31
:10075000904202D00C4A904205D124F400713143FA
:1007600041F4807104E024F420620A4342F4807171
:1007700083830184F0BD0000002C0140003401405F
:100780000004004000080040000C0040F0B5048C5C
:1007900024F480540484868B048C4FF6FF7505EA9C
:1007A000013726F4734605EA0222324305EA033391
:1007B0001343104A90420ED00F4A90420BD0B0F132
:1007C000804F08D00D4A904205D00D4A904202D089
:1007D0000C4A904205D124F40051394341F4805130
:1007E00004E024F402420A4342F4805183830184EA
:1007F000F0BD0000002C0140003401400004004026
:1008000000080040000C0040C943018270470029E5
:1008100004D0018841F0010101807047018821F076
:1008200001010180704770B50589048B068C25F0A5
:1008300007050D434FF6FC410C4040F201110C43FB
:1008400026F022064FF6FF7101EA031111433143EE
:1008500005810483018470BD808C704770B50546A6
:100860000C461D48854209D01C48854206D0B5F18A
:10087000804F03D01A48854200D01A4820886188EA
:10088000A288238960B1042813D008281AD02846EA
:10089000FFF77CFFE1882846BDE8704000F054B8BF
:1008A0002846FFF7BFFEE1882846BDE8704000F00B
:1008B0002FB82846FFF7F0FEE1882846BDE87040D3
:1008C00000F02EB82846FFF725FFE1882846BDE84E
:1008D000704000F031B80000002C014000340140AD
:1008E00000040040000800400021018041800122F6
:1008F0008280C18001817047002A03D082890A4327
:100900008281704782898A438281704781847047DF
:10091000028B22F00C020283028B0A43028370478F
:10092000028B22F440620283028B4FF6FF7303EACC
:1009300001210A4302837047828B22F00C028283DA
:10094000828B0A4382837047828B22F440628283C7
:10095000828B4FF6FF7303EA01210A4382837047BB
:1009600030B502881B4C1C4DA0420DD0A8420BD0C4
:10097000B0F1804F08D0194B984205D0184B9842DF
:1009800002D0184B984203D122F070034A881A43D0
:10099000154B984206D0154B984203D022F4407371
:1009A000CA881A4302808A8882850A880285A04202
:1009B0000AD0A84208D00E4A904205D00D4A904273
:1009C00002D00D4A904201D1097A0186012181822B
:1009D00030BD0000002C0140003401400004004004
:1009E00000080040000C00400010004000140040CF
:1009F0000040014000440140004801404FF6FF71B3
:100A0000818000210180C180418001727047000017
:100A100070B5164C40F22551204600F039F80028F8
:100A20000ED0204600F0CEF8C1B2114A108803045F
:100A300006D444044FF0000307D50A2901D01380DF
:100A400070BD40F40040108070BD0D290AD0094DE2
:100A5000C0F30D042955401C80B21080C728F3D97B
:100A6000138070BD40F48040108070BD003801409C
:100A7000160000201C000020002904D0818941F4C8
:100A8000005181817047818921F400518181704733
:100A900070B5002440F66A12C1F3421301F01F053D
:100AA000012606FA05F2012B0CD0022B0DD0838A09
:100AB0001340090A8E40008830400BB100B1012478
:100AC000204670BD83891340F3E7038A1340F0E7A3
:100AD00010B540F66A13C1F3421301F01F0401215F
:100AE000A140012B07D0022B07D014303AB1026885
:100AF0000A43026010BD0C30F8E71030F6E70268D8
:100B00008A43026010BD000030B585B004460D4632
:100B1000208A4CF6FF710840E98801432182A089B0
:100B20004EF6F3110840A9882A8911436A890243C5
:100B30001143A181A08A4FF6FF410840A9890143D2
:100B4000A1826846FFF772FC1D48844201D10398D8
:100B500000E00298A189090408D500EBC00101EB6F
:100B6000001029684900B0FBF1F007E000EBC0017C
:100B700001EB001029688900B0FBF1F06422B0FBA2
:100B8000F2F109010B096FF018056B4300EB8300CC
:100B9000A3891D044FF0320307D503EBC000B0FB5F
:100BA000F2F000F00700084306E003EB0010B0FB92
:100BB000F2F000F00F000843208105B030BD0000C6
:100BC000003801408088C0F308007047FEE700004D
:100BD0000FB4054B10B503A9044A029800F018F8A9
:100BE00010BC5DF814FB0000650D00081800002023
:100BF00002E008C8121F08C1002AFAD170477047E6
:100C0000002001E001C1121F002AFBD17047000043
:100C10002DE9FF4F89B09B460446002506E02528B4
:100C20000BD05A460B999047641C6D1C2078002805
:100C3000F5D10DB02846BDE8F08F0027B846012257
:100C4000474900E0074314F8013F203B02FA03F054
:100C50000842F7D120782E2819D114F8010F47F057
:100C600004072A280ED06FF02F022078A0F130015F
:100C700009290CD808EB880102EB410100EB0108BF
:100C8000641CF2E70A98641C50F8048B0A902078E0
:100C90000028CED0642808D0692806D075281ED038
:100CA0005A460B9990476D1C58E00A994FF00A0973
:100CB00001C90A91002802DA40422D2102E03905DB
:100CC00004D52B218DF82010012103E0F90704D071
:100CD0002021F7E78A4608AE0DE00021FAE70A99DD
:100CE0004FF00A0901C90A91F7E74946FFF71CFAD4
:100CF000303106F8011D0028F7D1ADEB060000F1F8
:100D00002009780701D44FF00108C84502DDA8EB9F
:100D1000090000E000208046002706E008A85A46A7
:100D2000C05D0B9990476D1C7F1C5745F6DB04E0B6
:100D300030205A460B9990476D1CB8F10001A8F17C
:100D40000108F5DC05E016F8010B5A460B999047AF
:100D50006D1CB9F10001A9F10109F4DC641C65E71F
:100D60000928010004490A885206FCD5024AC1B28A
:100D7000121D11807047000000380140FFF70DFA86
:100D80004FF4165000F00AF80420FFF7A5FB01B25B
:100D900001A0FFF71DFFF7E725640A0070B586B0D4
:100DA0000546012144F20400FFF732FB4FF40070C6
:100DB000ADF8140003248DF8164018218DF8171093
:100DC0001C4E05A93046FFF78BFA3115ADF814100B
:100DD00004218DF8171005A93046FFF781FA252068
:100DE0008DF800008DF801408DF8024001208DF84B
:100DF00003006846FFF7CAFA01950020ADF8080025
:100E0000ADF80A00ADF80C00ADF810000C20ADF8FC
:100E10000E00094C01A92046FFF776FE012240F2A0
:100E200025512046FFF754FE01212046FFF724FEFE
:100E300006B070BD00080140003801405C0E00089B
:100E4000000000201C000000F00B0008780E0008D5
:100E50001C000020CC040000000C0008000002046C
:100E60000608000000000102030401020304060753
:080E7000080900000000000069
:04000005080000ED02
:00000001FF
