:020000040800F2
:100000008809002005010008210200081D020008DF
:100010001F0200086B010008F50B0008000000003B
:10002000000000000000000000000000C107000800
:100030006D01000800000000DB06000851090008FF
:100040001F0100081F0100081F0100081F01000810
:100050001F0100081F0100081F0100081F01000800
:100060001F0100081F0100081F0100081F010008F0
:100070001F0100081F0100081F0100081F010008E0
:100080001F0100081F0100084D0100081F010008A2
:100090001F0100081F0100081F0100081F010008C0
:1000A0001F0100081F0100081F0100081F010008B0
:1000B0001F0100081F0100081F0100081F010008A0
:1000C0001F0100081F0100081F0100081F01000890
:1000D0001F010008A50900081F0100080D0A0008FB
:1000E0001F0100081F0100081F010008DFF810D0E1
:1000F00000F01AF800480047510C0008AFF30080E8
:10010000880900200648804706480047FEE7FEE7CA
:10011000FEE7FEE7FEE7FEE7FEE7FEE7FEE7FEE7B7
:1001200055090008ED000008064C074D06E0E068A0
:1001300040F0010394E8070098471034AC42F6D32E
:10014000FFF7D8FFC02A0008E02A000810B50348CE
:1001500000F008F80249088010BD000000280140A6
:1001600000000020C06C80B27047FEE770472DE9A8
:10017000F0410022CC7804F00F03E40601D58C781E
:1001800023430C784FF00F0714F0FF0F4FF0010CD2
:100190001CD005680CFA02F40E882640A64211D144
:1001A000960007FA06F825EA080503FA06F848EA71
:1001B0000505CE78282E02D0482E02D002E04461F8
:1001C00000E00461521C082AE4D305600A88FF2A73
:1001D0001ED94568002202F108060CFA06F40E88C2
:1001E0002640A64210D1960007FA06F825EA08052F
:1001F00003FA06F848EA0505CE78282E00D14461B6
:10020000CE78482E00D10461521C082AE3D3456001
:10021000BDE8F0814161704701617047FEE7FEE78C
:100220007047000070B50F23C27801260178002ABC
:100230001ED0144A126802F4E062C2F5E062120AAB
:10024000C2F10404D3404578A54082781A402A437D
:10025000120101F1E02181F80024007800F01F0173
:100260008E404009800000F1E020C0F8006170BDC0
:1002700001F01F0086404809800000F1E020C0F82E
:10028000806170BD0CED00E002490843024908603E
:10029000704700000000FA050CED00E030B40021CA
:1002A000084C0022002004EBC1031A54401CC0B2C9
:1002B0008028FAD3491CC9B20829F3D330BC00F016
:1002C0001FB900000801002030B5CB0801F0070479
:1002D0000125A540ECB2074D05EBC005C808002A72
:1002E000285C02D02043E85430BDC0432043C043C3
:1002F000E85430BD0801002070B5054600240D4EBD
:10030000280604D502213046FFF786FF03E00221CC
:100310003046FFF77FFF01213046FFF77DFF0121C7
:100320003046FFF777FF6806050E641CE4B2082C20
:10033000E6D370BD0008014010B5094C02212046EB
:10034000FFF76AFF01212046FFF766FF02212046E2
:10035000FFF760FF2046BDE810400121FFF75ABFBC
:100360000008014010B5074C02212046FFF752FF5C
:1003700001212046FFF750FF2046BDE81040022132
:10038000FFF74ABF0008014010B5074C0221204684
:10039000FFF742FF01212046FFF73EFF2046BDE860
:1003A00010400121FFF736BF0008014070B5054637
:1003B0000C46FFF7C1FF7820FFF79EFFFFF7E4FF31
:1003C0001CB14020FFF798FF02E00020FFF794FFE8
:1003D000FFF7DAFF2846FFF78FFFFFF7D5FFBDE8ED
:1003E0007040FFF7BFBF000038B50121042000F0C6
:1003F00083F90320ADF8000014218DF803108DF867
:1004000002003A4C69462046FFF7B1FE0321204620
:10041000FFF702FF0021AE20FFF7C8FF00210846CA
:10042000FFF7C4FF00211020FFF7C0FF002140208C
:10043000FFF7BCFF00218120FFF7B8FF0021CF208C
:10044000FFF7B4FF0021A120FFF7B0FF0021C82073
:10045000FFF7ACFF0021A620FFF7A8FF0021A8208E
:10046000FFF7A4FF00213F20FFF7A0FF0021D320CA
:10047000FFF79CFF00210846FFF798FF0021D520D9
:10048000FFF794FF00218020FFF790FF0021D92083
:10049000FFF78CFF0021F120FFF788FF0021DA2011
:1004A000FFF784FF00211220FFF780FF0021DB20EF
:1004B000FFF77CFF00213020FFF778FF002120208C
:1004C000FFF774FF00210220FFF770FF00218D204D
:1004D000FFF76CFF00211420FFF768FFFFF7DEFE37
:1004E0000021AF20FFF762FF38BD00000008014087
:1004F0000346012000E05843491EC9B2FBD27047B1
:1005000070B50025174E05F1B000C0B20021FFF70D
:100510004DFF00210846FFF749FF00211020FFF79B
:1005200045FFFFF709FF7820FFF7E6FEFFF72CFFF6
:100530004020FFF7E1FEFFF727FF002406EBC40091
:100540000121405DFFF732FFFFF71EFF641CE4B29C
:10055000802CF3D3FFF706FF6D1CEDB2082DD2D32C
:1005600070BD0000080100202DE9FC4F814688463F
:100570001D46CDF80090C346082D03D0680704D06F
:10058000012003E00620019006E0002000EBD500EA
:1005900069084843C0B20190203A02F0FF0A0026E1
:1005A0004EE0082D14D00C2D19D0102D1ED0182D72
:1005B00049D127490AEBCA0001EB8000845D00277E
:1005C000E00718D0414648460B9AFFF77DFE19E038
:1005D00020490AEB4A0001EB4000845DEFE71E4929
:1005E0000AEB4A0001EB8000845DE8E71B4800EB62
:1005F0000A10845DE3E70B9838B300224146484671
:10060000FFF762FE640808F1010808F0FF087F1C8C
:10061000FFB2082FD4D309F1010909F0FF09082D11
:100620000BD00098A9EB0000B0EB550F05D1DDF819
:1006300000900BF1080B0BF0FF0BD846761CF6B2BE
:1006400001988642ADD3BDE8FC8F0122D6E70000B9
:100650003C190008B00C0008D80E00084C13000824
:100660002DE9FF4F81B08046DDE90EB992461D4667
:10067000002600244FEA5B071FE0281B401EC1B282
:100680000A20FFF735FFBAFBF0F00A21B0FBF1F2C8
:1006900001FB120026B9691E8C4201DA90B10126D5
:1006A0003030C2B207FB0480C0B25B46CDF8009088
:1006B0000299FFF759FF641CE4B2AC42DDD305B0E8
:1006C000BDE8F08F07FB0480C0B25B462022CDF866
:1006D00000900299FFF748FFEDE77047054A0029AF
:1006E00003D0D1690143D1617047D1698143D161A0
:1006F0007047000000100240054A002903D09169AC
:100700000143916170479169814391617047000095
:100710000010024010B5264A516801F00C01254B2B
:10072000002927D0042927D0082927D00360516841
:1007300001F0F0010909204B5C5C0168E140416077
:10074000546804F4E064240A1C5D21FA04F4846013
:10075000546804F46054E40A1B5DD940C1605268D7
:1007600002F44042920B144B1B1F9A5CB1FBF2F156
:10077000016110BD0360DAE70360D8E7516801F456
:100780007011536803F48033022404EB914133B1B8
:1007900053689B0307D5094B59430160C7E7074BD3
:1007A00059430160C3E7034B59430160BFE70000B1
:1007B0000010024000127A001C00002000093D00D9
:1007C0007047000070B586B001218804FFF786FFEE
:1007D00001210820FFF790FF18208DF817004FF433
:1007E0008060ADF8140003258DF81650224C05A941
:1007F0002046FFF7BCFC48218DF81710E114ADF836
:1008000014108DF8165005A92046FFF7B0FC4FF4E0
:10081000E13001900024ADF80840ADF80A40ADF891
:100820000C40ADF810400C20ADF80E00134E01A99D
:10083000304600F07DF90121304600F031F9012207
:1008400040F22551304600F057F94FF4A060FFF711
:100850001BFD27218DF800108DF801408DF8025006
:1008600001218DF803106846FFF7DCFC01213046BA
:1008700000F016F906B070BD000C014000480040C1
:10088000AFF300800CB50022019200922748016866
:1008900041F4803101604FF4A063016801F400313C
:1008A00000910199491C0191009911B9019999424E
:1008B000F3D10168890302D50121009100E0009283
:1008C0000099012930D11A490A6842F010020A60E1
:1008D0000A6822F007020A600A6842F002020A600F
:1008E0004168416041684160416841F48061416014
:1008F000416821F47C114160416841F4A8114160D4
:10090000016841F08071016001688901FCD541688E
:1009100021F003014160416841F0020141604168FA
:10092000C1F381010229FAD10CBD00000010024080
:10093000002002404FF0E021042804D0086920F094
:10094000040008617047086940F0040008617047BE
:100950007047000010B50F48016841F001010160C7
:1009600041680D4A1140416001680C4A1140016024
:10097000016821F480210160416821F4FE01416099
:100980004FF41F018160FFF77BFF05494FF00060C6
:10099000086010BD001002400000FFF8FFFFF6FEE7
:1009A00008ED00E070B5164C40F22551204600F0ED
:1009B00083F800280ED0204600F018F9C1B2114A81
:1009C0009088030406D444044FF0000307D50A2995
:1009D00001D0938070BD40F40040908070BD0D291F
:1009E0000AD0094DC0F30D042955401C80B29080F7
:1009F000C728F3D9938070BD40F48040908070BDCB
:100A000000380140300000204000002070B51E4D2D
:100A100040F225563146284600F04EF8012831D1E3
:100A2000284600F0E3F8C2B2184C002001212378D8
:100A300033B1012B09D0022B0ED0032B18D01BE0B1
:100A4000FF2A19D12170607016E0FE2A01D02070B3
:100A500012E0022020700FE00C486378801DC25421
:100A60005B1CDAB26270062A06D30320207003E012
:100A7000FE2A01D12070A17031462846BDE87040A1
:100A800000F006B870BD00000048004030000020B3
:100A900040F66A120A0A01219140C9430180704759
:100AA000002904D0818941F40051818170478189F6
:100AB00021F400518181704770B5002440F66A121C
:100AC000C1F3421301F01F05012606FA05F2012BBE
:100AD0000CD0022B0DD0838A1340090A8E40008867
:100AE00030400BB100B10124204670BD8389134012
:100AF000F3E7038A1340F0E710B540F66A13C1F339
:100B0000421301F01F040121A140012B07D0022B49
:100B100007D014303AB102680A43026010BD0C30AD
:100B2000F8E71030F6E702688A43026010BD000063
:100B300030B585B004460D46208A4CF6FF7108405A
:100B4000E98801432182A0894EF6F3110840A98863
:100B50002A8911436A8902431143A181A08A4FF671
:100B6000FF410840A9890143A1826846FFF7D2FDF1
:100B70001D48844201D1039800E00298A18909042C
:100B800008D500EBC00101EB001029684900B0FB5B
:100B9000F1F007E000EBC00101EB001029688900CB
:100BA000B0FBF1F06422B0FBF2F109010B096FF028
:100BB00018056B4300EB8300A3891D044FF032033B
:100BC00007D503EBC000B0FBF2F000F007000843CC
:100BD00006E003EB0010B0FBF2F000F00F0008435A
:100BE000208105B030BD0000003801408088C0F38E
:100BF00008007047FEE702E008C8121F08C1002A7B
:100C0000FAD170477047002001E001C1121F002A8D
:100C1000FBD1704710B56FF00400FFF78BFE094859
:100C200009490068B0FBF1F00849C0B2087000EB58
:100C30004002C2EBC0104FF6FF7202EAC0004880CB
:100C400010BD00000400002000127A002C000020DB
:100C50001CB5FFF7DFFFFFF7B5FDFFF7C5FB01246C
:100C6000124E1025CDE900543278022301210520CF
:100C7000FFF7F6FCCDE90054727802230121192018
:100C8000FFF7EEFCCDE90054B278022301212D20BC
:100C9000FFF7E6FCCDE90054F27802230121412060
:100CA000FFF7DEFCFFF72CFCDCE70000360000203D
:100CB0000000000000000000002F000000000700FE
:100CC000070000147F147F1400242A7F2A12006278
:100CD0006408132300364955225000000503000024
:100CE00000001C224100000041221C000014083EAC
:100CF00008140008083E0808000000A06000000872
:100D000008080808000060600000002010080402C5
:100D1000003E5149453E0000427F40000042615183
:100D20004946002141454B31001814127F1000271D
:100D300045454539003C4A494930000171090503E0
:100D400000364949493600064949291E0000363611
:100D50000000000056360000000814224100001474
:100D60001414141400004122140800020151090651
:100D700000324959513E007C1211127C007F4949D2
:100D80004936003E41414122007F4141221C007F03
:100D900049494941007F09090901003E4149497A11
:100DA000007F0808087F0000417F4100002040418B
:100DB0003F01007F08142241007F40404040007FF7
:100DC000020C027F007F0408107F003E4141413E3B
:100DD000007F09090906003E4151215E007F091983
:100DE00029460046494949310001017F0101003F80
:100DF0004040403F001F2040201F003F4038403F00
:100E00000063140814630007087008070061514963
:100E1000454300007F41410000552A552A550000F6
:100E200041417F0000040201020400404040404074
:100E3000000001020400002054545478007F48440C
:100E4000443800384444442000384444487F003843
:100E50005454541800087E0901020018A4A4A47C6C
:100E6000007F080404780000447D40000040808436
:100E70007D00007F102844000000417F4000007C7E
:100E800004180478007C080404780038444444388A
:100E900000FC242424180018242418FC007C0804D6
:100EA000040800485454542000043F444020003CAF
:100EB0004040207C001C2040201C003C4030403C36
:100EC000004428102844001CA0A0A07C00446454C6
:100ED0004C4414141414141400000000000000000A
:100EE000000000000000FC00000000000200000004
:100EF000000C020C020000000000000090D0BCD0EA
:100F0000BC900003000300001824FE448C00030280
:100F1000070201001824D8B04C8000030001020130
:100F2000C038E438E00001020201020208060000B5
:100F30000000000000000000000000F804020000B3
:100F400000010204000204F8000000040201000095
:100F50009060F86090000000010000002020FC205C
:100F60002000000001000000000000000000080652
:100F700000000000202020202000000000000000D1
:100F80000000000000000002000000000080601C63
:100F90000200040300000000F8040404F800010249
:100FA000020201000008FC00000000020302000031
:100FB00018844424180003020202020008042424B6
:100FC000D80001020202010040B088FC800000004D
:100FD000000302003C242424C40001020202010098
:100FE000F824242CC0000102020201000C04E41CBD
:100FF0000400000003000000D8242424D8000102CB
:101000000202010038444444F800000302020100D7
:10101000000010000000000002000000000020009E
:1010200000000000060000000020508804020000BC
:1010300000000102909090909000000000000000DD
:101040000002048850200002010000001804C4249B
:101050001800000002000000F804E494F800010207
:101060000202020000E09CF0800002030000030284
:1010700004FC2424D800020302020100F804040442
:101080000C0001020202010004FC0404F800020347
:101090000202010004FC24740C000203020203009B
:1010A00004FC24740C00020302000000F008044455
:1010B000CC4000010202010004FC2020FC040203D9
:1010C000000003020404FC04040002020302020004
:1010D000000404FC040406040403000004FC24D0FF
:1010E0000C0402030200030204FC040000000203DB
:1010F00002020203FC3CC03CFC00030003000300AE
:1011000004FC30C4FC04020302000300F8040404DD
:10111000F80001020202010004FC2424180002036A
:1011200002000000F8848404F800010202070500B0
:1011300004FC2464980002030200030218242444DF
:101140008C000302020201000C04FC040C000002EB
:101150000302000004FC0000FC0400010202010084
:10116000047C80E01C040000030000001CE03CE064
:101170001C00000300030000049C609C04000203A8
:1011800000030200041CE01C040000020302000033
:101190000C84641C04000203020203000000FE022F
:1011A0000200000007040400000E30C00000000030
:1011B00000010200000202FE00000004040700001B
:1011C0000004020400000000000000000000000015
:1011D00000000808080808080000020000000000DD
:1011E000000000000040A0A0C000000102020302B5
:1011F00004FC2020C00000030202010000C02020E7
:10120000600000010202020000C02024FC00000176
:101210000202030200C0A0A0C000000102020200FE
:101220000020F82424040002030202000040A0A0D1
:10123000602000070A0A0A0404FC2020C000020300
:10124000020003020020E40000000002030200008C
:10125000000020E4000008080807000004FC80E00B
:1012600020200203020003020404FC00000002022A
:1012700003020200E020E020C0000300030003009E
:1012800020E02020C00002030200030200C0202052
:10129000C00000010202010020E02020C000080F71
:1012A0000A02010000C02020E0000001020A0F082D
:1012B00020E0402020000203020000000060A0A007
:1012C00020000002020203000020F82000000000BD
:1012D0000102020020E00020E000000102020302FF
:1012E00020E0208060200000030100006080E0809A
:1012F0006000000300030000206080602000020303
:101300000003020020E020806020080807010000A0
:101310000020A0602000000203020200000020DE86
:101320000200000000070400000000FF00000000B1
:10133000000F00000002DE20000000040700000093
:10134000020102040402000000000000000000008E
:10135000000000000000000000000000000000F895
:1013600000000000000000333000000000100C06F8
:10137000100C0600000000000000000040C0784093
:10138000C0784000043F04043F040400007088FC5F
:1013900008300000001820FF211E0000F008F000B7
:1013A000E018000000211C031E211E0000F0088828
:1013B000700000001E2123241927211010160E0092
:1013C000000000000000000000000000000000E03D
:1013D0001804020000000007182040000002041852
:1013E000E00000000040201807000000404080F0AE
:1013F000804040000202010F01020200000000F0E4
:10140000000000000101011F0101010000000000B7
:101410000000000080B0700000000000000000002C
:1014200000000000000101010101010100000000B5
:10143000000000000030300000000000000000004C
:1014400080601804006018060100000000E0100829
:101450000810E000000F102020100F00001010F8FE
:10146000000000000020203F20200000007008083D
:1014700008887000003028242221300000300888BD
:10148000884830000018202020110E000000C020E5
:1014900010F8000000070424243F240000F8088806
:1014A000880808000019212020110E0000E0108893
:1014B00088180000000F112020110E0000380808C5
:1014C000C83808000000003F0000000000708808D5
:1014D00008887000001C222121221C0000E0100856
:1014E0000810E0000000312222110F00000000C0AF
:1014F000C00000000000003030000000000000804C
:10150000000000000000806000000000000080403B
:101510002010080000010204081020004040404054
:1015200040404000040404040404040000081020A7
:1015300040800000002010080402010000704808EC
:101540000808F0000000003036010000C030C82854
:10155000E810E0000718272423140B000000C0380F
:10156000E0000000203C23020227382008F8888889
:1015700088700000203F202020110E00C030080895
:1015800008083800071820202010080008F808086C
:101590000810E000203F202020100F0008F8888865
:1015A000E8081000203F20202320180008F8888831
:1015B000E8081000203F200003000000C0300808A9
:1015C0000838000007182020221E020008F8080032
:1015D0000008F808203F210101213F20000808F8F9
:1015E000080800000020203F20200000000008081C
:1015F000F8080800C08080807F00000008F888C0DC
:1016000028180800203F20012638200008F808008C
:1016100000000000203F20202020300008F8F800C3
:10162000F8F80800203F003F003F200008F830C0D5
:101630000008F808203F200007183F00E0100808C5
:101640000810E0000F10202020100F0008F80808F4
:101650000808F000203F210101010000E010080807
:101660000810E0000F18242438504F0008F888882C
:1016700088887000203F2000030C3020007088080C
:10168000080838000038202121221C00180808F81A
:10169000080818000000203F2000000008F808009B
:1016A0000008F808001F202020201F00087888006C
:1016B00000C83808000007380E010000F80800F8DC
:1016C0000008F800033C0700073C03000818688086
:1016D0008068180820302C03032C30200838C800FC
:1016E000C83808000000203F20000000100808084B
:1016F000C83808002038262120201800000000FEED
:10170000020202000000007F40404000000C30C098
:1017100000000000000000010638C00000020202C4
:10172000FE000000004040407F0000000000040276
:1017300002020400000000000000000000000000A1
:101740000000000080808080808080800002020491
:101750000000000000000000000000000000808089
:10176000808000000019242222223F2008F80080F7
:1017700080000000003F112020110E0000000080BA
:1017800080800000000E1120202011000000008049
:101790008088F800000E112020103F20000080807B
:1017A00080800000001F222222221300008080F08F
:1017B000888888180020203F2020000000008080BA
:1017C00080808000006B94949493600008F80080FF
:1017D00080800000203F210000203F20008098985A
:1017E000000000000020203F2020000000000080BA
:1017F0009898000000C08080807F000008F80000FA
:1018000080808000203F24022D302000000808F84E
:10181000000000000020203F202000008080808009
:1018200080808000203F20003F20003F808000809B
:1018300080800000203F210000203F2000008080A9
:1018400080800000001F202020201F00808000805A
:101850008000000080FFA12020110E000000008009
:1018600080808000000E112020A0FF8080808000FA
:101870008080800020203F21200001000000808027
:10188000808080000033242424241900008080E01C
:10189000808000000000001F2020000080800000E9
:1018A00000808000001F202020103F2080808000CA
:1018B0000080808000010E300806010080800080DA
:1018C000008080800F300C030C300F0000808000FF
:1018D000808080000020312E0E312000808080002A
:1018E0000080808080818E701806010000808080DA
:1018F000808080000021302C222130000000000078
:10190000807C020200000000003F40400000000018
:10191000FF00000000000000FF0000000002027C49
:10192000800000000040403F000000000006010170
:10193000020204040000000000000000000000009B
:101940000000000000000000000000000000000097
:101950000000000000000000000000000000000087
:101960000000000000F0F0F00000000000000000A7
:1019700000017F010000000000000000001C1C1C92
:101980000000000000008060301C8C60301C0C00E7
:101990000000000000000000000000000000000047
:1019A0000000000000000000000000E00000000057
:1019B00000E000000086E69F86868686E69F860019
:1019C00000011F01010101011F010100000080C091
:1019D0006020F820E0C00000000003070C18FF7032
:1019E000E18100000000070F10107F100F070000BA
:1019F0008060206080000000E02000000F30203078
:101A00009F70DC371030C0000000100E0300071874
:101A1000101807000000C02020E0C00000000000F7
:101A200080E01F38E88703C43C040000070F18104B
:101A3000100B070D1010080000808C4C38000000BF
:101A40000000000000000000000000000000000096
:101A50000000000000000000000000000000000086
:101A6000000080E0300804000000000000FEFF01DC
:101A700000000000000000000000030F18204000DC
:101A800000040830E08000000000000000000000BA
:101A900001FFFE0000000000004020180F030000BE
:101AA00000000000000000000000C0000000000076
:101AB000004266663C18FF183C6666420000000063
:101AC0000000030000000000000000000000800093
:101AD00000000000001010101010FF101010101067
:101AE00000000000000003000000000000000000F3
:101AF00000000000000000000000000000000000E6
:101B00000000000000808C4C380000000000000045
:101B10000000000000000000000000000010101095
:101B20001010101010101000000000000000000045
:101B300000000000000000000000000000000000A5
:101B400000000000000000000000000000001C1C5D
:101B50001C00000000000000000000000000000069
:101B6000E0380C000000000080701C030000000042
:101B70000060380E0100000000000000000080C07E
:101B800060202060C080000000FEFF010000000017
:101B900001FFFE000001070E181010180E070100CB
:101BA0000000808080C0E000000000000000000015
:101BB00000FFFF000000000000001010101F1F10A9
:101BC000101000000080402020202060C080000015
:101BD00000030300804020381F070000001C1A1972
:101BE00018181818181F00000080C020202060C09E
:101BF00080000000000303001010182FE780000091
:101C000000070F10101010180F0700000000000050
:101C10000000C0E0F000000000C0B088868180FFB6
:101C2000FF808000000000000010101F1F10100037
:101C30000000E060606060606060000000003F10D5
:101C400008080818F0E0000000070B101010101C26
:101C50000F030000000080C040202020E0C00000F2
:101C600000FCFF211008080818F0E0000001070C34
:101C700018101010080F03000000C0E060606060E2
:101C800060E06000000003000000E01807000000B2
:101C900000000000001F1F00000000000080C06066
:101CA0002020202060C080000087EF2C18183030E2
:101CB00068CF830000070F0810101010180F0700DE
:101CC0000000C0C020202020C0800000001F3F6016
:101CD0004040402010FFFE0000000C1C10101008B7
:101CE0000F030000000000000000000000000000E2
:101CF00000000000000E0E0E0000000000000000BA
:101D0000001C1C1C0000000000000000000000007F
:101D10000000000000000000000C0C0000000000AB
:101D20000000000000583800000000000000000023
:101D300000000080402010000000102844820100B4
:101D40000000000000000000000001020408100074
:101D500000000000000000000000000000848484F7
:101D600084848484848484000000000000000000D7
:101D70000000000000001020408000000000000073
:101D8000000000000000018244281000000010083C
:101D9000040201000000000000C0202010101010FC
:101DA00030E0C0000003030000F010080C0703003F
:101DB000000000001C1C1C0000000000000000C00F
:101DC000406020202040C00000FCFF01F00E03C155
:101DD000FE03807F0001070E081111101109040293
:101DE0000000000080E0E000000000000000807CB7
:101DF0004340477FF880000010181F1000000000CB
:101E0000131F1C1020E0E02020202060C080000074
:101E100000FFFF10101010182FE78000101F1F1078
:101E200010101010180F0700000080C04020202064
:101E30002060E00000FCFF01000000000000010045
:101E40000001070E181010100804030020E0E02025
:101E500020202040C080000000FFFF0000000000A4
:101E600001FFFE00101F1F10101018080E070100C0
:101E700020E0E020202020202060800000FFFF10D4
:101E80001010107C00000000101F1F101010101008
:101E90001018060020E0E020202020206060800054
:101EA00000FFFF101010107C00000100101F1F1019
:101EB0000000000000000000000080C06020202022
:101EC00040E0000000FCFF0100004040C0C1404075
:101ED0000001070E181010100F0F000020E0E02086
:101EE0000000000020E0E02000FFFF1010101010A4
:101EF00010FFFF00101F1F1000000000101F1F1018
:101F00000000202020E0E020202000000000000051
:101F100000FFFF000000000000001010101F1F1045
:101F20001010000000000000202020E0E020202011
:101F300000000000000000FFFF0000000060E080E3
:101F40008080C07F3F00000020E0E020000020A053
:101F50006020200000FFFF30187CE3C0000000007C
:101F6000101F1F10000001131F1C181020E0E0209C
:101F7000000000000000000000FFFF000000000063
:101F800000000000101F1F10101010101018060085
:101F900020E0E0E000000000E0E0E02000FF013F82
:101FA000FEC0E01E01FFFF00101F1000031F030012
:101FB000101F1F1020E0E0C0000000000020E02003
:101FC00000FF0003071C78E08000FF00101F1000D6
:101FD00000000000030F1F00000080C06020206090
:101FE000C080000000FEFF010000000000FFFE00B6
:101FF0000001070E181010180C07010020E0E02067
:102000002020202060C0800000FFFF202020202012
:10201000301F0F00101F1F10000000000000000004
:10202000000080C060202060C080000000FEFF0132
:102030000000000000FFFE000001070E1111133C1C
:102040007C67210020E0E0202020202060C080006C
:1020500000FFFF101030F0D0080F0700101F1F10F6
:10206000000000030F1C10100080C0602020202002
:102070004040E00000070F0C1818303060E081008D
:10208000001F0C0810101010180F0700806020208F
:1020900020E0E020202060800100000000FFFF0021
:1020A0000000000100000000101F1F1000000000D1
:1020B00020E0E020000000000020E02000FFFF0002
:1020C000000000000000FF0000070F1810101010A3
:1020D000100807002060E0E02000000020E0602001
:1020E0000000077FF88000807C03000000000000F3
:1020F000071F1C070000000020E0E02000E0E020B7
:102100000020E0200007FFF8E01FFFFCE01F0000B8
:102110000000031F0300011F03000000002060E017
:10212000A0000020E0602000000000038F7CF8C6C3
:10213000010000000010181E130001171F181000E6
:102140002060E0E02000000020E0602000000107A7
:102150003EF8E0180700000000000010101F1F10DC
:102160001000000000806020202020A0E0E020007F
:1021700000000000C0F03E0F0300000000101C1F14
:1021800017101010101806000000000000FC0404D6
:10219000040404000000000000FF00000000000034
:1021A00000000000007F404040404000000010E080
:1021B000000000000000000000000000031C608020
:1021C0000000000000000000000000030C70800010
:1021D00000000404040404FC0000000000000000EF
:1021E000000000FF00000000000040404040407F31
:1021F0000000000000000010080C040C0810000093
:1022000000000000000000000000000000000000CE
:1022100000000000000000000000000000000000BE
:1022200000000000000000000000000000000000AE
:10223000808080808080808080808080000000049A
:10224000040808000000000000000000000000007A
:10225000000000000000000000000000000000007E
:10226000000000000000000000000000000098D8FE
:1022700044642424FCF80000000F1F1810101008FC
:102280001F1F10180020E0F00000000000000000F8
:102290000000FFFF180804040CF8F00000001F0FF6
:1022A00018101010180F03000000000000000000BC
:1022B0000000000000E0F8180404043C38000000AE
:1022C00000030F0C101010100806000000000000A2
:1022D00000000020E0F0000000E0F81C0404040806
:1022E000FFFF000000030F18101010081F0F080058
:1022F0000000000000000000000000000000E0F806
:10230000484444444C7870000000030F0C1810102F
:10231000100804000000000080C0602020E0C00021
:1023200000040404FFFF0404040400000000101073
:102330001F1F10101000000000000000000000002F
:1023400000000000000070F88C04048CF874040C89
:10235000007076CF8D8D8D89C87870000020E0F0F8
:1023600000000000000000000000FFFF080404045B
:10237000FCF8000000101F1F100000101F1F1000AD
:102380000000000000606000000000000000040485
:1023900004FCFC000000000000001010101F1F10C3
:1023A000101000000000000000000060600000004D
:1023B00000000000040404FCFC0000000000C0C099
:1023C0008080C07F3F0000000020E0F0000000009F
:1023D000000000000000FFFF80C0F41C04040000A7
:1023E00000101F1F1100031F1C10100000002020F0
:1023F00020E0F000000000000000000000FFFF00EF
:102400000000000000001010101F1F10101000002E
:1024100000000000000000000000000004FCFC08B8
:1024200004FCFC0804FCFC00101F1F10001F1F1000
:10243000001F1F100000000000000000000000004E
:102440000004FCFC08080404FCF8000000101F1F36
:10245000100000101F1F100000000000000000000E
:102460000000000000E0F0180C04040C18F0E0007C
:1024700000030F0C101010100C0F030000000000E0
:1024800000000000000000000004FCFC080404043C
:102490000CF8F0000080FFFF889010101C0F030064
:1024A00000000000000000000000000000E0F81C38
:1024B00004040408F8FC000000030F1810109088B2
:1024C000FFFF80000000000000000000000000008E
:1024D000040404FCFC100804040C0C001010101F71
:1024E0001F1010100000000000000000000000009D
:1024F0000000000000003078CCC48484840C1C00F0
:1025000000001E1810101011190F06000000000026
:1025100000C000000000000000040404FFFF0404E9
:1025200004000000000000000F1F1010100C00003D
:102530000000000000000000000000000004FCFE9D
:1025400000000004FCFE000000000F1F181010081F
:102550001F0F080000000000000000000000000045
:1025600000040C3CFCC40000C43C0C04000000004F
:10257000010F1E0E0100000000000000000000001E
:1025800000000000043CFCC400E47CFC84807C046B
:102590000000071F070000071F07000000000000E1
:1025A00000000000000000000004041C7CE4C034B3
:1025B0001C0404000010101C1601131F1C1810002E
:1025C00000000000000000000000000000040C3CBF
:1025D000FCC400C43C0404000000C080C1370E01EC
:1025E00000000000000000000000000000000000EB
:1025F00000001C0404C4F47C1C0400000000101C37
:102600001F17111010180E0000000000000000F845
:102610000C04000000000000001028EF0000000083
:10262000000000000000003F6040000000000000CB
:102630000000FF0000000000000000000000FF009C
:1026400000000000000000000000FF00000000008B
:102650000000040CF8000000000000000000000072
:10266000EF28100000000000000040603F00000064
:1026700000000000001806020204081020203008A4
:10268000000000000000000000000000000000004A
:1026900000000000000000000000F010101010FF0B
:1026A00010101010F000000000000F04040404FFDC
:1026B000040404040F0000004040405F5555557568
:1026C0005555555F404040000040200F0949897929
:1026D0000909090F2040000000FE02424ACA4A4A86
:1026E000CA4A4A4202FE000000FF40504C434040AC
:1026F0004F50505C40FF00000000F888888888FF39
:1027000088888888F800000000001F080808087FF3
:10271000888888889F80F00080828282828282E21C
:10272000A2928A8682808000000000000040807FA4
:102730000000000000000000101010FF109008883A
:102740008888FF88888808000444827F0180804050
:10275000432C1028468180000010101010D030FF4C
:1027600030D0121C1010000010080402010000FFFD
:10277000000001020408100004040484E43C27243F
:10278000242424E40404040004020100FF090909CC
:102790000949897F0000000000FE225A8600FE924F
:1027A00092929292FE00000000FF04080700FF4092
:1027B00020030C14224140000080402018068000B5
:1027C00007182040800000000100207028262120EA
:1027D000202438600001010000101292929292921F
:1027E00092121202FE0000000000003F10101010B4
:1027F0003F0040807F000000000000C0808080809B
:10280000808080FC84808080808080C0C000000048
:10281000000000FF7F404040404040FF40404040BB
:10282000404040FF7F00000000000000000000006A
:102830000000007F700000000000000000000000A9
:10284000000000000000000000000000000000FC8C
:10285000F800000000000000000000000000000080
:1028600000000000FFFE020202020202020202FF5A
:10287000FF020202020202020202FF030000000045
:10288000000000001F1F040404040404040404FFE7
:10289000FF0404040404040404041F0000000000F6
:1028A0000000000000000000000000000000007FA9
:1028B0003F000000000000000000000000000000D9
:1028C0000000000000000000000000000000000008
:1028D00000000000000000000000000000F8F8F018
:1028E000F070200000000000000000000000000068
:1028F00000000000000000000000000000000000D8
:102900000000000000000000800000000000000047
:1029100000000000000000000000000000FFFFFFBA
:10292000FF000000000000000000000000000000A8
:102930000000000080800000000000000000000097
:10294000000000000000000000FFFFFE0606060673
:1029500006060606060606060606060606FFFFFF2C
:10296000FF0606060606060606060606060606060E
:10297000060606FFFFFFFF07020000000000000040
:10298000000000000000000000FFFFFF000000004A
:1029900000000000000000000000000000FFFFFF3A
:1029A000FF00000000000000000000000000000028
:1029B000000000FFFFFFFF0000000000000000001B
:1029C000000000000000000000FFFFFF18181818AA
:1029D00018181818181818181818181818FFFFFFC2
:1029E000FF18181818181818181818181818181880
:1029F000181818FFFFFFFF00000000000000000093
:102A000000000000000000000201010000000000C2
:102A100000000000000000000000000000FFFFFFB9
:102A2000FF000000000000000000000000000000A7
:102A30000000000101000000000000000000000094
:102A40000000000000000000000000000000000086
:102A500000000000000000000000000000FFFFFF79
:102A6000FF00000000000000000000000000000067
:102A70000000000000000000000000000000000056
:102A80000000000000000000000000000000000046
:102A9000000000000000000000000000001F1F0FE9
:102AA0000F00000000000000000000000000000017
:102AB0000000000000000000000000000000000016
:102AC000E02A00080000002040000000F60B00088B
:102AD000202B00084000002048090000060C0008D8
:102AE00000000000007E560300000000000000000F
:102AF000010203040607080902040608000000009A
:102B00000102030401020304060708090000000093
:102B100000000000000000000000000000000000B5
:04000005080000ED02
:00000001FF
